{
  "contractName": "ConfettiRoll",
  "abi": [
    {
      "inputs": [
        {
          "internalType": "contract IERC20",
          "name": "confetti_",
          "type": "address"
        },
        {
          "internalType": "address",
          "name": "seeder_",
          "type": "address"
        },
        {
          "internalType": "address",
          "name": "treasury_",
          "type": "address"
        }
      ],
      "stateMutability": "nonpayable",
      "type": "constructor"
    },
    {
      "anonymous": false,
      "inputs": [
        {
          "indexed": true,
          "internalType": "bytes32",
          "name": "gameId",
          "type": "bytes32"
        }
      ],
      "name": "GameCreated",
      "type": "event"
    },
    {
      "anonymous": false,
      "inputs": [
        {
          "indexed": true,
          "internalType": "address",
          "name": "previousOwner",
          "type": "address"
        },
        {
          "indexed": true,
          "internalType": "address",
          "name": "newOwner",
          "type": "address"
        }
      ],
      "name": "OwnershipTransferred",
      "type": "event"
    },
    {
      "anonymous": false,
      "inputs": [
        {
          "indexed": false,
          "internalType": "address",
          "name": "account",
          "type": "address"
        }
      ],
      "name": "Paused",
      "type": "event"
    },
    {
      "anonymous": false,
      "inputs": [
        {
          "indexed": true,
          "internalType": "bytes32",
          "name": "gameId",
          "type": "bytes32"
        },
        {
          "indexed": true,
          "internalType": "address",
          "name": "player",
          "type": "address"
        }
      ],
      "name": "PlayerJoined",
      "type": "event"
    },
    {
      "anonymous": false,
      "inputs": [
        {
          "indexed": true,
          "internalType": "bytes32",
          "name": "gameId",
          "type": "bytes32"
        },
        {
          "indexed": true,
          "internalType": "address",
          "name": "player",
          "type": "address"
        }
      ],
      "name": "PlayerLost",
      "type": "event"
    },
    {
      "anonymous": false,
      "inputs": [
        {
          "indexed": true,
          "internalType": "bytes32",
          "name": "role",
          "type": "bytes32"
        },
        {
          "indexed": true,
          "internalType": "bytes32",
          "name": "previousAdminRole",
          "type": "bytes32"
        },
        {
          "indexed": true,
          "internalType": "bytes32",
          "name": "newAdminRole",
          "type": "bytes32"
        }
      ],
      "name": "RoleAdminChanged",
      "type": "event"
    },
    {
      "anonymous": false,
      "inputs": [
        {
          "indexed": true,
          "internalType": "bytes32",
          "name": "role",
          "type": "bytes32"
        },
        {
          "indexed": true,
          "internalType": "address",
          "name": "account",
          "type": "address"
        },
        {
          "indexed": true,
          "internalType": "address",
          "name": "sender",
          "type": "address"
        }
      ],
      "name": "RoleGranted",
      "type": "event"
    },
    {
      "anonymous": false,
      "inputs": [
        {
          "indexed": true,
          "internalType": "bytes32",
          "name": "role",
          "type": "bytes32"
        },
        {
          "indexed": true,
          "internalType": "address",
          "name": "account",
          "type": "address"
        },
        {
          "indexed": true,
          "internalType": "address",
          "name": "sender",
          "type": "address"
        }
      ],
      "name": "RoleRevoked",
      "type": "event"
    },
    {
      "anonymous": false,
      "inputs": [
        {
          "indexed": false,
          "internalType": "address",
          "name": "account",
          "type": "address"
        }
      ],
      "name": "Unpaused",
      "type": "event"
    },
    {
      "inputs": [],
      "name": "DEFAULT_ADMIN_ROLE",
      "outputs": [
        {
          "internalType": "bytes32",
          "name": "",
          "type": "bytes32"
        }
      ],
      "stateMutability": "view",
      "type": "function"
    },
    {
      "inputs": [],
      "name": "TREASURY_ROLE",
      "outputs": [
        {
          "internalType": "bytes32",
          "name": "",
          "type": "bytes32"
        }
      ],
      "stateMutability": "view",
      "type": "function"
    },
    {
      "inputs": [],
      "name": "betTip",
      "outputs": [
        {
          "internalType": "uint256",
          "name": "",
          "type": "uint256"
        }
      ],
      "stateMutability": "view",
      "type": "function"
    },
    {
      "inputs": [],
      "name": "confetti",
      "outputs": [
        {
          "internalType": "contract IERC20",
          "name": "",
          "type": "address"
        }
      ],
      "stateMutability": "view",
      "type": "function"
    },
    {
      "inputs": [],
      "name": "defaultBet",
      "outputs": [
        {
          "internalType": "uint256",
          "name": "",
          "type": "uint256"
        }
      ],
      "stateMutability": "view",
      "type": "function"
    },
    {
      "inputs": [],
      "name": "defaultMaxParticipants",
      "outputs": [
        {
          "internalType": "uint256",
          "name": "",
          "type": "uint256"
        }
      ],
      "stateMutability": "view",
      "type": "function"
    },
    {
      "inputs": [],
      "name": "defaultStartingRoll",
      "outputs": [
        {
          "internalType": "uint256",
          "name": "",
          "type": "uint256"
        }
      ],
      "stateMutability": "view",
      "type": "function"
    },
    {
      "inputs": [
        {
          "internalType": "bytes32",
          "name": "role",
          "type": "bytes32"
        }
      ],
      "name": "getRoleAdmin",
      "outputs": [
        {
          "internalType": "bytes32",
          "name": "",
          "type": "bytes32"
        }
      ],
      "stateMutability": "view",
      "type": "function"
    },
    {
      "inputs": [
        {
          "internalType": "bytes32",
          "name": "role",
          "type": "bytes32"
        },
        {
          "internalType": "uint256",
          "name": "index",
          "type": "uint256"
        }
      ],
      "name": "getRoleMember",
      "outputs": [
        {
          "internalType": "address",
          "name": "",
          "type": "address"
        }
      ],
      "stateMutability": "view",
      "type": "function"
    },
    {
      "inputs": [
        {
          "internalType": "bytes32",
          "name": "role",
          "type": "bytes32"
        }
      ],
      "name": "getRoleMemberCount",
      "outputs": [
        {
          "internalType": "uint256",
          "name": "",
          "type": "uint256"
        }
      ],
      "stateMutability": "view",
      "type": "function"
    },
    {
      "inputs": [
        {
          "internalType": "bytes32",
          "name": "role",
          "type": "bytes32"
        },
        {
          "internalType": "address",
          "name": "account",
          "type": "address"
        }
      ],
      "name": "grantRole",
      "outputs": [],
      "stateMutability": "nonpayable",
      "type": "function"
    },
    {
      "inputs": [
        {
          "internalType": "bytes32",
          "name": "role",
          "type": "bytes32"
        },
        {
          "internalType": "address",
          "name": "account",
          "type": "address"
        }
      ],
      "name": "hasRole",
      "outputs": [
        {
          "internalType": "bool",
          "name": "",
          "type": "bool"
        }
      ],
      "stateMutability": "view",
      "type": "function"
    },
    {
      "inputs": [],
      "name": "maxBet",
      "outputs": [
        {
          "internalType": "uint256",
          "name": "",
          "type": "uint256"
        }
      ],
      "stateMutability": "view",
      "type": "function"
    },
    {
      "inputs": [],
      "name": "maxStartingRoll",
      "outputs": [
        {
          "internalType": "uint256",
          "name": "",
          "type": "uint256"
        }
      ],
      "stateMutability": "view",
      "type": "function"
    },
    {
      "inputs": [],
      "name": "minBet",
      "outputs": [
        {
          "internalType": "uint256",
          "name": "",
          "type": "uint256"
        }
      ],
      "stateMutability": "view",
      "type": "function"
    },
    {
      "inputs": [],
      "name": "minStartingRoll",
      "outputs": [
        {
          "internalType": "uint256",
          "name": "",
          "type": "uint256"
        }
      ],
      "stateMutability": "view",
      "type": "function"
    },
    {
      "inputs": [],
      "name": "owner",
      "outputs": [
        {
          "internalType": "address",
          "name": "",
          "type": "address"
        }
      ],
      "stateMutability": "view",
      "type": "function"
    },
    {
      "inputs": [],
      "name": "paused",
      "outputs": [
        {
          "internalType": "bool",
          "name": "",
          "type": "bool"
        }
      ],
      "stateMutability": "view",
      "type": "function"
    },
    {
      "inputs": [],
      "name": "renounceOwnership",
      "outputs": [],
      "stateMutability": "nonpayable",
      "type": "function"
    },
    {
      "inputs": [
        {
          "internalType": "bytes32",
          "name": "role",
          "type": "bytes32"
        },
        {
          "internalType": "address",
          "name": "account",
          "type": "address"
        }
      ],
      "name": "renounceRole",
      "outputs": [],
      "stateMutability": "nonpayable",
      "type": "function"
    },
    {
      "inputs": [
        {
          "internalType": "bytes32",
          "name": "role",
          "type": "bytes32"
        },
        {
          "internalType": "address",
          "name": "account",
          "type": "address"
        }
      ],
      "name": "revokeRole",
      "outputs": [],
      "stateMutability": "nonpayable",
      "type": "function"
    },
    {
      "inputs": [],
      "name": "seeder",
      "outputs": [
        {
          "internalType": "contract RpSeeder",
          "name": "",
          "type": "address"
        }
      ],
      "stateMutability": "view",
      "type": "function"
    },
    {
      "inputs": [
        {
          "internalType": "bytes4",
          "name": "interfaceId",
          "type": "bytes4"
        }
      ],
      "name": "supportsInterface",
      "outputs": [
        {
          "internalType": "bool",
          "name": "",
          "type": "bool"
        }
      ],
      "stateMutability": "view",
      "type": "function"
    },
    {
      "inputs": [],
      "name": "tipAmount",
      "outputs": [
        {
          "internalType": "uint256",
          "name": "",
          "type": "uint256"
        }
      ],
      "stateMutability": "view",
      "type": "function"
    },
    {
      "inputs": [
        {
          "internalType": "address",
          "name": "newOwner",
          "type": "address"
        }
      ],
      "name": "transferOwnership",
      "outputs": [],
      "stateMutability": "nonpayable",
      "type": "function"
    },
    {
      "inputs": [],
      "name": "treasury",
      "outputs": [
        {
          "internalType": "address",
          "name": "",
          "type": "address"
        }
      ],
      "stateMutability": "view",
      "type": "function"
    },
    {
      "inputs": [],
      "name": "treasuryAmount",
      "outputs": [
        {
          "internalType": "uint256",
          "name": "",
          "type": "uint256"
        }
      ],
      "stateMutability": "view",
      "type": "function"
    },
    {
      "inputs": [],
      "name": "treasuryFee",
      "outputs": [
        {
          "internalType": "uint256",
          "name": "",
          "type": "uint256"
        }
      ],
      "stateMutability": "view",
      "type": "function"
    },
    {
      "inputs": [
        {
          "internalType": "uint256",
          "name": "treasuryFee_",
          "type": "uint256"
        }
      ],
      "name": "setTreasuryFee",
      "outputs": [],
      "stateMutability": "nonpayable",
      "type": "function"
    },
    {
      "inputs": [],
      "name": "withdrawTax",
      "outputs": [],
      "stateMutability": "nonpayable",
      "type": "function"
    },
    {
      "inputs": [],
      "name": "withdrawTip",
      "outputs": [],
      "stateMutability": "nonpayable",
      "type": "function"
    },
    {
      "inputs": [
        {
          "internalType": "uint256",
          "name": "betTip_",
          "type": "uint256"
        }
      ],
      "name": "setBetTip",
      "outputs": [],
      "stateMutability": "nonpayable",
      "type": "function"
    },
    {
      "inputs": [
        {
          "internalType": "uint256",
          "name": "min",
          "type": "uint256"
        },
        {
          "internalType": "uint256",
          "name": "max",
          "type": "uint256"
        },
        {
          "internalType": "uint256",
          "name": "default_",
          "type": "uint256"
        }
      ],
      "name": "setBets",
      "outputs": [],
      "stateMutability": "nonpayable",
      "type": "function"
    },
    {
      "inputs": [
        {
          "internalType": "uint256",
          "name": "min",
          "type": "uint256"
        },
        {
          "internalType": "uint256",
          "name": "max",
          "type": "uint256"
        },
        {
          "internalType": "uint256",
          "name": "default_",
          "type": "uint256"
        }
      ],
      "name": "setStartingRolls",
      "outputs": [],
      "stateMutability": "nonpayable",
      "type": "function"
    },
    {
      "inputs": [],
      "name": "currentRound",
      "outputs": [
        {
          "internalType": "uint256",
          "name": "",
          "type": "uint256"
        }
      ],
      "stateMutability": "view",
      "type": "function"
    },
    {
      "inputs": [
        {
          "internalType": "uint256",
          "name": "roundNum",
          "type": "uint256"
        }
      ],
      "name": "getSeed",
      "outputs": [
        {
          "internalType": "uint256",
          "name": "",
          "type": "uint256"
        }
      ],
      "stateMutability": "view",
      "type": "function"
    },
    {
      "inputs": [
        {
          "internalType": "bytes32",
          "name": "gameId",
          "type": "bytes32"
        }
      ],
      "name": "getGame",
      "outputs": [
        {
          "components": [
            {
              "internalType": "uint256",
              "name": "roundNum",
              "type": "uint256"
            },
            {
              "internalType": "uint256",
              "name": "poolBet",
              "type": "uint256"
            },
            {
              "internalType": "address[]",
              "name": "participants",
              "type": "address[]"
            },
            {
              "internalType": "uint256",
              "name": "startingRoll",
              "type": "uint256"
            },
            {
              "internalType": "uint256",
              "name": "maxParticipants",
              "type": "uint256"
            }
          ],
          "internalType": "struct ConfettiRoll.Game",
          "name": "",
          "type": "tuple"
        }
      ],
      "stateMutability": "view",
      "type": "function"
    },
    {
      "inputs": [
        {
          "internalType": "bytes32",
          "name": "gameId",
          "type": "bytes32"
        }
      ],
      "name": "getGameResults",
      "outputs": [
        {
          "components": [
            {
              "internalType": "address[]",
              "name": "players",
              "type": "address[]"
            },
            {
              "internalType": "uint256[]",
              "name": "rolls",
              "type": "uint256[]"
            },
            {
              "internalType": "uint256",
              "name": "prizeShare",
              "type": "uint256"
            }
          ],
          "internalType": "struct ConfettiRoll.GameResult",
          "name": "",
          "type": "tuple"
        }
      ],
      "stateMutability": "view",
      "type": "function"
    },
    {
      "inputs": [
        {
          "internalType": "bytes32",
          "name": "gameId",
          "type": "bytes32"
        }
      ],
      "name": "isGameFinished",
      "outputs": [
        {
          "internalType": "bool",
          "name": "",
          "type": "bool"
        }
      ],
      "stateMutability": "view",
      "type": "function"
    },
    {
      "inputs": [
        {
          "components": [
            {
              "internalType": "address[]",
              "name": "players",
              "type": "address[]"
            },
            {
              "internalType": "uint256[]",
              "name": "rolls",
              "type": "uint256[]"
            },
            {
              "internalType": "uint256",
              "name": "prizeShare",
              "type": "uint256"
            }
          ],
          "internalType": "struct ConfettiRoll.GameResult",
          "name": "result",
          "type": "tuple"
        }
      ],
      "name": "getLoser",
      "outputs": [
        {
          "internalType": "address",
          "name": "",
          "type": "address"
        }
      ],
      "stateMutability": "pure",
      "type": "function"
    },
    {
      "inputs": [
        {
          "internalType": "address",
          "name": "player",
          "type": "address"
        }
      ],
      "name": "getPendingGames",
      "outputs": [
        {
          "internalType": "bytes32[]",
          "name": "",
          "type": "bytes32[]"
        }
      ],
      "stateMutability": "view",
      "type": "function"
    },
    {
      "inputs": [
        {
          "internalType": "address",
          "name": "player",
          "type": "address"
        },
        {
          "internalType": "bytes32",
          "name": "gameId",
          "type": "bytes32"
        }
      ],
      "name": "canCollectReward",
      "outputs": [
        {
          "internalType": "bool",
          "name": "",
          "type": "bool"
        }
      ],
      "stateMutability": "view",
      "type": "function"
    },
    {
      "inputs": [
        {
          "internalType": "address",
          "name": "player",
          "type": "address"
        }
      ],
      "name": "getPendingRewards",
      "outputs": [
        {
          "internalType": "uint256",
          "name": "",
          "type": "uint256"
        }
      ],
      "stateMutability": "view",
      "type": "function"
    },
    {
      "inputs": [],
      "name": "withdrawRewards",
      "outputs": [
        {
          "internalType": "uint256",
          "name": "",
          "type": "uint256"
        }
      ],
      "stateMutability": "nonpayable",
      "type": "function"
    },
    {
      "inputs": [
        {
          "internalType": "address",
          "name": "initializer",
          "type": "address"
        },
        {
          "internalType": "uint256",
          "name": "roundNum",
          "type": "uint256"
        }
      ],
      "name": "calcGameId",
      "outputs": [
        {
          "internalType": "bytes32",
          "name": "",
          "type": "bytes32"
        }
      ],
      "stateMutability": "pure",
      "type": "function"
    },
    {
      "inputs": [],
      "name": "currentGlobalGameId",
      "outputs": [
        {
          "internalType": "bytes32",
          "name": "",
          "type": "bytes32"
        }
      ],
      "stateMutability": "view",
      "type": "function"
    },
    {
      "inputs": [
        {
          "internalType": "address",
          "name": "initializer",
          "type": "address"
        },
        {
          "internalType": "uint256",
          "name": "poolBet",
          "type": "uint256"
        },
        {
          "internalType": "uint256",
          "name": "startingRoll",
          "type": "uint256"
        },
        {
          "internalType": "uint256",
          "name": "maxParticipants",
          "type": "uint256"
        },
        {
          "internalType": "uint256",
          "name": "roundNum",
          "type": "uint256"
        }
      ],
      "name": "createGame",
      "outputs": [
        {
          "internalType": "bytes32",
          "name": "",
          "type": "bytes32"
        }
      ],
      "stateMutability": "nonpayable",
      "type": "function"
    },
    {
      "inputs": [
        {
          "internalType": "bytes32",
          "name": "gameId",
          "type": "bytes32"
        }
      ],
      "name": "joinGame",
      "outputs": [],
      "stateMutability": "nonpayable",
      "type": "function"
    },
    {
      "inputs": [],
      "name": "joinGlobalGame",
      "outputs": [
        {
          "internalType": "bytes32",
          "name": "",
          "type": "bytes32"
        }
      ],
      "stateMutability": "nonpayable",
      "type": "function"
    },
    {
      "inputs": [
        {
          "internalType": "address[]",
          "name": "players",
          "type": "address[]"
        },
        {
          "internalType": "uint256",
          "name": "seed",
          "type": "uint256"
        }
      ],
      "name": "shuffledPlayers",
      "outputs": [
        {
          "internalType": "address[]",
          "name": "",
          "type": "address[]"
        }
      ],
      "stateMutability": "pure",
      "type": "function"
    },
    {
      "inputs": [
        {
          "internalType": "bytes32",
          "name": "gameId",
          "type": "bytes32"
        }
      ],
      "name": "commenceGame",
      "outputs": [],
      "stateMutability": "nonpayable",
      "type": "function"
    },
    {
      "inputs": [],
      "name": "pause",
      "outputs": [],
      "stateMutability": "nonpayable",
      "type": "function"
    },
    {
      "inputs": [],
      "name": "unpause",
      "outputs": [],
      "stateMutability": "nonpayable",
      "type": "function"
    }
  ],
  "bytecode": "0x60e06040526101f4600555601960065567016345785d8a0000600755680821ab0d441498000060085567d02ab486cedc00006009556001600a556103e8600b556064600c556064600d553480156200005657600080fd5b5060405162003c8438038062003c848339810160408190526200007991620002b4565b6200008433620000e4565b6002805460ff60a01b19169055620000bd7fe1dcbdb91df27212a29bc27177c840cf2f819ecf2187432e1fac86c2dd5dfca98262000136565b6001600160a01b0391821660a052811660c052166080526000600381905560045562000308565b600280546001600160a01b038381166001600160a01b0319831681179093556040519116919082907f8be0079c531659141344cd1fd0a4f28419497f9722a3daafe3b4186f6b6457e090600090a35050565b6200014d82826200017960201b620026541760201c565b6000828152600160209081526040909120620001749183906200266262000189821b17901c565b505050565b620001858282620001a9565b5050565b6000620001a0836001600160a01b03841662000249565b90505b92915050565b6000828152602081815260408083206001600160a01b038516845290915290205460ff1662000185576000828152602081815260408083206001600160a01b03851684529091529020805460ff19166001179055620002053390565b6001600160a01b0316816001600160a01b0316837f2f8788117e7eff1d82e926ec794901d17c78024a50270940304540a733656f0d60405160405180910390a45050565b60008181526001830160205260408120546200029257508154600181810184556000848152602080822090930184905584548482528286019093526040902091909155620001a3565b506000620001a3565b6001600160a01b0381168114620002b157600080fd5b50565b600080600060608486031215620002ca57600080fd5b8351620002d7816200029b565b6020850151909350620002ea816200029b565b6040850151909250620002fd816200029b565b809150509250925092565b60805160a05160c0516139066200037e6000396000818161049301526123110152600081816104ba0152818161138e01528181611bc8015281816123d3015261247001526000818161069501528181610c8201528181611e05015281816120480152818161219301526122e401526139066000f3fe608060405234801561001057600080fd5b50600436106103575760003560e01c80637aa8977f116101c85780639f20829d11610104578063d11a57ec116100a2578063dfa20f0a1161007c578063dfa20f0a14610774578063e0d4ea371461077c578063f2fde38b1461078f578063f6ed2017146107a257600080fd5b8063d11a57ec14610732578063d547741f14610759578063d98011461461076c57600080fd5b8063bf474766116100de578063bf474766146106fb578063c7b8981c1461070e578063ca15c87314610716578063cc32d1761461072957600080fd5b80639f20829d146106c0578063a217fddf146106e0578063b5ed7f7c146106e857600080fd5b80639010d07c1161017157806397bebf9d1161014b57806397bebf9d1461067457806399b7e5d71461067d5780639e609005146106905780639e9ed821146106b757600080fd5b80639010d07c1461062157806391d14854146106345780639619367d1461066b57600080fd5b80638a19c8bc116101a25780638a19c8bc146106005780638da5cb5b146106085780638f4689881461061957600080fd5b80637aa8977f146105c557806382f4aeb1146105e55780638456cb59146105f857600080fd5b80635264f33a116102975780636d6b0eb311610240578063715018a61161021a578063715018a61461053557806373931bbf1461053d5780637559b8811461055d57806377e741c7146105b257600080fd5b80636d6b0eb3146104ef5780636e8539251461050f5780636ea69b221461052257600080fd5b806361d027b31161027157806361d027b31461048e578063684931ed146104b557806368f46b62146104dc57600080fd5b80635264f33a146104485780635c975abb14610473578063608ac8d51461048557600080fd5b80632e5b21681161030457806336568abe116102de57806336568abe1461041b578063368acb091461042e5780633f4ba83a1461043757806342dc6b8b1461043f57600080fd5b80632e5b2168146103f45780632f2ff15d146103fd578063345d9a8d1461041257600080fd5b8063248a9ca311610335578063248a9ca3146103a457806328119fb8146103c75780632ad9bf95146103ec57600080fd5b806301b654961461035c57806301ffc9a714610378578063230669e51461039b575b600080fd5b610365600b5481565b6040519081526020015b60405180910390f35b61038b61038636600461318c565b6107b5565b604051901515815260200161036f565b610365600a5481565b6103656103b23660046131b6565b60009081526020819052604090206001015490565b61038b6103d53660046131b6565b6000908152600e6020526040902060010154151590565b6103656107f9565b61036560085481565b61041061040b3660046131e6565b61080c565b005b610365600c5481565b6104106104293660046131e6565b610833565b61036560045481565b610410610855565b61036560065481565b61045b610456366004613318565b6108be565b6040516001600160a01b03909116815260200161036f565b600254600160a01b900460ff1661038b565b61036560035481565b61045b7f000000000000000000000000000000000000000000000000000000000000000081565b61045b7f000000000000000000000000000000000000000000000000000000000000000081565b61038b6104ea36600461340b565b610921565b6105026104fd3660046131b6565b610a38565b60405161036f9190613479565b61041061051d3660046131b6565b610b38565b6104106105303660046134ee565b610fbc565b610410611024565b61055061054b3660046131b6565b611088565b60405161036f919061351a565b61036561056b36600461340b565b6040516bffffffffffffffffffffffff19606084901b1660208201526034810182905260009060540160405160208183030381529060405280519060200120905092915050565b6104106105c03660046131b6565b61115a565b6105d86105d336600461356a565b6111dd565b60405161036f9190613585565b6104106105f33660046131b6565b6112c9565b610410611328565b61036561138a565b6002546001600160a01b031661045b565b61036561140e565b61045b61062f3660046135c9565b6114a2565b61038b6106423660046131e6565b6000918252602082815260408084206001600160a01b0393909316845291905290205460ff1690565b61036560075481565b61036560095481565b61041061068b3660046134ee565b6114ba565b61045b7f000000000000000000000000000000000000000000000000000000000000000081565b610365600d5481565b6106d36106ce3660046135eb565b611522565b60405161036f9190613630565b610365600081565b6103656106f6366004613671565b61166a565b6104106107093660046131b6565b611a0e565b610365611f05565b6103656107243660046131b6565b6120c4565b61036560055481565b6103657fe1dcbdb91df27212a29bc27177c840cf2f819ecf2187432e1fac86c2dd5dfca981565b6104106107673660046131e6565b6120db565b6104106120e5565b61041061224c565b61036561078a3660046131b6565b612397565b61041061079d36600461356a565b6124e3565b6103656107b036600461356a565b6125c2565b60006001600160e01b031982167f5a05180f0000000000000000000000000000000000000000000000000000000014806107f357506107f382612677565b92915050565b60006108073061056b61138a565b905090565b61081682826126de565b600082815260016020526040902061082e9082612662565b505050565b61083d8282612704565b600082815260016020526040902061082e908261278c565b6002546001600160a01b031633146108b45760405162461bcd60e51b815260206004820181905260248201527f4f776e61626c653a2063616c6c6572206973206e6f7420746865206f776e657260448201526064015b60405180910390fd5b6108bc6127a1565b565b60008160200151516000036108d557506000919050565b600082600001515160018460200151516108ef91906136c9565b6108f991906136f6565b9050826000015181815181106109115761091161370a565b6020026020010151915050919050565b6000818152600e602052604081206001015415158015610a3157506000828152600e602090815260409182902082518154608093810282018401909452606081018481526001600160a01b03881694610a259492939284929184918401828280156109b557602002820191906000526020600020905b81546001600160a01b03168152600190910190602001808311610997575b5050505050815260200160018201805480602002602001604051908101604052809291908181526020018280548015610a0d57602002820191906000526020600020905b8154815260200190600101908083116109f9575b505050505081526020016002820154815250506108be565b6001600160a01b031614155b9392505050565b610a5c60405180606001604052806060815260200160608152602001600081525090565b6000828152600e602090815260409182902082518154608093810282018401909452606081018481529093919284928491840182828015610ac657602002820191906000526020600020905b81546001600160a01b03168152600190910190602001808311610aa8575b5050505050815260200160018201805480602002602001604051908101604052809291908181526020018280548015610b1e57602002820191906000526020600020905b815481526020019060010190808311610b0a575b505050505081526020016002820154815250509050919050565b600254600160a01b900460ff1615610b855760405162461bcd60e51b815260206004820152601060248201526f14185d5cd8589b194e881c185d5cd95960821b60448201526064016108ab565b6000818152600f60209081526040808320815160a08101835281548152600182015481850152600282018054845181870281018701865281815292959394860193830182828015610bff57602002820191906000526020600020905b81546001600160a01b03168152600190910190602001808311610be1575b50505050508152602001600382015481526020016004820154815250509050600081604001515111610c735760405162461bcd60e51b815260206004820152601660248201527f4e6f20706c617965727320696e207468652067616d650000000000000000000060448201526064016108ab565b806040015151600103610d9d577f00000000000000000000000000000000000000000000000000000000000000006001600160a01b031663a9059cbb8260400151600081518110610cc657610cc661370a565b602002602001015183602001516040518363ffffffff1660e01b8152600401610d049291906001600160a01b03929092168252602082015260400190565b6020604051808303816000875af1158015610d23573d6000803e3d6000fd5b505050506040513d601f19601f82011682018060405250810190610d479190613720565b5061082e82601060008460400151600081518110610d6757610d6761370a565b60200260200101516001600160a01b03166001600160a01b0316815260200190815260200160002061284790919063ffffffff16565b6000610da883612853565b6000848152600e6020526040902060010154909150610e095760405162461bcd60e51b815260206004820152601e60248201527f47616d65206e6f742066696e69736865642061667465722073696d756c2e000060448201526064016108ab565b6040805182546080602082028301810190935260608201818152600093610ed8939286928492909184918401828280156109b5576020028201919060005260206000209081546001600160a01b03168152600190910190602001808311610997575050505050815260200160018201805480602002602001604051908101604052809291908181526020018280548015610a0d57602002820191906000526020600020908154815260200190600101908083116109f957505050505081526020016002820154815250506108be565b9050806001600160a01b0316847fd5a82ebfa8edb5cbec605a5fe6ef6469bb00d282b0d42748e6434ced9617b5b060405160405180910390a360006127106006548560200151610f289190613742565b610f329190613761565b90506000818560200151610f4691906136c9565b9050600061271060055483610f5b9190613742565b610f659190613761565b90508060046000828254610f799190613775565b90915550508454610f8c906001906136c9565b610f9682846136c9565b610fa09190613761565b610faa9083613775565b85600201819055505050505050505b50565b6002546001600160a01b031633146110165760405162461bcd60e51b815260206004820181905260248201527f4f776e61626c653a2063616c6c6572206973206e6f7420746865206f776e657260448201526064016108ab565b600a92909255600b55600c55565b6002546001600160a01b0316331461107e5760405162461bcd60e51b815260206004820181905260248201527f4f776e61626c653a2063616c6c6572206973206e6f7420746865206f776e657260448201526064016108ab565b6108bc6000612ad6565b6110ba6040518060a0016040528060008152602001600081526020016060815260200160008152602001600081525090565b6000828152600f6020908152604091829020825160a081018452815481526001820154818401526002820180548551818602810186018752818152929593949386019383018282801561113657602002820191906000526020600020905b81546001600160a01b03168152600190910190602001808311611118575b50505050508152602001600382015481526020016004820154815250509050919050565b7fe1dcbdb91df27212a29bc27177c840cf2f819ecf2187432e1fac86c2dd5dfca96111858133612b35565b6105dc8211156111d75760405162461bcd60e51b815260206004820181905260248201527f4c6574207468652067616d626c6572732067616d626c6520696e20706561636560448201526064016108ab565b50600555565b6001600160a01b03811660009081526010602052604081206060919061120290612bb3565b67ffffffffffffffff81111561121a5761121a613212565b604051908082528060200260200182016040528015611243578160200160208202803683370190505b50905060005b6001600160a01b038416600090815260106020526040902061126a90612bb3565b8110156112c2576001600160a01b03841660009081526010602052604090206112939082612bbd565b8282815181106112a5576112a561370a565b6020908102919091010152806112ba8161378d565b915050611249565b5092915050565b6002546001600160a01b031633146113235760405162461bcd60e51b815260206004820181905260248201527f4f776e61626c653a2063616c6c6572206973206e6f7420746865206f776e657260448201526064016108ab565b600655565b6002546001600160a01b031633146113825760405162461bcd60e51b815260206004820181905260248201527f4f776e61626c653a2063616c6c6572206973206e6f7420746865206f776e657260448201526064016108ab565b6108bc612bc9565b60007f00000000000000000000000000000000000000000000000000000000000000006001600160a01b0316633b1fee6c6040518163ffffffff1660e01b8152600401602060405180830381865afa1580156113ea573d6000803e3d6000fd5b505050506040513d601f19601f8201168201806040525081019061080791906137a6565b600254600090600160a01b900460ff161561145e5760405162461bcd60e51b815260206004820152601060248201526f14185d5cd8589b194e881c185d5cd95960821b60448201526064016108ab565b60006114686107f9565b6000818152600f6020526040812060030154919250036114995761149730600954600c54600d546106f661138a565b505b61080781611a0e565b6000828152600160205260408120610a319083612bbd565b6002546001600160a01b031633146115145760405162461bcd60e51b815260206004820181905260248201527f4f776e61626c653a2063616c6c6572206973206e6f7420746865206f776e657260448201526064016108ab565b600792909255600855600955565b606082600080805b865181101561165f5780875161154091906136c9565b8782815181106115525761155261370a565b60200260200101518760405160200161158992919060609290921b6bffffffffffffffffffffffff19168252601482015260340190565b6040516020818303038152906040528051906020012060001c6115ac91906136f6565b91508381815181106115c0576115c061370a565b602002602001015192508382826115d79190613775565b815181106115e7576115e761370a565b60200260200101518482815181106116015761160161370a565b6001600160a01b039092166020928302919091019091015282846116258484613775565b815181106116355761163561370a565b6001600160a01b0390921660209283029190910190910152806116578161378d565b91505061152a565b509195945050505050565b600254600090600160a01b900460ff16156116ba5760405162461bcd60e51b815260206004820152601060248201526f14185d5cd8589b194e881c185d5cd95960821b60448201526064016108ab565b836000036116c857600c5493505b846000036116d65760095494505b60028310156116e557600d5492505b60006116f083612397565b905080156117405760405162461bcd60e51b815260206004820152601360248201527f47616d6520616c7265616479207365656465640000000000000000000000000060448201526064016108ab565b61174861138a565b8310156117bd5760405162461bcd60e51b815260206004820152602260248201527f43616e2774206372656174652067616d657320666f72207061737420726f756e60448201527f647300000000000000000000000000000000000000000000000000000000000060648201526084016108ab565b60075486101580156117d157506008548611155b61181d5760405162461bcd60e51b815260206004820152601760248201527f426574206f757473696465206c6567616c2072616e676500000000000000000060448201526064016108ab565b600a5485101580156118315750600b548511155b61187d5760405162461bcd60e51b815260206004820152601e60248201527f537461727420726f6c6c206f757473696465206c6567616c2072616e6765000060448201526064016108ab565b6001600160a01b0387163314806118b557506001600160a01b038716301480156118a8575060095486145b80156118b55750600c5485145b6118be57600080fd5b604080516bffffffffffffffffffffffff1960608a901b16602080830191909152603480830187905283518084039091018152605490920183528151918101919091206000818152600e909252919020600101541561195f5760405162461bcd60e51b815260206004820152601560248201527f47616d6520616c72656164792066696e6973686564000000000000000000000060448201526064016108ab565b6040805160a08101825285815260208082018a8152835160008082528184018652848601918252606085018c9052608085018b9052868152600f8452949094208351815590516001820155925180519293926119c19260028501920190613105565b506060820151600382015560809091015160049091015560405181907f7195cf6f05afbbfa979e2346d841dcb24356d5956eec907794f47ff7acaf701290600090a2979650505050505050565b600254600160a01b900460ff1615611a5b5760405162461bcd60e51b815260206004820152601060248201526f14185d5cd8589b194e881c185d5cd95960821b60448201526064016108ab565b6000818152600f60209081526040808320815160a08101835281548152600182015481850152600282018054845181870281018701865281815292959394860193830182828015611ad557602002820191906000526020600020905b81546001600160a01b03168152600190910190602001808311611ab7575b50505050508152602001600382015481526020016004820154815250509050611b0f826000908152600e6020526040902060010154151590565b15611b5c5760405162461bcd60e51b815260206004820152601560248201527f47616d6520616c72656164792066696e6973686564000000000000000000000060448201526064016108ab565b6000611b6b8260000151612397565b90508015611bbb5760405162461bcd60e51b815260206004820152601360248201527f47616d6520616c7265616479207365656465640000000000000000000000000060448201526064016108ab565b611bc642603c613775565b7f00000000000000000000000000000000000000000000000000000000000000006001600160a01b0316633c099fce6040518163ffffffff1660e01b8152600401602060405180830381865afa158015611c24573d6000803e3d6000fd5b505050506040513d601f19601f82011682018060405250810190611c4891906137a6565b11611c955760405162461bcd60e51b815260206004820181905260248201527f5365656420696d6d696e656e743b207369676e2d757020697320636c6f73656460448201526064016108ab565b336000908152601060205260409020611cae9084612c51565b15611cfb5760405162461bcd60e51b815260206004820152600e60248201527f416c7265616479206a6f696e656400000000000000000000000000000000000060448201526064016108ab565b60808201516000848152600f6020526040902060020154101580611d3e5750600654611d2990612710613761565b6000848152600f602052604090206002015411155b611d8a5760405162461bcd60e51b815260206004820152601060248201527f546f6f206d616e7920706c61796572730000000000000000000000000000000060448201526064016108ab565b60006127106006548460200151611da19190613742565b611dab9190613761565b90508060036000828254611dbf9190613775565b909155505060208301516040517f23b872dd00000000000000000000000000000000000000000000000000000000815233600482015230602482015260448101919091527f00000000000000000000000000000000000000000000000000000000000000006001600160a01b0316906323b872dd906064016020604051808303816000875af1158015611e56573d6000803e3d6000fd5b505050506040513d601f19601f82011682018060405250810190611e7a9190613720565b506000848152600f60209081526040808320600201805460018101825590845282842001805473ffffffffffffffffffffffffffffffffffffffff191633908117909155835260109091529020611ed19085612c69565b50604051339085907fdd5a0e5e0c7946c099f2ed766c0b633dd2eb1e1e10743bab89f871e8038b080b90600090a350505050565b600254600090600160a01b900460ff1615611f555760405162461bcd60e51b815260206004820152601060248201526f14185d5cd8589b194e881c185d5cd95960821b60448201526064016108ab565b336000805b6001600160a01b0383166000908152601060205260409020611f7b90612bb3565b81101561202b576001600160a01b0383166000908152601060205260408120611fa49083612bbd565b9050611fb08482610921565b15611fd4576000818152600e6020526040902060020154611fd19084613775565b92505b6000818152600e602052604090206001015415612017576001600160a01b038416600090815260106020526040902061200d9082612847565b5060009150612025565b816120218161378d565b9250505b50611f5a565b5060405163a9059cbb60e01b8152336004820152602481018290527f00000000000000000000000000000000000000000000000000000000000000006001600160a01b03169063a9059cbb906044016020604051808303816000875af1158015612099573d6000803e3d6000fd5b505050506040513d601f19601f820116820180604052508101906120bd9190613720565b5091505090565b60008181526001602052604081206107f390612bb3565b61083d8282612c75565b6002546001600160a01b0316331461213f5760405162461bcd60e51b815260206004820181905260248201527f4f776e61626c653a2063616c6c6572206973206e6f7420746865206f776e657260448201526064016108ab565b6000600354116121915760405162461bcd60e51b815260206004820152601360248201527f4e6f7468696e6720746f2077697468647261770000000000000000000000000060448201526064016108ab565b7f00000000000000000000000000000000000000000000000000000000000000006001600160a01b031663a9059cbb6121d26002546001600160a01b031690565b6003546040516001600160e01b031960e085901b1681526001600160a01b03909216600483015260248201526044016020604051808303816000875af1158015612220573d6000803e3d6000fd5b505050506040513d601f19601f820116820180604052508101906122449190613720565b506000600355565b7fe1dcbdb91df27212a29bc27177c840cf2f819ecf2187432e1fac86c2dd5dfca96122778133612b35565b6000600454116122c95760405162461bcd60e51b815260206004820152601360248201527f4e6f7468696e6720746f2077697468647261770000000000000000000000000060448201526064016108ab565b6004805460405163a9059cbb60e01b81526001600160a01b037f0000000000000000000000000000000000000000000000000000000000000000169263a9059cbb9261234b927f000000000000000000000000000000000000000000000000000000000000000092016001600160a01b03929092168252602082015260400190565b6020604051808303816000875af115801561236a573d6000803e3d6000fd5b505050506040513d601f19601f8201168201806040525081019061238e9190613720565b50506000600455565b6040517f591c0e1c0000000000000000000000000000000000000000000000000000000081526004810182905260009081906001600160a01b037f0000000000000000000000000000000000000000000000000000000000000000169063591c0e1c90602401602060405180830381865afa15801561241a573d6000803e3d6000fd5b505050506040513d601f19601f8201168201806040525081019061243e91906137a6565b6040517f05b19402000000000000000000000000000000000000000000000000000000008152600481018290529091507f00000000000000000000000000000000000000000000000000000000000000006001600160a01b0316906305b1940290602401602060405180830381865afa1580156124bf573d6000803e3d6000fd5b505050506040513d601f19601f82011682018060405250810190610a3191906137a6565b6002546001600160a01b0316331461253d5760405162461bcd60e51b815260206004820181905260248201527f4f776e61626c653a2063616c6c6572206973206e6f7420746865206f776e657260448201526064016108ab565b6001600160a01b0381166125b95760405162461bcd60e51b815260206004820152602660248201527f4f776e61626c653a206e6577206f776e657220697320746865207a65726f206160448201527f646472657373000000000000000000000000000000000000000000000000000060648201526084016108ab565b610fb981612ad6565b600080805b6001600160a01b03841660009081526010602052604090206125e890612bb3565b8110156112c2576001600160a01b03841660009081526010602052604081206126119083612bbd565b905061261d8582610921565b15612641576000818152600e602052604090206002015461263e9084613775565b92505b508061264c8161378d565b9150506125c7565b61265e8282612c9b565b5050565b6000610a31836001600160a01b038416612d39565b60006001600160e01b031982167f7965db0b0000000000000000000000000000000000000000000000000000000014806107f357507f01ffc9a7000000000000000000000000000000000000000000000000000000006001600160e01b03198316146107f3565b6000828152602081905260409020600101546126fa8133612b35565b61082e8383612c9b565b6001600160a01b03811633146127825760405162461bcd60e51b815260206004820152602f60248201527f416363657373436f6e74726f6c3a2063616e206f6e6c792072656e6f756e636560448201527f20726f6c657320666f722073656c66000000000000000000000000000000000060648201526084016108ab565b61265e8282612d88565b6000610a31836001600160a01b038416612e07565b600254600160a01b900460ff166127fa5760405162461bcd60e51b815260206004820152601460248201527f5061757361626c653a206e6f742070617573656400000000000000000000000060448201526064016108ab565b6002805460ff60a01b191690557f5db9ee0a495bf2e6ff9c91a7834c1ba4fdd244a5e8aa4e537bd38aeae4b073aa335b6040516001600160a01b03909116815260200160405180910390a1565b6000610a318383612e07565b600254600090600160a01b900460ff16156128a35760405162461bcd60e51b815260206004820152601060248201526f14185d5cd8589b194e881c185d5cd95960821b60448201526064016108ab565b6000828152600e6020526040902060010154156129025760405162461bcd60e51b815260206004820152601560248201527f47616d6520616c72656164792066696e6973686564000000000000000000000060448201526064016108ab565b6000828152600f60209081526040808320815160a0810183528154815260018201548185015260028201805484518187028101870186528181529295939486019383018282801561297c57602002820191906000526020600020905b81546001600160a01b0316815260019091019060200180831161295e575b5050505050815260200160038201548152602001600482015481525050905060006129aa8260000151612397565b9050600081116129fc5760405162461bcd60e51b815260206004820152601360248201527f47616d65206e6f7420736565646564207965740000000000000000000000000060448201526064016108ab565b6000612a0c836040015183611522565b6000868152600e602090815260409091208251929350612a30929091840190613105565b506000858152600e6020526040902060608401516001909101905b8015612abb5781546040518291612a6f918790602001918252602082015260400190565b6040516020818303038152906040528051906020012060001c81612a9557612a956136e0565b835460018181018655600086815260209020939092069182019201919091559050612a4b565b5050506000848152600e60205260409020925050505b919050565b600280546001600160a01b0383811673ffffffffffffffffffffffffffffffffffffffff19831681179093556040519116919082907f8be0079c531659141344cd1fd0a4f28419497f9722a3daafe3b4186f6b6457e090600090a35050565b6000828152602081815260408083206001600160a01b038516845290915290205460ff1661265e57612b71816001600160a01b03166014612efa565b612b7c836020612efa565b604051602001612b8d9291906137ef565b60408051601f198184030181529082905262461bcd60e51b82526108ab91600401613870565b60006107f3825490565b6000610a3183836130db565b600254600160a01b900460ff1615612c165760405162461bcd60e51b815260206004820152601060248201526f14185d5cd8589b194e881c185d5cd95960821b60448201526064016108ab565b6002805460ff60a01b1916600160a01b1790557f62e78cea01bee320cd4e420270b5ea74000d11b0c9f74754ebdbfc544b05a25861282a3390565b60008181526001830160205260408120541515610a31565b6000610a318383612d39565b600082815260208190526040902060010154612c918133612b35565b61082e8383612d88565b6000828152602081815260408083206001600160a01b038516845290915290205460ff1661265e576000828152602081815260408083206001600160a01b03851684529091529020805460ff19166001179055612cf53390565b6001600160a01b0316816001600160a01b0316837f2f8788117e7eff1d82e926ec794901d17c78024a50270940304540a733656f0d60405160405180910390a45050565b6000818152600183016020526040812054612d80575081546001818101845560008481526020808220909301849055845484825282860190935260409020919091556107f3565b5060006107f3565b6000828152602081815260408083206001600160a01b038516845290915290205460ff161561265e576000828152602081815260408083206001600160a01b0385168085529252808320805460ff1916905551339285917ff6391f5c32d9c69d2a47ea670b442974b53935d1edc7fd64eb21e047a839171b9190a45050565b60008181526001830160205260408120548015612ef0576000612e2b6001836136c9565b8554909150600090612e3f906001906136c9565b9050818114612ea4576000866000018281548110612e5f57612e5f61370a565b9060005260206000200154905080876000018481548110612e8257612e8261370a565b6000918252602080832090910192909255918252600188019052604090208390555b8554869080612eb557612eb56138a3565b6001900381819060005260206000200160009055905585600101600086815260200190815260200160002060009055600193505050506107f3565b60009150506107f3565b60606000612f09836002613742565b612f14906002613775565b67ffffffffffffffff811115612f2c57612f2c613212565b6040519080825280601f01601f191660200182016040528015612f56576020820181803683370190505b5090507f300000000000000000000000000000000000000000000000000000000000000081600081518110612f8d57612f8d61370a565b60200101906001600160f81b031916908160001a9053507f780000000000000000000000000000000000000000000000000000000000000081600181518110612fd857612fd861370a565b60200101906001600160f81b031916908160001a9053506000612ffc846002613742565b613007906001613775565b90505b600181111561308c577f303132333435363738396162636465660000000000000000000000000000000085600f16601081106130485761304861370a565b1a60f81b82828151811061305e5761305e61370a565b60200101906001600160f81b031916908160001a90535060049490941c93613085816138b9565b905061300a565b508315610a315760405162461bcd60e51b815260206004820181905260248201527f537472696e67733a20686578206c656e67746820696e73756666696369656e7460448201526064016108ab565b60008260000182815481106130f2576130f261370a565b9060005260206000200154905092915050565b828054828255906000526020600020908101928215613167579160200282015b82811115613167578251825473ffffffffffffffffffffffffffffffffffffffff19166001600160a01b03909116178255602090920191600190910190613125565b50613173929150613177565b5090565b5b808211156131735760008155600101613178565b60006020828403121561319e57600080fd5b81356001600160e01b031981168114610a3157600080fd5b6000602082840312156131c857600080fd5b5035919050565b80356001600160a01b0381168114612ad157600080fd5b600080604083850312156131f957600080fd5b82359150613209602084016131cf565b90509250929050565b634e487b7160e01b600052604160045260246000fd5b6040516060810167ffffffffffffffff8111828210171561324b5761324b613212565b60405290565b604051601f8201601f1916810167ffffffffffffffff8111828210171561327a5761327a613212565b604052919050565b600067ffffffffffffffff82111561329c5761329c613212565b5060051b60200190565b600082601f8301126132b757600080fd5b813560206132cc6132c783613282565b613251565b82815260059290921b840181019181810190868411156132eb57600080fd5b8286015b8481101561330d57613300816131cf565b83529183019183016132ef565b509695505050505050565b6000602080838503121561332b57600080fd5b823567ffffffffffffffff8082111561334357600080fd5b908401906060828703121561335757600080fd5b61335f613228565b82358281111561336e57600080fd5b61337a888286016132a6565b825250838301358281111561338e57600080fd5b83019150601f820187136133a157600080fd5b81356133af6132c782613282565b81815260059190911b830185019085810190898311156133ce57600080fd5b938601935b828510156133ec578435825293860193908601906133d3565b8087850152505050604083013560408201528094505050505092915050565b6000806040838503121561341e57600080fd5b613427836131cf565b946020939093013593505050565b600081518084526020808501945080840160005b8381101561346e5781516001600160a01b031687529582019590820190600101613449565b509495945050505050565b6000602080835283516060828501526134956080850182613435565b85830151858203601f19016040870152805180835290840192506000918401905b808310156134d657835182529284019260019290920191908401906134b6565b50604087015160608701528094505050505092915050565b60008060006060848603121561350357600080fd5b505081359360208301359350604090920135919050565b6020815281516020820152602082015160408201526000604083015160a0606084015261354a60c0840182613435565b905060608401516080840152608084015160a08401528091505092915050565b60006020828403121561357c57600080fd5b610a31826131cf565b6020808252825182820181905260009190848201906040850190845b818110156135bd578351835292840192918401916001016135a1565b50909695505050505050565b600080604083850312156135dc57600080fd5b50508035926020909101359150565b600080604083850312156135fe57600080fd5b823567ffffffffffffffff81111561361557600080fd5b613621858286016132a6565b95602094909401359450505050565b6020808252825182820181905260009190848201906040850190845b818110156135bd5783516001600160a01b03168352928401929184019160010161364c565b600080600080600060a0868803121561368957600080fd5b613692866131cf565b97602087013597506040870135966060810135965060800135945092505050565b634e487b7160e01b600052601160045260246000fd5b6000828210156136db576136db6136b3565b500390565b634e487b7160e01b600052601260045260246000fd5b600082613705576137056136e0565b500690565b634e487b7160e01b600052603260045260246000fd5b60006020828403121561373257600080fd5b81518015158114610a3157600080fd5b600081600019048311821515161561375c5761375c6136b3565b500290565b600082613770576137706136e0565b500490565b60008219821115613788576137886136b3565b500190565b60006001820161379f5761379f6136b3565b5060010190565b6000602082840312156137b857600080fd5b5051919050565b60005b838110156137da5781810151838201526020016137c2565b838111156137e9576000848401525b50505050565b7f416363657373436f6e74726f6c3a206163636f756e74200000000000000000008152600083516138278160178501602088016137bf565b7f206973206d697373696e6720726f6c652000000000000000000000000000000060179184019182015283516138648160288401602088016137bf565b01602801949350505050565b602081526000825180602084015261388f8160408501602087016137bf565b601f01601f19169190910160400192915050565b634e487b7160e01b600052603160045260246000fd5b6000816138c8576138c86136b3565b50600019019056fea264697066735822122004c9ed38beafce8ebac419babb9a67d64a16177167bff85204faecb8f1996fdd64736f6c634300080d0033",
  "immutableReferences": {
    "1742": [
      {
        "length": 32,
        "start": 1685
      },
      {
        "length": 32,
        "start": 3202
      },
      {
        "length": 32,
        "start": 7685
      },
      {
        "length": 32,
        "start": 8264
      },
      {
        "length": 32,
        "start": 8595
      },
      {
        "length": 32,
        "start": 8932
      }
    ],
    "1745": [
      {
        "length": 32,
        "start": 1210
      },
      {
        "length": 32,
        "start": 5006
      },
      {
        "length": 32,
        "start": 7112
      },
      {
        "length": 32,
        "start": 9171
      },
      {
        "length": 32,
        "start": 9328
      }
    ],
    "1747": [
      {
        "length": 32,
        "start": 1171
      },
      {
        "length": 32,
        "start": 8977
      }
    ]
  },
  "source": "// SPDX-License-Identifier: MIT\npragma solidity ^0.8.0;\n\nimport \"@openzeppelin/contracts/interfaces/IERC20.sol\";\nimport \"@openzeppelin/contracts/access/Ownable.sol\";\nimport \"@openzeppelin/contracts/access/AccessControlEnumerable.sol\";\nimport \"@openzeppelin/contracts/utils/structs/EnumerableSet.sol\";\nimport \"@openzeppelin/contracts/security/Pausable.sol\";\nimport \"./RpSeeder.sol\";\n\n/// @title A Death Roll-inspired game for Raid Party\n/// @author xanewok.eth\n/// @notice The games uses $CFTI, the native Raid Party token\ncontract ConfettiRoll is AccessControlEnumerable, Ownable, Pausable {\n    using EnumerableSet for EnumerableSet.Bytes32Set;\n\n    IERC20 public immutable confetti;\n    RpSeeder public immutable seeder;\n    address public immutable treasury;\n    uint256 public tipAmount;\n    uint256 public treasuryAmount;\n\n    uint256 public treasuryFee = 500; // 5%\n    uint256 public betTip = 25; // 0.25%\n    uint256 constant FEE_PRECISION = 1e4;\n\n    uint256 public minBet = 1e17; // 0.1 $CFTI\n    uint256 public maxBet = 150e18; // 150 $CFTI\n    uint256 public defaultBet = 15e18; // 15 $CFTI\n\n    uint256 public minStartingRoll = 1;\n    uint256 public maxStartingRoll = 1000;\n    uint256 public defaultStartingRoll = 100;\n\n    uint256 public defaultMaxParticipants = 100;\n\n    bytes32 public constant TREASURY_ROLE = keccak256(\"TREASURY_ROLE\");\n\n    struct Game {\n        uint256 roundNum;\n        uint256 poolBet;\n        address[] participants;\n        uint256 startingRoll;\n        uint256 maxParticipants;\n    }\n\n    struct GameResult {\n        address[] players;\n        // The player who rolled last is the loser\n        uint256[] rolls;\n        uint256 prizeShare;\n    }\n\n    event PlayerLost(bytes32 indexed gameId, address indexed player);\n    event GameCreated(bytes32 indexed gameId);\n    event PlayerJoined(bytes32 indexed gameId, address indexed player);\n\n    mapping(bytes32 => GameResult) gameResults;\n    mapping(bytes32 => Game) games;\n\n    mapping(address => EnumerableSet.Bytes32Set) pendingGames;\n\n    constructor(\n        IERC20 confetti_,\n        address seeder_,\n        address treasury_\n    ) {\n        _setupRole(TREASURY_ROLE, treasury_);\n\n        seeder = RpSeeder(seeder_);\n        treasury = treasury_;\n        confetti = confetti_;\n        tipAmount = 0;\n        treasuryAmount = 0;\n    }\n\n    function setTreasuryFee(uint256 treasuryFee_)\n        public\n        onlyRole(TREASURY_ROLE)\n    {\n        require(treasuryFee_ <= 1500, \"Let the gamblers gamble in peace\");\n        treasuryFee = treasuryFee_;\n    }\n\n    function withdrawTax() public onlyRole(TREASURY_ROLE) {\n        require(treasuryAmount > 0, \"Nothing to withdraw\");\n        confetti.transfer(treasury, treasuryAmount);\n        treasuryAmount = 0;\n    }\n\n    function withdrawTip() public onlyOwner {\n        require(tipAmount > 0, \"Nothing to withdraw\");\n        confetti.transfer(owner(), tipAmount);\n        tipAmount = 0;\n    }\n\n    function setBetTip(uint256 betTip_) public onlyOwner {\n        betTip = betTip_;\n    }\n\n    function setBets(\n        uint256 min,\n        uint256 max,\n        uint256 default_\n    ) public onlyOwner {\n        minBet = min;\n        maxBet = max;\n        defaultBet = default_;\n    }\n\n    function setStartingRolls(\n        uint256 min,\n        uint256 max,\n        uint256 default_\n    ) public onlyOwner {\n        minStartingRoll = min;\n        maxStartingRoll = max;\n        defaultStartingRoll = default_;\n    }\n\n    /// @dev We piggyback on the RaidParty batch seeder for our game round abstraction\n    function currentRound() public view returns (uint256) {\n        return seeder.getBatch();\n    }\n\n    /// @notice Return generated random words for a given game round\n    function getSeed(uint256 roundNum) public view returns (uint256) {\n        bytes32 reqId = seeder.getReqByBatch(roundNum);\n        return seeder.getRandomness(reqId);\n    }\n\n    function getGame(bytes32 gameId) public view returns (Game memory) {\n        return games[gameId];\n    }\n\n    function getGameResults(bytes32 gameId)\n        public\n        view\n        returns (GameResult memory)\n    {\n        return gameResults[gameId];\n    }\n\n    function isGameFinished(bytes32 gameId) public view returns (bool) {\n        return gameResults[gameId].rolls.length != 0;\n    }\n\n    /// @notice Given a game result, return an address of a player who lost\n    function getLoser(GameResult memory result) public pure returns (address) {\n        if (result.rolls.length == 0) {\n            return address(0x0);\n        }\n        uint256 loserIdx = (result.rolls.length - 1) % result.players.length;\n        return result.players[loserIdx];\n    }\n\n    /// @notice Returns a list of outstanding games for the player\n    function getPendingGames(address player)\n        public\n        view\n        returns (bytes32[] memory)\n    {\n        bytes32[] memory pendingGames_ = new bytes32[](\n            pendingGames[player].length()\n        );\n        for (uint256 i = 0; i < pendingGames[player].length(); i++) {\n            pendingGames_[i] = pendingGames[player].at(i);\n        }\n        return pendingGames_;\n    }\n\n    /// @notice Returns whether the player is eligible to collect a prize for a given game\n    function canCollectReward(address player, bytes32 gameId)\n        public\n        view\n        returns (bool)\n    {\n        return (isGameFinished(gameId) &&\n            getLoser(gameResults[gameId]) != player);\n    }\n\n    /// @notice Returns a total amount of claimable rewards by the player\n    function getPendingRewards(address player) public view returns (uint256) {\n        uint256 sum = 0;\n        for (uint256 i = 0; i < pendingGames[player].length(); i++) {\n            bytes32 gameId = pendingGames[player].at(i);\n            if (canCollectReward(player, gameId)) {\n                sum += gameResults[gameId].prizeShare;\n            }\n        }\n        return sum;\n    }\n\n    /// @notice Process and clear every outstanding game, collecting the rewards\n    function withdrawRewards() public whenNotPaused returns (uint256) {\n        address player = msg.sender;\n        uint256 rewards = 0;\n\n        for (uint256 i = 0; i < pendingGames[player].length(); ) {\n            bytes32 gameId = pendingGames[player].at(i);\n            if (canCollectReward(player, gameId)) {\n                rewards += gameResults[gameId].prizeShare;\n            }\n            // NOTE: This is the main function that is responsible for clearing\n            // up pending games (e.g. for UI reasons), so make sure to clear up\n            // pending *lost* games as well, even if we didn't collect a prize\n            if (isGameFinished(gameId)) {\n                pendingGames[player].remove(gameId);\n                // Deleting an element might've shifted the order of the elements\n                // and since we're deleting while iterating (a Bad Idea^TM),\n                // simply start iterating from the start to be safe\n                i = 0;\n            } else {\n                i++;\n            }\n        }\n\n        confetti.transfer(msg.sender, rewards);\n        return rewards;\n    }\n\n    /// @notice Calculates the game identifier for a given game initializer and roundNum\n    function calcGameId(address initializer, uint256 roundNum)\n        public\n        pure\n        returns (bytes32)\n    {\n        return keccak256(abi.encodePacked(initializer, roundNum));\n    }\n\n    /// @notice Returns a game identifier for the currently running, global game\n    function currentGlobalGameId() public view returns (bytes32) {\n        return calcGameId(address(this), currentRound());\n    }\n\n    // Anyone can join the game for the current round where either they are the\n    // initializer and they can set a custom bet or they can create a global\n    // game per round with a default bet amount\n    /// @notice Create a new game\n    /// @param initializer needs to be an address of the contract or the sender\n    /// @param poolBet The amount of money that the player enters with. Use 18 decimals, just like for $CFTI\n    /// @param maxParticipants The maximum number of players that can join the game\n    /// @param startingRoll The upper roll that the game begins with\n    /// @param roundNum The round when the game will be played. Must be bigger than the current round\n    function createGame(\n        address initializer,\n        uint256 poolBet,\n        uint256 startingRoll,\n        uint256 maxParticipants,\n        uint256 roundNum\n    ) public whenNotPaused returns (bytes32) {\n        if (startingRoll == 0) {\n            startingRoll = defaultStartingRoll;\n        }\n        if (poolBet == 0) {\n            poolBet = defaultBet;\n        }\n        if (maxParticipants < 2) {\n            maxParticipants = defaultMaxParticipants;\n        }\n        uint256 seed = getSeed(roundNum);\n        require(seed == 0, \"Game already seeded\");\n        require(\n            roundNum >= currentRound(),\n            \"Can't create games for past rounds\"\n        );\n        require(\n            poolBet >= minBet && poolBet <= maxBet,\n            \"Bet outside legal range\"\n        );\n        require(\n            startingRoll >= minStartingRoll && startingRoll <= maxStartingRoll,\n            \"Start roll outside legal range\"\n        );\n        // Allow for creating a custom game with the sender as initializer or\n        // a \"global\" (per round) one that needs to have default values set\n        require(\n            initializer == msg.sender ||\n                (initializer == address(this) &&\n                    poolBet == defaultBet &&\n                    startingRoll == defaultStartingRoll)\n        );\n        bytes32 gameId = calcGameId(initializer, roundNum);\n        require(!isGameFinished(gameId), \"Game already finished\");\n\n        games[gameId] = Game({\n            poolBet: poolBet,\n            roundNum: roundNum,\n            startingRoll: startingRoll,\n            maxParticipants: maxParticipants,\n            participants: new address[](0)\n        });\n\n        emit GameCreated(gameId);\n        return gameId;\n    }\n\n    /// @notice Join the given game. Needs $CFTI approval as the player needs to deposit the pool bet in order to play.\n    function joinGame(bytes32 gameId) public whenNotPaused {\n        Game memory game = games[gameId];\n        require(!isGameFinished(gameId), \"Game already finished\");\n        // Mitigate possible front-running - close the game sign-ups about a minute\n        // before the seeder can request randomness. The RP seeder is pre-configured\n        // to require 3 block confirmations, so 60 seconds makes sense (< 3 * 14s)\n        uint256 seed = getSeed(game.roundNum);\n        require(seed == 0, \"Game already seeded\");\n        require(\n            seeder.getNextAvailableBatch() > (block.timestamp + 60),\n            \"Seed imminent; sign-up is closed\"\n        );\n        require(!pendingGames[msg.sender].contains(gameId), \"Already joined\");\n        require(\n            games[gameId].participants.length >= game.maxParticipants ||\n                games[gameId].participants.length <= (FEE_PRECISION / betTip),\n            \"Too many players\"\n        );\n\n        uint256 tip = (game.poolBet * betTip) / FEE_PRECISION;\n        tipAmount += tip;\n        confetti.transferFrom(msg.sender, address(this), game.poolBet);\n\n        games[gameId].participants.push(msg.sender);\n        pendingGames[msg.sender].add(gameId);\n        emit PlayerJoined(gameId, msg.sender);\n    }\n\n    /// @notice A convenient method to join the currently running global game\n    function joinGlobalGame() public whenNotPaused returns (bytes32) {\n        bytes32 globalGameId = currentGlobalGameId();\n        // Lazily create a global game if there isn't one already\n        if (games[globalGameId].startingRoll == 0) {\n            createGame(\n                address(this),\n                defaultBet,\n                defaultStartingRoll,\n                defaultMaxParticipants,\n                currentRound()\n            );\n        }\n        joinGame(globalGameId);\n        return globalGameId;\n    }\n\n    /// @return Shuffled randomly players from the given ones, using supplied seed\n    function shuffledPlayers(address[] memory players, uint256 seed)\n        public\n        pure\n        returns (address[] memory)\n    {\n        address[] memory shuffled = players;\n\n        address temp;\n        uint256 pick;\n        for (uint256 i = 0; i < players.length; i++) {\n            // Randomly pick a value from i (incl.) till the end of the array\n            // To further increase randomness entropy, add the current player address\n            pick =\n                uint256(keccak256(abi.encodePacked(players[i], seed))) %\n                (players.length - i);\n            temp = shuffled[i];\n            // Save the randomly picked number as the i-th address in the sequence\n            shuffled[i] = shuffled[i + pick];\n            // Return the original value to the pool that we pick from\n            shuffled[i + pick] = temp;\n        }\n\n        return shuffled;\n    }\n\n    /// @dev Given an unitialized yet game, simulate the game and commit the results to the storage\n    function simulateGame(bytes32 gameId)\n        internal\n        whenNotPaused\n        returns (GameResult storage)\n    {\n        require(!isGameFinished(gameId), \"Game already finished\");\n        Game memory game = games[gameId];\n\n        uint256 seed = getSeed(game.roundNum);\n        require(seed > 0, \"Game not seeded yet\");\n        // To remove any bias from the order that players registered with, make\n        // sure to shuffle them before starting the actual game\n        address[] memory players = shuffledPlayers(game.participants, seed);\n        gameResults[gameId].players = players;\n        uint256[] storage rolls = gameResults[gameId].rolls;\n\n        uint256 roll = game.startingRoll;\n        while (roll > 0) {\n            // NOTE: `roll` is always in the [1, game.startingRoll - 1] range\n            // here, as we start if it's positive and we always use modulo,\n            // starting from the `game.startingRoll`\n            unchecked {\n                roll =\n                    uint256(keccak256(abi.encodePacked(rolls.length, seed))) %\n                    roll;\n                rolls.push(roll + 1);\n            }\n        }\n\n        return gameResults[gameId];\n    }\n\n    /// @notice Simulates a given game, assuming it's been seeded since its creation\n    function commenceGame(bytes32 gameId) public whenNotPaused {\n        Game memory game = games[gameId];\n\n        require(game.participants.length > 0, \"No players in the game\");\n        if (game.participants.length == 1) {\n            // Not much of a game if we have a single participant, return the bet\n            confetti.transfer(game.participants[0], game.poolBet);\n            pendingGames[game.participants[0]].remove(gameId);\n            return;\n        }\n\n        GameResult storage results = simulateGame(gameId);\n        require(isGameFinished(gameId), \"Game not finished after simul.\");\n\n        address loser = getLoser(results);\n        emit PlayerLost(gameId, loser);\n\n        // Tax the prize money for the treasury\n        uint256 collectedBetTip = (game.poolBet * betTip) / FEE_PRECISION;\n        uint256 payableBet = game.poolBet - collectedBetTip;\n        uint256 treasuryShare = (payableBet * treasuryFee) / FEE_PRECISION;\n        treasuryAmount += treasuryShare;\n\n        // Split the remaining prize pool among the winners; they need to collect\n        // them themselves to amortize gas cost of the game simulation\n        results.prizeShare =\n            // Original bet\n            payableBet +\n            // Taxed prize pool that's split among everyone\n            (payableBet - treasuryShare) /\n            (results.players.length - 1);\n    }\n\n    function pause() public onlyOwner {\n        _pause();\n    }\n\n    function unpause() public onlyOwner {\n        _unpause();\n    }\n}\n",
  "sourcePath": "/home/xanewok/repos/confetti-roll/contract/contracts/ConfettiRoll.sol",
  "compiler": {
    "name": "solc",
    "version": "0.8.13+commit.abaa5c0e.Emscripten.clang"
  },
  "schemaVersion": "3.4.6",
  "updatedAt": "2022-04-06T16:28:27.958Z",
  "devdoc": {
    "author": "xanewok.eth",
    "kind": "dev",
    "methods": {
      "createGame(address,uint256,uint256,uint256,uint256)": {
        "params": {
          "initializer": "needs to be an address of the contract or the sender",
          "maxParticipants": "The maximum number of players that can join the game",
          "poolBet": "The amount of money that the player enters with. Use 18 decimals, just like for $CFTI",
          "roundNum": "The round when the game will be played. Must be bigger than the current round",
          "startingRoll": "The upper roll that the game begins with"
        }
      },
      "currentRound()": {
        "details": "We piggyback on the RaidParty batch seeder for our game round abstraction"
      },
      "getRoleAdmin(bytes32)": {
        "details": "Returns the admin role that controls `role`. See {grantRole} and {revokeRole}. To change a role's admin, use {_setRoleAdmin}."
      },
      "getRoleMember(bytes32,uint256)": {
        "details": "Returns one of the accounts that have `role`. `index` must be a value between 0 and {getRoleMemberCount}, non-inclusive. Role bearers are not sorted in any particular way, and their ordering may change at any point. WARNING: When using {getRoleMember} and {getRoleMemberCount}, make sure you perform all queries on the same block. See the following https://forum.openzeppelin.com/t/iterating-over-elements-on-enumerableset-in-openzeppelin-contracts/2296[forum post] for more information."
      },
      "getRoleMemberCount(bytes32)": {
        "details": "Returns the number of accounts that have `role`. Can be used together with {getRoleMember} to enumerate all bearers of a role."
      },
      "grantRole(bytes32,address)": {
        "details": "Overload {grantRole} to track enumerable memberships"
      },
      "hasRole(bytes32,address)": {
        "details": "Returns `true` if `account` has been granted `role`."
      },
      "owner()": {
        "details": "Returns the address of the current owner."
      },
      "paused()": {
        "details": "Returns true if the contract is paused, and false otherwise."
      },
      "renounceOwnership()": {
        "details": "Leaves the contract without owner. It will not be possible to call `onlyOwner` functions anymore. Can only be called by the current owner. NOTE: Renouncing ownership will leave the contract without an owner, thereby removing any functionality that is only available to the owner."
      },
      "renounceRole(bytes32,address)": {
        "details": "Overload {renounceRole} to track enumerable memberships"
      },
      "revokeRole(bytes32,address)": {
        "details": "Overload {revokeRole} to track enumerable memberships"
      },
      "shuffledPlayers(address[],uint256)": {
        "returns": {
          "_0": "Shuffled randomly players from the given ones, using supplied seed"
        }
      },
      "supportsInterface(bytes4)": {
        "details": "See {IERC165-supportsInterface}."
      },
      "transferOwnership(address)": {
        "details": "Transfers ownership of the contract to a new account (`newOwner`). Can only be called by the current owner."
      }
    },
    "title": "A Death Roll-inspired game for Raid Party",
    "version": 1
  },
  "userdoc": {
    "kind": "user",
    "methods": {
      "calcGameId(address,uint256)": {
        "notice": "Calculates the game identifier for a given game initializer and roundNum"
      },
      "canCollectReward(address,bytes32)": {
        "notice": "Returns whether the player is eligible to collect a prize for a given game"
      },
      "commenceGame(bytes32)": {
        "notice": "Simulates a given game, assuming it's been seeded since its creation"
      },
      "createGame(address,uint256,uint256,uint256,uint256)": {
        "notice": "Create a new game"
      },
      "currentGlobalGameId()": {
        "notice": "Returns a game identifier for the currently running, global game"
      },
      "getLoser((address[],uint256[],uint256))": {
        "notice": "Given a game result, return an address of a player who lost"
      },
      "getPendingGames(address)": {
        "notice": "Returns a list of outstanding games for the player"
      },
      "getPendingRewards(address)": {
        "notice": "Returns a total amount of claimable rewards by the player"
      },
      "getSeed(uint256)": {
        "notice": "Return generated random words for a given game round"
      },
      "joinGame(bytes32)": {
        "notice": "Join the given game. Needs $CFTI approval as the player needs to deposit the pool bet in order to play."
      },
      "joinGlobalGame()": {
        "notice": "A convenient method to join the currently running global game"
      },
      "withdrawRewards()": {
        "notice": "Process and clear every outstanding game, collecting the rewards"
      }
    },
    "notice": "The games uses $CFTI, the native Raid Party token",
    "version": 1
  }
}