{
  "contractName": "ConfettiRoll",
  "abi": [
    {
      "inputs": [
        {
          "internalType": "contract IERC20",
          "name": "confetti_",
          "type": "address"
        },
        {
          "internalType": "address",
          "name": "seeder_",
          "type": "address"
        },
        {
          "internalType": "address",
          "name": "treasury_",
          "type": "address"
        }
      ],
      "stateMutability": "nonpayable",
      "type": "constructor"
    },
    {
      "anonymous": false,
      "inputs": [
        {
          "indexed": true,
          "internalType": "bytes32",
          "name": "gameId",
          "type": "bytes32"
        }
      ],
      "name": "GameCreated",
      "type": "event"
    },
    {
      "anonymous": false,
      "inputs": [
        {
          "indexed": true,
          "internalType": "address",
          "name": "previousOwner",
          "type": "address"
        },
        {
          "indexed": true,
          "internalType": "address",
          "name": "newOwner",
          "type": "address"
        }
      ],
      "name": "OwnershipTransferred",
      "type": "event"
    },
    {
      "anonymous": false,
      "inputs": [
        {
          "indexed": false,
          "internalType": "address",
          "name": "account",
          "type": "address"
        }
      ],
      "name": "Paused",
      "type": "event"
    },
    {
      "anonymous": false,
      "inputs": [
        {
          "indexed": true,
          "internalType": "bytes32",
          "name": "gameId",
          "type": "bytes32"
        },
        {
          "indexed": true,
          "internalType": "address",
          "name": "player",
          "type": "address"
        }
      ],
      "name": "PlayerJoined",
      "type": "event"
    },
    {
      "anonymous": false,
      "inputs": [
        {
          "indexed": true,
          "internalType": "bytes32",
          "name": "gameId",
          "type": "bytes32"
        },
        {
          "indexed": true,
          "internalType": "address",
          "name": "player",
          "type": "address"
        }
      ],
      "name": "PlayerLost",
      "type": "event"
    },
    {
      "anonymous": false,
      "inputs": [
        {
          "indexed": true,
          "internalType": "bytes32",
          "name": "role",
          "type": "bytes32"
        },
        {
          "indexed": true,
          "internalType": "bytes32",
          "name": "previousAdminRole",
          "type": "bytes32"
        },
        {
          "indexed": true,
          "internalType": "bytes32",
          "name": "newAdminRole",
          "type": "bytes32"
        }
      ],
      "name": "RoleAdminChanged",
      "type": "event"
    },
    {
      "anonymous": false,
      "inputs": [
        {
          "indexed": true,
          "internalType": "bytes32",
          "name": "role",
          "type": "bytes32"
        },
        {
          "indexed": true,
          "internalType": "address",
          "name": "account",
          "type": "address"
        },
        {
          "indexed": true,
          "internalType": "address",
          "name": "sender",
          "type": "address"
        }
      ],
      "name": "RoleGranted",
      "type": "event"
    },
    {
      "anonymous": false,
      "inputs": [
        {
          "indexed": true,
          "internalType": "bytes32",
          "name": "role",
          "type": "bytes32"
        },
        {
          "indexed": true,
          "internalType": "address",
          "name": "account",
          "type": "address"
        },
        {
          "indexed": true,
          "internalType": "address",
          "name": "sender",
          "type": "address"
        }
      ],
      "name": "RoleRevoked",
      "type": "event"
    },
    {
      "anonymous": false,
      "inputs": [
        {
          "indexed": false,
          "internalType": "address",
          "name": "account",
          "type": "address"
        }
      ],
      "name": "Unpaused",
      "type": "event"
    },
    {
      "inputs": [],
      "name": "DEFAULT_ADMIN_ROLE",
      "outputs": [
        {
          "internalType": "bytes32",
          "name": "",
          "type": "bytes32"
        }
      ],
      "stateMutability": "view",
      "type": "function"
    },
    {
      "inputs": [],
      "name": "TREASURY_ROLE",
      "outputs": [
        {
          "internalType": "bytes32",
          "name": "",
          "type": "bytes32"
        }
      ],
      "stateMutability": "view",
      "type": "function"
    },
    {
      "inputs": [],
      "name": "betTip",
      "outputs": [
        {
          "internalType": "uint256",
          "name": "",
          "type": "uint256"
        }
      ],
      "stateMutability": "view",
      "type": "function"
    },
    {
      "inputs": [],
      "name": "confetti",
      "outputs": [
        {
          "internalType": "contract IERC20",
          "name": "",
          "type": "address"
        }
      ],
      "stateMutability": "view",
      "type": "function"
    },
    {
      "inputs": [],
      "name": "defaultBet",
      "outputs": [
        {
          "internalType": "uint256",
          "name": "",
          "type": "uint256"
        }
      ],
      "stateMutability": "view",
      "type": "function"
    },
    {
      "inputs": [],
      "name": "defaultStartingRoll",
      "outputs": [
        {
          "internalType": "uint256",
          "name": "",
          "type": "uint256"
        }
      ],
      "stateMutability": "view",
      "type": "function"
    },
    {
      "inputs": [
        {
          "internalType": "bytes32",
          "name": "role",
          "type": "bytes32"
        }
      ],
      "name": "getRoleAdmin",
      "outputs": [
        {
          "internalType": "bytes32",
          "name": "",
          "type": "bytes32"
        }
      ],
      "stateMutability": "view",
      "type": "function"
    },
    {
      "inputs": [
        {
          "internalType": "bytes32",
          "name": "role",
          "type": "bytes32"
        },
        {
          "internalType": "uint256",
          "name": "index",
          "type": "uint256"
        }
      ],
      "name": "getRoleMember",
      "outputs": [
        {
          "internalType": "address",
          "name": "",
          "type": "address"
        }
      ],
      "stateMutability": "view",
      "type": "function"
    },
    {
      "inputs": [
        {
          "internalType": "bytes32",
          "name": "role",
          "type": "bytes32"
        }
      ],
      "name": "getRoleMemberCount",
      "outputs": [
        {
          "internalType": "uint256",
          "name": "",
          "type": "uint256"
        }
      ],
      "stateMutability": "view",
      "type": "function"
    },
    {
      "inputs": [
        {
          "internalType": "bytes32",
          "name": "role",
          "type": "bytes32"
        },
        {
          "internalType": "address",
          "name": "account",
          "type": "address"
        }
      ],
      "name": "grantRole",
      "outputs": [],
      "stateMutability": "nonpayable",
      "type": "function"
    },
    {
      "inputs": [
        {
          "internalType": "bytes32",
          "name": "role",
          "type": "bytes32"
        },
        {
          "internalType": "address",
          "name": "account",
          "type": "address"
        }
      ],
      "name": "hasRole",
      "outputs": [
        {
          "internalType": "bool",
          "name": "",
          "type": "bool"
        }
      ],
      "stateMutability": "view",
      "type": "function"
    },
    {
      "inputs": [],
      "name": "maxBet",
      "outputs": [
        {
          "internalType": "uint256",
          "name": "",
          "type": "uint256"
        }
      ],
      "stateMutability": "view",
      "type": "function"
    },
    {
      "inputs": [],
      "name": "maxStartingRoll",
      "outputs": [
        {
          "internalType": "uint256",
          "name": "",
          "type": "uint256"
        }
      ],
      "stateMutability": "view",
      "type": "function"
    },
    {
      "inputs": [],
      "name": "minBet",
      "outputs": [
        {
          "internalType": "uint256",
          "name": "",
          "type": "uint256"
        }
      ],
      "stateMutability": "view",
      "type": "function"
    },
    {
      "inputs": [],
      "name": "minStartingRoll",
      "outputs": [
        {
          "internalType": "uint256",
          "name": "",
          "type": "uint256"
        }
      ],
      "stateMutability": "view",
      "type": "function"
    },
    {
      "inputs": [],
      "name": "owner",
      "outputs": [
        {
          "internalType": "address",
          "name": "",
          "type": "address"
        }
      ],
      "stateMutability": "view",
      "type": "function"
    },
    {
      "inputs": [],
      "name": "paused",
      "outputs": [
        {
          "internalType": "bool",
          "name": "",
          "type": "bool"
        }
      ],
      "stateMutability": "view",
      "type": "function"
    },
    {
      "inputs": [],
      "name": "renounceOwnership",
      "outputs": [],
      "stateMutability": "nonpayable",
      "type": "function"
    },
    {
      "inputs": [
        {
          "internalType": "bytes32",
          "name": "role",
          "type": "bytes32"
        },
        {
          "internalType": "address",
          "name": "account",
          "type": "address"
        }
      ],
      "name": "renounceRole",
      "outputs": [],
      "stateMutability": "nonpayable",
      "type": "function"
    },
    {
      "inputs": [
        {
          "internalType": "bytes32",
          "name": "role",
          "type": "bytes32"
        },
        {
          "internalType": "address",
          "name": "account",
          "type": "address"
        }
      ],
      "name": "revokeRole",
      "outputs": [],
      "stateMutability": "nonpayable",
      "type": "function"
    },
    {
      "inputs": [],
      "name": "seeder",
      "outputs": [
        {
          "internalType": "contract RpSeeder",
          "name": "",
          "type": "address"
        }
      ],
      "stateMutability": "view",
      "type": "function"
    },
    {
      "inputs": [
        {
          "internalType": "bytes4",
          "name": "interfaceId",
          "type": "bytes4"
        }
      ],
      "name": "supportsInterface",
      "outputs": [
        {
          "internalType": "bool",
          "name": "",
          "type": "bool"
        }
      ],
      "stateMutability": "view",
      "type": "function"
    },
    {
      "inputs": [],
      "name": "tipAmount",
      "outputs": [
        {
          "internalType": "uint256",
          "name": "",
          "type": "uint256"
        }
      ],
      "stateMutability": "view",
      "type": "function"
    },
    {
      "inputs": [
        {
          "internalType": "address",
          "name": "newOwner",
          "type": "address"
        }
      ],
      "name": "transferOwnership",
      "outputs": [],
      "stateMutability": "nonpayable",
      "type": "function"
    },
    {
      "inputs": [],
      "name": "treasury",
      "outputs": [
        {
          "internalType": "address",
          "name": "",
          "type": "address"
        }
      ],
      "stateMutability": "view",
      "type": "function"
    },
    {
      "inputs": [],
      "name": "treasuryAmount",
      "outputs": [
        {
          "internalType": "uint256",
          "name": "",
          "type": "uint256"
        }
      ],
      "stateMutability": "view",
      "type": "function"
    },
    {
      "inputs": [],
      "name": "treasuryFee",
      "outputs": [
        {
          "internalType": "uint256",
          "name": "",
          "type": "uint256"
        }
      ],
      "stateMutability": "view",
      "type": "function"
    },
    {
      "inputs": [
        {
          "internalType": "uint256",
          "name": "treasuryFee_",
          "type": "uint256"
        }
      ],
      "name": "setTreasuryFee",
      "outputs": [],
      "stateMutability": "nonpayable",
      "type": "function"
    },
    {
      "inputs": [],
      "name": "withdrawTax",
      "outputs": [],
      "stateMutability": "nonpayable",
      "type": "function"
    },
    {
      "inputs": [],
      "name": "withdrawTip",
      "outputs": [],
      "stateMutability": "nonpayable",
      "type": "function"
    },
    {
      "inputs": [
        {
          "internalType": "uint256",
          "name": "betTip_",
          "type": "uint256"
        }
      ],
      "name": "setBetTip",
      "outputs": [],
      "stateMutability": "nonpayable",
      "type": "function"
    },
    {
      "inputs": [
        {
          "internalType": "uint256",
          "name": "min",
          "type": "uint256"
        },
        {
          "internalType": "uint256",
          "name": "max",
          "type": "uint256"
        },
        {
          "internalType": "uint256",
          "name": "default_",
          "type": "uint256"
        }
      ],
      "name": "setBets",
      "outputs": [],
      "stateMutability": "nonpayable",
      "type": "function"
    },
    {
      "inputs": [
        {
          "internalType": "uint256",
          "name": "min",
          "type": "uint256"
        },
        {
          "internalType": "uint256",
          "name": "max",
          "type": "uint256"
        },
        {
          "internalType": "uint256",
          "name": "default_",
          "type": "uint256"
        }
      ],
      "name": "setStartingRolls",
      "outputs": [],
      "stateMutability": "nonpayable",
      "type": "function"
    },
    {
      "inputs": [],
      "name": "currentRound",
      "outputs": [
        {
          "internalType": "uint256",
          "name": "",
          "type": "uint256"
        }
      ],
      "stateMutability": "view",
      "type": "function"
    },
    {
      "inputs": [
        {
          "internalType": "uint256",
          "name": "roundNum",
          "type": "uint256"
        }
      ],
      "name": "getSeed",
      "outputs": [
        {
          "internalType": "uint256",
          "name": "",
          "type": "uint256"
        }
      ],
      "stateMutability": "view",
      "type": "function"
    },
    {
      "inputs": [
        {
          "internalType": "bytes32",
          "name": "gameId",
          "type": "bytes32"
        }
      ],
      "name": "getGame",
      "outputs": [
        {
          "components": [
            {
              "internalType": "uint256",
              "name": "roundNum",
              "type": "uint256"
            },
            {
              "internalType": "uint256",
              "name": "poolBet",
              "type": "uint256"
            },
            {
              "internalType": "address[]",
              "name": "participants",
              "type": "address[]"
            },
            {
              "internalType": "uint256",
              "name": "startingRoll",
              "type": "uint256"
            }
          ],
          "internalType": "struct ConfettiRoll.Game",
          "name": "",
          "type": "tuple"
        }
      ],
      "stateMutability": "view",
      "type": "function"
    },
    {
      "inputs": [
        {
          "internalType": "bytes32",
          "name": "gameId",
          "type": "bytes32"
        }
      ],
      "name": "getGameResults",
      "outputs": [
        {
          "components": [
            {
              "internalType": "address[]",
              "name": "players",
              "type": "address[]"
            },
            {
              "internalType": "uint256[]",
              "name": "rolls",
              "type": "uint256[]"
            },
            {
              "internalType": "uint256",
              "name": "prizeShare",
              "type": "uint256"
            }
          ],
          "internalType": "struct ConfettiRoll.GameResult",
          "name": "",
          "type": "tuple"
        }
      ],
      "stateMutability": "view",
      "type": "function"
    },
    {
      "inputs": [
        {
          "internalType": "bytes32",
          "name": "gameId",
          "type": "bytes32"
        }
      ],
      "name": "isGameFinished",
      "outputs": [
        {
          "internalType": "bool",
          "name": "",
          "type": "bool"
        }
      ],
      "stateMutability": "view",
      "type": "function"
    },
    {
      "inputs": [
        {
          "components": [
            {
              "internalType": "address[]",
              "name": "players",
              "type": "address[]"
            },
            {
              "internalType": "uint256[]",
              "name": "rolls",
              "type": "uint256[]"
            },
            {
              "internalType": "uint256",
              "name": "prizeShare",
              "type": "uint256"
            }
          ],
          "internalType": "struct ConfettiRoll.GameResult",
          "name": "result",
          "type": "tuple"
        }
      ],
      "name": "getLoser",
      "outputs": [
        {
          "internalType": "address",
          "name": "",
          "type": "address"
        }
      ],
      "stateMutability": "pure",
      "type": "function"
    },
    {
      "inputs": [
        {
          "internalType": "address",
          "name": "player",
          "type": "address"
        }
      ],
      "name": "getPendingGames",
      "outputs": [
        {
          "internalType": "bytes32[]",
          "name": "",
          "type": "bytes32[]"
        }
      ],
      "stateMutability": "view",
      "type": "function"
    },
    {
      "inputs": [
        {
          "internalType": "address",
          "name": "player",
          "type": "address"
        },
        {
          "internalType": "bytes32",
          "name": "gameId",
          "type": "bytes32"
        }
      ],
      "name": "canCollectReward",
      "outputs": [
        {
          "internalType": "bool",
          "name": "",
          "type": "bool"
        }
      ],
      "stateMutability": "view",
      "type": "function"
    },
    {
      "inputs": [
        {
          "internalType": "address",
          "name": "player",
          "type": "address"
        }
      ],
      "name": "getPendingRewards",
      "outputs": [
        {
          "internalType": "uint256",
          "name": "",
          "type": "uint256"
        }
      ],
      "stateMutability": "view",
      "type": "function"
    },
    {
      "inputs": [],
      "name": "withdrawRewards",
      "outputs": [
        {
          "internalType": "uint256",
          "name": "",
          "type": "uint256"
        }
      ],
      "stateMutability": "nonpayable",
      "type": "function"
    },
    {
      "inputs": [
        {
          "internalType": "address",
          "name": "initializer",
          "type": "address"
        },
        {
          "internalType": "uint256",
          "name": "roundNum",
          "type": "uint256"
        }
      ],
      "name": "calcGameId",
      "outputs": [
        {
          "internalType": "bytes32",
          "name": "",
          "type": "bytes32"
        }
      ],
      "stateMutability": "pure",
      "type": "function"
    },
    {
      "inputs": [],
      "name": "currentGlobalGameId",
      "outputs": [
        {
          "internalType": "bytes32",
          "name": "",
          "type": "bytes32"
        }
      ],
      "stateMutability": "view",
      "type": "function"
    },
    {
      "inputs": [
        {
          "internalType": "address",
          "name": "initializer",
          "type": "address"
        },
        {
          "internalType": "uint256",
          "name": "poolBet",
          "type": "uint256"
        },
        {
          "internalType": "uint256",
          "name": "startingRoll",
          "type": "uint256"
        },
        {
          "internalType": "uint256",
          "name": "roundNum",
          "type": "uint256"
        }
      ],
      "name": "createGame",
      "outputs": [
        {
          "internalType": "bytes32",
          "name": "",
          "type": "bytes32"
        }
      ],
      "stateMutability": "nonpayable",
      "type": "function"
    },
    {
      "inputs": [
        {
          "internalType": "bytes32",
          "name": "gameId",
          "type": "bytes32"
        }
      ],
      "name": "joinGame",
      "outputs": [],
      "stateMutability": "nonpayable",
      "type": "function"
    },
    {
      "inputs": [],
      "name": "joinGlobalGame",
      "outputs": [
        {
          "internalType": "bytes32",
          "name": "",
          "type": "bytes32"
        }
      ],
      "stateMutability": "nonpayable",
      "type": "function"
    },
    {
      "inputs": [
        {
          "internalType": "address[]",
          "name": "players",
          "type": "address[]"
        },
        {
          "internalType": "uint256",
          "name": "seed",
          "type": "uint256"
        }
      ],
      "name": "shuffledPlayers",
      "outputs": [
        {
          "internalType": "address[]",
          "name": "",
          "type": "address[]"
        }
      ],
      "stateMutability": "pure",
      "type": "function"
    },
    {
      "inputs": [
        {
          "internalType": "bytes32",
          "name": "gameId",
          "type": "bytes32"
        }
      ],
      "name": "commenceGame",
      "outputs": [],
      "stateMutability": "nonpayable",
      "type": "function"
    },
    {
      "inputs": [],
      "name": "pause",
      "outputs": [],
      "stateMutability": "nonpayable",
      "type": "function"
    },
    {
      "inputs": [],
      "name": "unpause",
      "outputs": [],
      "stateMutability": "nonpayable",
      "type": "function"
    }
  ],
  "bytecode": "0x60e06040526101f4600555601960065567016345785d8a0000600755680821ab0d441498000060085567d02ab486cedc00006009556001600a556103e8600b556064600c553480156200005157600080fd5b5060405162003aa538038062003aa58339810160408190526200007491620002af565b6200007f33620000df565b6002805460ff60a01b19169055620000b87fe1dcbdb91df27212a29bc27177c840cf2f819ecf2187432e1fac86c2dd5dfca98262000131565b6001600160a01b0391821660a052811660c052166080526000600381905560045562000303565b600280546001600160a01b038381166001600160a01b0319831681179093556040519116919082907f8be0079c531659141344cd1fd0a4f28419497f9722a3daafe3b4186f6b6457e090600090a35050565b6200014882826200017460201b6200249e1760201c565b60008281526001602090815260409091206200016f918390620024ac62000184821b17901c565b505050565b620001808282620001a4565b5050565b60006200019b836001600160a01b03841662000244565b90505b92915050565b6000828152602081815260408083206001600160a01b038516845290915290205460ff1662000180576000828152602081815260408083206001600160a01b03851684529091529020805460ff19166001179055620002003390565b6001600160a01b0316816001600160a01b0316837f2f8788117e7eff1d82e926ec794901d17c78024a50270940304540a733656f0d60405160405180910390a45050565b60008181526001830160205260408120546200028d575081546001818101845560008481526020808220909301849055845484825282860190935260409020919091556200019e565b5060006200019e565b6001600160a01b0381168114620002ac57600080fd5b50565b600080600060608486031215620002c557600080fd5b8351620002d28162000296565b6020850151909350620002e58162000296565b6040850151909250620002f88162000296565b809150509250925092565b60805160a05160c051613733620003726000396000818161049b015261215b0152600081816104c2015281816116e30152818161221d01526122ba01526000818161069d01528181610fe801528181611c5001528181611e9201528181611fdd015261212e01526137336000f3fe608060405234801561001057600080fd5b506004361061034c5760003560e01c806377e741c7116101bd5780639f20829d116100f9578063d11a57ec116100a2578063dfa20f0a1161007c578063dfa20f0a14610760578063e0d4ea3714610768578063f2fde38b1461077b578063f6ed20171461078e57600080fd5b8063d11a57ec1461071e578063d547741f14610745578063d98011461461075857600080fd5b8063c7b8981c116100d3578063c7b8981c146106fa578063ca15c87314610702578063cc32d1761461071557600080fd5b80639f20829d146106bf578063a217fddf146106df578063bf474766146106e757600080fd5b80638f468988116101665780639619367d116101405780639619367d1461067357806397bebf9d1461067c57806399b7e5d7146106855780639e6090051461069857600080fd5b80638f468988146106215780639010d07c1461062957806391d148541461063c57600080fd5b80638456cb59116101975780638456cb59146106005780638a19c8bc146106085780638da5cb5b1461061057600080fd5b806377e741c7146105ba5780637aa8977f146105cd57806382f4aeb1146105ed57600080fd5b806342dc6b8b1161028c57806368f46b62116102355780636ea69b221161020f5780636ea69b221461052a578063715018a61461053d57806373931bbf146105455780637559b8811461056557600080fd5b806368f46b62146104e45780636d6b0eb3146104f75780636e8539251461051757600080fd5b8063608ac8d511610266578063608ac8d51461048d57806361d027b314610496578063684931ed146104bd57600080fd5b806342dc6b8b146104475780635264f33a146104505780635c975abb1461047b57600080fd5b80632ad9bf95116102f9578063345d9a8d116102d3578063345d9a8d1461041a57806336568abe14610423578063368acb09146104365780633f4ba83a1461043f57600080fd5b80632ad9bf95146103f45780632e5b2168146103fc5780632f2ff15d1461040557600080fd5b8063248a9ca31161032a578063248a9ca31461039957806328119fb8146103bc57806329eddcd6146103e157600080fd5b806301b654961461035157806301ffc9a71461036d578063230669e514610390575b600080fd5b61035a600b5481565b6040519081526020015b60405180910390f35b61038061037b366004612fcc565b6107a1565b6040519015158152602001610364565b61035a600a5481565b61035a6103a7366004612ff6565b60009081526020819052604090206001015490565b6103806103ca366004612ff6565b6000908152600d6020526040902060010154151590565b61035a6103ef366004613026565b6107e5565b61035a610b6e565b61035a60085481565b61041861041336600461305f565b610b81565b005b61035a600c5481565b61041861043136600461305f565b610ba8565b61035a60045481565b610418610bca565b61035a60065481565b61046361045e366004613191565b610c2e565b6040516001600160a01b039091168152602001610364565b600254600160a01b900460ff16610380565b61035a60035481565b6104637f000000000000000000000000000000000000000000000000000000000000000081565b6104637f000000000000000000000000000000000000000000000000000000000000000081565b6103806104f2366004613284565b610c91565b61050a610505366004612ff6565b610da8565b60405161036491906132f2565b610418610525366004612ff6565b610ea8565b610418610538366004613367565b611322565b61041861138a565b610558610553366004612ff6565b6113ee565b6040516103649190613393565b61035a610573366004613284565b6040516bffffffffffffffffffffffff19606084901b1660208201526034810182905260009060540160405160208183030381529060405280519060200120905092915050565b6104186105c8366004612ff6565b6114af565b6105e06105db3660046133d9565b611532565b60405161036491906133f4565b6104186105fb366004612ff6565b61161e565b61041861167d565b61035a6116df565b6002546001600160a01b0316610463565b61035a611763565b610463610637366004613438565b6117f4565b61038061064a36600461305f565b6000918252602082815260408084206001600160a01b0393909316845291905290205460ff1690565b61035a60075481565b61035a60095481565b610418610693366004613367565b61180c565b6104637f000000000000000000000000000000000000000000000000000000000000000081565b6106d26106cd36600461345a565b611874565b604051610364919061349f565b61035a600081565b6104186106f5366004612ff6565b6119bc565b61035a611d4f565b61035a610710366004612ff6565b611f0e565b61035a60055481565b61035a7fe1dcbdb91df27212a29bc27177c840cf2f819ecf2187432e1fac86c2dd5dfca981565b61041861075336600461305f565b611f25565b610418611f2f565b610418612096565b61035a610776366004612ff6565b6121e1565b6104186107893660046133d9565b61232d565b61035a61079c3660046133d9565b61240c565b60006001600160e01b031982167f5a05180f0000000000000000000000000000000000000000000000000000000014806107df57506107df826124c1565b92915050565b600254600090600160a01b900460ff161561083a5760405162461bcd60e51b815260206004820152601060248201526f14185d5cd8589b194e881c185d5cd95960821b60448201526064015b60405180910390fd5b8260000361084857600c5492505b836000036108565760095493505b6000610861836121e1565b905080156108b15760405162461bcd60e51b815260206004820152601360248201527f47616d6520616c726561647920736565646564000000000000000000000000006044820152606401610831565b6108b96116df565b83101561092e5760405162461bcd60e51b815260206004820152602260248201527f43616e2774206372656174652067616d657320666f72207061737420726f756e60448201527f64730000000000000000000000000000000000000000000000000000000000006064820152608401610831565b600754851015801561094257506008548511155b61098e5760405162461bcd60e51b815260206004820152601760248201527f426574206f757473696465206c6567616c2072616e67650000000000000000006044820152606401610831565b600a5484101580156109a25750600b548411155b6109ee5760405162461bcd60e51b815260206004820152601e60248201527f537461727420726f6c6c206f757473696465206c6567616c2072616e676500006044820152606401610831565b6001600160a01b038616331480610a2657506001600160a01b03861630148015610a19575060095485145b8015610a265750600c5484145b610a2f57600080fd5b604080516bffffffffffffffffffffffff19606089901b16602080830191909152603480830187905283518084039091018152605490920183528151918101919091206000818152600d9092529190206001015415610ad05760405162461bcd60e51b815260206004820152601560248201527f47616d6520616c72656164792066696e697368656400000000000000000000006044820152606401610831565b604080516080810182528581526020808201898152835160008082528184018652848601918252606085018b9052868152600e845294909420835181559051600182015592518051929392610b2b9260028501920190612f45565b506060919091015160039091015560405181907f7195cf6f05afbbfa979e2346d841dcb24356d5956eec907794f47ff7acaf701290600090a29695505050505050565b6000610b7c306105736116df565b905090565b610b8b8282612528565b6000828152600160205260409020610ba390826124ac565b505050565b610bb2828261254e565b6000828152600160205260409020610ba390826125d6565b6002546001600160a01b03163314610c245760405162461bcd60e51b815260206004820181905260248201527f4f776e61626c653a2063616c6c6572206973206e6f7420746865206f776e65726044820152606401610831565b610c2c6125eb565b565b6000816020015151600003610c4557506000919050565b60008260000151516001846020015151610c5f91906134f6565b610c699190613523565b905082600001518181518110610c8157610c81613537565b6020026020010151915050919050565b6000818152600d602052604081206001015415158015610da157506000828152600d602090815260409182902082518154608093810282018401909452606081018481526001600160a01b03881694610d95949293928492918491840182828015610d2557602002820191906000526020600020905b81546001600160a01b03168152600190910190602001808311610d07575b5050505050815260200160018201805480602002602001604051908101604052809291908181526020018280548015610d7d57602002820191906000526020600020905b815481526020019060010190808311610d69575b50505050508152602001600282015481525050610c2e565b6001600160a01b031614155b9392505050565b610dcc60405180606001604052806060815260200160608152602001600081525090565b6000828152600d602090815260409182902082518154608093810282018401909452606081018481529093919284928491840182828015610e3657602002820191906000526020600020905b81546001600160a01b03168152600190910190602001808311610e18575b5050505050815260200160018201805480602002602001604051908101604052809291908181526020018280548015610e8e57602002820191906000526020600020905b815481526020019060010190808311610e7a575b505050505081526020016002820154815250509050919050565b600254600160a01b900460ff1615610ef55760405162461bcd60e51b815260206004820152601060248201526f14185d5cd8589b194e881c185d5cd95960821b6044820152606401610831565b6000818152600e60209081526040808320815160808101835281548152600182015481850152600282018054845181870281018701865281815292959394860193830182828015610f6f57602002820191906000526020600020905b81546001600160a01b03168152600190910190602001808311610f51575b505050505081526020016003820154815250509050600081604001515111610fd95760405162461bcd60e51b815260206004820152601660248201527f4e6f20706c617965727320696e207468652067616d65000000000000000000006044820152606401610831565b806040015151600103611103577f00000000000000000000000000000000000000000000000000000000000000006001600160a01b031663a9059cbb826040015160008151811061102c5761102c613537565b602002602001015183602001516040518363ffffffff1660e01b815260040161106a9291906001600160a01b03929092168252602082015260400190565b6020604051808303816000875af1158015611089573d6000803e3d6000fd5b505050506040513d601f19601f820116820180604052508101906110ad919061354d565b50610ba382600f600084604001516000815181106110cd576110cd613537565b60200260200101516001600160a01b03166001600160a01b0316815260200190815260200160002061269190919063ffffffff16565b600061110e8361269d565b6000848152600d602052604090206001015490915061116f5760405162461bcd60e51b815260206004820152601e60248201527f47616d65206e6f742066696e69736865642061667465722073696d756c2e00006044820152606401610831565b604080518254608060208202830181019093526060820181815260009361123e93928692849290918491840182828015610d25576020028201919060005260206000209081546001600160a01b03168152600190910190602001808311610d07575050505050815260200160018201805480602002602001604051908101604052809291908181526020018280548015610d7d5760200282019190600052602060002090815481526020019060010190808311610d695750505050508152602001600282015481525050610c2e565b9050806001600160a01b0316847fd5a82ebfa8edb5cbec605a5fe6ef6469bb00d282b0d42748e6434ced9617b5b060405160405180910390a36000612710600654856020015161128e919061356f565b611298919061358e565b905060008185602001516112ac91906134f6565b90506000612710600554836112c1919061356f565b6112cb919061358e565b905080600460008282546112df91906135a2565b909155505084546112f2906001906134f6565b6112fc82846134f6565b611306919061358e565b61131090836135a2565b85600201819055505050505050505b50565b6002546001600160a01b0316331461137c5760405162461bcd60e51b815260206004820181905260248201527f4f776e61626c653a2063616c6c6572206973206e6f7420746865206f776e65726044820152606401610831565b600a92909255600b55600c55565b6002546001600160a01b031633146113e45760405162461bcd60e51b815260206004820181905260248201527f4f776e61626c653a2063616c6c6572206973206e6f7420746865206f776e65726044820152606401610831565b610c2c6000612916565b6114196040518060800160405280600081526020016000815260200160608152602001600081525090565b6000828152600e60209081526040918290208251608081018452815481526001820154818401526002820180548551818602810186018752818152929593949386019383018282801561149557602002820191906000526020600020905b81546001600160a01b03168152600190910190602001808311611477575b505050505081526020016003820154815250509050919050565b7fe1dcbdb91df27212a29bc27177c840cf2f819ecf2187432e1fac86c2dd5dfca96114da8133612975565b6105dc82111561152c5760405162461bcd60e51b815260206004820181905260248201527f4c6574207468652067616d626c6572732067616d626c6520696e2070656163656044820152606401610831565b50600555565b6001600160a01b0381166000908152600f6020526040812060609190611557906129f3565b67ffffffffffffffff81111561156f5761156f61308b565b604051908082528060200260200182016040528015611598578160200160208202803683370190505b50905060005b6001600160a01b0384166000908152600f602052604090206115bf906129f3565b811015611617576001600160a01b0384166000908152600f602052604090206115e890826129fd565b8282815181106115fa576115fa613537565b60209081029190910101528061160f816135ba565b91505061159e565b5092915050565b6002546001600160a01b031633146116785760405162461bcd60e51b815260206004820181905260248201527f4f776e61626c653a2063616c6c6572206973206e6f7420746865206f776e65726044820152606401610831565b600655565b6002546001600160a01b031633146116d75760405162461bcd60e51b815260206004820181905260248201527f4f776e61626c653a2063616c6c6572206973206e6f7420746865206f776e65726044820152606401610831565b610c2c612a09565b60007f00000000000000000000000000000000000000000000000000000000000000006001600160a01b0316633b1fee6c6040518163ffffffff1660e01b8152600401602060405180830381865afa15801561173f573d6000803e3d6000fd5b505050506040513d601f19601f82011682018060405250810190610b7c91906135d3565b600254600090600160a01b900460ff16156117b35760405162461bcd60e51b815260206004820152601060248201526f14185d5cd8589b194e881c185d5cd95960821b6044820152606401610831565b60006117bd610b6e565b6000818152600e6020526040812060030154919250036117eb576117e930600954600c546103ef6116df565b505b610b7c816119bc565b6000828152600160205260408120610da190836129fd565b6002546001600160a01b031633146118665760405162461bcd60e51b815260206004820181905260248201527f4f776e61626c653a2063616c6c6572206973206e6f7420746865206f776e65726044820152606401610831565b600792909255600855600955565b606082600080805b86518110156119b15780875161189291906134f6565b8782815181106118a4576118a4613537565b6020026020010151876040516020016118db92919060609290921b6bffffffffffffffffffffffff19168252601482015260340190565b6040516020818303038152906040528051906020012060001c6118fe9190613523565b915083818151811061191257611912613537565b6020026020010151925083828261192991906135a2565b8151811061193957611939613537565b602002602001015184828151811061195357611953613537565b6001600160a01b0390921660209283029190910190910152828461197784846135a2565b8151811061198757611987613537565b6001600160a01b0390921660209283029190910190910152806119a9816135ba565b91505061187c565b509195945050505050565b600254600160a01b900460ff1615611a095760405162461bcd60e51b815260206004820152601060248201526f14185d5cd8589b194e881c185d5cd95960821b6044820152606401610831565b6000818152600e60209081526040808320815160808101835281548152600182015481850152600282018054845181870281018701865281815292959394860193830182828015611a8357602002820191906000526020600020905b81546001600160a01b03168152600190910190602001808311611a65575b505050505081526020016003820154815250509050611ab3826000908152600d6020526040902060010154151590565b15611b005760405162461bcd60e51b815260206004820152601560248201527f47616d6520616c72656164792066696e697368656400000000000000000000006044820152606401610831565b336000908152600f60205260409020611b199083612a91565b15611b665760405162461bcd60e51b815260206004820152600e60248201527f416c7265616479206a6f696e65640000000000000000000000000000000000006044820152606401610831565b600654611b759061271061358e565b6000838152600e60205260409020600201541115611bd55760405162461bcd60e51b815260206004820152601060248201527f546f6f206d616e7920706c6179657273000000000000000000000000000000006044820152606401610831565b60006127106006548360200151611bec919061356f565b611bf6919061358e565b90508060036000828254611c0a91906135a2565b909155505060208201516040517f23b872dd00000000000000000000000000000000000000000000000000000000815233600482015230602482015260448101919091527f00000000000000000000000000000000000000000000000000000000000000006001600160a01b0316906323b872dd906064016020604051808303816000875af1158015611ca1573d6000803e3d6000fd5b505050506040513d601f19601f82011682018060405250810190611cc5919061354d565b506000838152600e60209081526040808320600201805460018101825590845282842001805473ffffffffffffffffffffffffffffffffffffffff1916339081179091558352600f9091529020611d1c9084612aa9565b50604051339084907fdd5a0e5e0c7946c099f2ed766c0b633dd2eb1e1e10743bab89f871e8038b080b90600090a3505050565b600254600090600160a01b900460ff1615611d9f5760405162461bcd60e51b815260206004820152601060248201526f14185d5cd8589b194e881c185d5cd95960821b6044820152606401610831565b336000805b6001600160a01b0383166000908152600f60205260409020611dc5906129f3565b811015611e75576001600160a01b0383166000908152600f60205260408120611dee90836129fd565b9050611dfa8482610c91565b15611e1e576000818152600d6020526040902060020154611e1b90846135a2565b92505b6000818152600d602052604090206001015415611e61576001600160a01b0384166000908152600f60205260409020611e579082612691565b5060009150611e6f565b81611e6b816135ba565b9250505b50611da4565b5060405163a9059cbb60e01b8152336004820152602481018290527f00000000000000000000000000000000000000000000000000000000000000006001600160a01b03169063a9059cbb906044016020604051808303816000875af1158015611ee3573d6000803e3d6000fd5b505050506040513d601f19601f82011682018060405250810190611f07919061354d565b5091505090565b60008181526001602052604081206107df906129f3565b610bb28282612ab5565b6002546001600160a01b03163314611f895760405162461bcd60e51b815260206004820181905260248201527f4f776e61626c653a2063616c6c6572206973206e6f7420746865206f776e65726044820152606401610831565b600060035411611fdb5760405162461bcd60e51b815260206004820152601360248201527f4e6f7468696e6720746f207769746864726177000000000000000000000000006044820152606401610831565b7f00000000000000000000000000000000000000000000000000000000000000006001600160a01b031663a9059cbb61201c6002546001600160a01b031690565b6003546040516001600160e01b031960e085901b1681526001600160a01b03909216600483015260248201526044016020604051808303816000875af115801561206a573d6000803e3d6000fd5b505050506040513d601f19601f8201168201806040525081019061208e919061354d565b506000600355565b7fe1dcbdb91df27212a29bc27177c840cf2f819ecf2187432e1fac86c2dd5dfca96120c18133612975565b6000600454116121135760405162461bcd60e51b815260206004820152601360248201527f4e6f7468696e6720746f207769746864726177000000000000000000000000006044820152606401610831565b6004805460405163a9059cbb60e01b81526001600160a01b037f0000000000000000000000000000000000000000000000000000000000000000169263a9059cbb92612195927f000000000000000000000000000000000000000000000000000000000000000092016001600160a01b03929092168252602082015260400190565b6020604051808303816000875af11580156121b4573d6000803e3d6000fd5b505050506040513d601f19601f820116820180604052508101906121d8919061354d565b50506000600455565b6040517f591c0e1c0000000000000000000000000000000000000000000000000000000081526004810182905260009081906001600160a01b037f0000000000000000000000000000000000000000000000000000000000000000169063591c0e1c90602401602060405180830381865afa158015612264573d6000803e3d6000fd5b505050506040513d601f19601f8201168201806040525081019061228891906135d3565b6040517f05b19402000000000000000000000000000000000000000000000000000000008152600481018290529091507f00000000000000000000000000000000000000000000000000000000000000006001600160a01b0316906305b1940290602401602060405180830381865afa158015612309573d6000803e3d6000fd5b505050506040513d601f19601f82011682018060405250810190610da191906135d3565b6002546001600160a01b031633146123875760405162461bcd60e51b815260206004820181905260248201527f4f776e61626c653a2063616c6c6572206973206e6f7420746865206f776e65726044820152606401610831565b6001600160a01b0381166124035760405162461bcd60e51b815260206004820152602660248201527f4f776e61626c653a206e6577206f776e657220697320746865207a65726f206160448201527f64647265737300000000000000000000000000000000000000000000000000006064820152608401610831565b61131f81612916565b600080805b6001600160a01b0384166000908152600f60205260409020612432906129f3565b811015611617576001600160a01b0384166000908152600f6020526040812061245b90836129fd565b90506124678582610c91565b1561248b576000818152600d602052604090206002015461248890846135a2565b92505b5080612496816135ba565b915050612411565b6124a88282612adb565b5050565b6000610da1836001600160a01b038416612b79565b60006001600160e01b031982167f7965db0b0000000000000000000000000000000000000000000000000000000014806107df57507f01ffc9a7000000000000000000000000000000000000000000000000000000006001600160e01b03198316146107df565b6000828152602081905260409020600101546125448133612975565b610ba38383612adb565b6001600160a01b03811633146125cc5760405162461bcd60e51b815260206004820152602f60248201527f416363657373436f6e74726f6c3a2063616e206f6e6c792072656e6f756e636560448201527f20726f6c657320666f722073656c6600000000000000000000000000000000006064820152608401610831565b6124a88282612bc8565b6000610da1836001600160a01b038416612c47565b600254600160a01b900460ff166126445760405162461bcd60e51b815260206004820152601460248201527f5061757361626c653a206e6f74207061757365640000000000000000000000006044820152606401610831565b6002805460ff60a01b191690557f5db9ee0a495bf2e6ff9c91a7834c1ba4fdd244a5e8aa4e537bd38aeae4b073aa335b6040516001600160a01b03909116815260200160405180910390a1565b6000610da18383612c47565b600254600090600160a01b900460ff16156126ed5760405162461bcd60e51b815260206004820152601060248201526f14185d5cd8589b194e881c185d5cd95960821b6044820152606401610831565b6000828152600d60205260409020600101541561274c5760405162461bcd60e51b815260206004820152601560248201527f47616d6520616c72656164792066696e697368656400000000000000000000006044820152606401610831565b6000828152600e602090815260408083208151608081018352815481526001820154818501526002820180548451818702810187018652818152929593948601938301828280156127c657602002820191906000526020600020905b81546001600160a01b031681526001909101906020018083116127a8575b50505050508152602001600382015481525050905060006127ea82600001516121e1565b90506000811161283c5760405162461bcd60e51b815260206004820152601360248201527f47616d65206e6f742073656564656420796574000000000000000000000000006044820152606401610831565b600061284c836040015183611874565b6000868152600d602090815260409091208251929350612870929091840190612f45565b506000858152600d6020526040902060608401516001909101905b80156128fb57815460405182916128af918790602001918252602082015260400190565b6040516020818303038152906040528051906020012060001c816128d5576128d561350d565b83546001818101865560008681526020902093909206918201920191909155905061288b565b5050506000848152600d60205260409020925050505b919050565b600280546001600160a01b0383811673ffffffffffffffffffffffffffffffffffffffff19831681179093556040519116919082907f8be0079c531659141344cd1fd0a4f28419497f9722a3daafe3b4186f6b6457e090600090a35050565b6000828152602081815260408083206001600160a01b038516845290915290205460ff166124a8576129b1816001600160a01b03166014612d3a565b6129bc836020612d3a565b6040516020016129cd92919061361c565b60408051601f198184030181529082905262461bcd60e51b82526108319160040161369d565b60006107df825490565b6000610da18383612f1b565b600254600160a01b900460ff1615612a565760405162461bcd60e51b815260206004820152601060248201526f14185d5cd8589b194e881c185d5cd95960821b6044820152606401610831565b6002805460ff60a01b1916600160a01b1790557f62e78cea01bee320cd4e420270b5ea74000d11b0c9f74754ebdbfc544b05a2586126743390565b60008181526001830160205260408120541515610da1565b6000610da18383612b79565b600082815260208190526040902060010154612ad18133612975565b610ba38383612bc8565b6000828152602081815260408083206001600160a01b038516845290915290205460ff166124a8576000828152602081815260408083206001600160a01b03851684529091529020805460ff19166001179055612b353390565b6001600160a01b0316816001600160a01b0316837f2f8788117e7eff1d82e926ec794901d17c78024a50270940304540a733656f0d60405160405180910390a45050565b6000818152600183016020526040812054612bc0575081546001818101845560008481526020808220909301849055845484825282860190935260409020919091556107df565b5060006107df565b6000828152602081815260408083206001600160a01b038516845290915290205460ff16156124a8576000828152602081815260408083206001600160a01b0385168085529252808320805460ff1916905551339285917ff6391f5c32d9c69d2a47ea670b442974b53935d1edc7fd64eb21e047a839171b9190a45050565b60008181526001830160205260408120548015612d30576000612c6b6001836134f6565b8554909150600090612c7f906001906134f6565b9050818114612ce4576000866000018281548110612c9f57612c9f613537565b9060005260206000200154905080876000018481548110612cc257612cc2613537565b6000918252602080832090910192909255918252600188019052604090208390555b8554869080612cf557612cf56136d0565b6001900381819060005260206000200160009055905585600101600086815260200190815260200160002060009055600193505050506107df565b60009150506107df565b60606000612d4983600261356f565b612d549060026135a2565b67ffffffffffffffff811115612d6c57612d6c61308b565b6040519080825280601f01601f191660200182016040528015612d96576020820181803683370190505b5090507f300000000000000000000000000000000000000000000000000000000000000081600081518110612dcd57612dcd613537565b60200101906001600160f81b031916908160001a9053507f780000000000000000000000000000000000000000000000000000000000000081600181518110612e1857612e18613537565b60200101906001600160f81b031916908160001a9053506000612e3c84600261356f565b612e479060016135a2565b90505b6001811115612ecc577f303132333435363738396162636465660000000000000000000000000000000085600f1660108110612e8857612e88613537565b1a60f81b828281518110612e9e57612e9e613537565b60200101906001600160f81b031916908160001a90535060049490941c93612ec5816136e6565b9050612e4a565b508315610da15760405162461bcd60e51b815260206004820181905260248201527f537472696e67733a20686578206c656e67746820696e73756666696369656e746044820152606401610831565b6000826000018281548110612f3257612f32613537565b9060005260206000200154905092915050565b828054828255906000526020600020908101928215612fa7579160200282015b82811115612fa7578251825473ffffffffffffffffffffffffffffffffffffffff19166001600160a01b03909116178255602090920191600190910190612f65565b50612fb3929150612fb7565b5090565b5b80821115612fb35760008155600101612fb8565b600060208284031215612fde57600080fd5b81356001600160e01b031981168114610da157600080fd5b60006020828403121561300857600080fd5b5035919050565b80356001600160a01b038116811461291157600080fd5b6000806000806080858703121561303c57600080fd5b6130458561300f565b966020860135965060408601359560600135945092505050565b6000806040838503121561307257600080fd5b823591506130826020840161300f565b90509250929050565b634e487b7160e01b600052604160045260246000fd5b6040516060810167ffffffffffffffff811182821017156130c4576130c461308b565b60405290565b604051601f8201601f1916810167ffffffffffffffff811182821017156130f3576130f361308b565b604052919050565b600067ffffffffffffffff8211156131155761311561308b565b5060051b60200190565b600082601f83011261313057600080fd5b81356020613145613140836130fb565b6130ca565b82815260059290921b8401810191818101908684111561316457600080fd5b8286015b84811015613186576131798161300f565b8352918301918301613168565b509695505050505050565b600060208083850312156131a457600080fd5b823567ffffffffffffffff808211156131bc57600080fd5b90840190606082870312156131d057600080fd5b6131d86130a1565b8235828111156131e757600080fd5b6131f38882860161311f565b825250838301358281111561320757600080fd5b83019150601f8201871361321a57600080fd5b8135613228613140826130fb565b81815260059190911b8301850190858101908983111561324757600080fd5b938601935b828510156132655784358252938601939086019061324c565b8087850152505050604083013560408201528094505050505092915050565b6000806040838503121561329757600080fd5b6132a08361300f565b946020939093013593505050565b600081518084526020808501945080840160005b838110156132e75781516001600160a01b0316875295820195908201906001016132c2565b509495945050505050565b60006020808352835160608285015261330e60808501826132ae565b85830151858203601f19016040870152805180835290840192506000918401905b8083101561334f578351825292840192600192909201919084019061332f565b50604087015160608701528094505050505092915050565b60008060006060848603121561337c57600080fd5b505081359360208301359350604090920135919050565b60208152815160208201526020820151604082015260006040830151608060608401526133c360a08401826132ae565b9050606084015160808401528091505092915050565b6000602082840312156133eb57600080fd5b610da18261300f565b6020808252825182820181905260009190848201906040850190845b8181101561342c57835183529284019291840191600101613410565b50909695505050505050565b6000806040838503121561344b57600080fd5b50508035926020909101359150565b6000806040838503121561346d57600080fd5b823567ffffffffffffffff81111561348457600080fd5b6134908582860161311f565b95602094909401359450505050565b6020808252825182820181905260009190848201906040850190845b8181101561342c5783516001600160a01b0316835292840192918401916001016134bb565b634e487b7160e01b600052601160045260246000fd5b600082821015613508576135086134e0565b500390565b634e487b7160e01b600052601260045260246000fd5b6000826135325761353261350d565b500690565b634e487b7160e01b600052603260045260246000fd5b60006020828403121561355f57600080fd5b81518015158114610da157600080fd5b6000816000190483118215151615613589576135896134e0565b500290565b60008261359d5761359d61350d565b500490565b600082198211156135b5576135b56134e0565b500190565b6000600182016135cc576135cc6134e0565b5060010190565b6000602082840312156135e557600080fd5b5051919050565b60005b838110156136075781810151838201526020016135ef565b83811115613616576000848401525b50505050565b7f416363657373436f6e74726f6c3a206163636f756e74200000000000000000008152600083516136548160178501602088016135ec565b7f206973206d697373696e6720726f6c652000000000000000000000000000000060179184019182015283516136918160288401602088016135ec565b01602801949350505050565b60208152600082518060208401526136bc8160408501602087016135ec565b601f01601f19169190910160400192915050565b634e487b7160e01b600052603160045260246000fd5b6000816136f5576136f56134e0565b50600019019056fea26469706673582212207edb09730bdf2628fc5c364a6950642b8b4b73104fce2bb37164ffa6cc59bac964736f6c634300080d0033",
  "immutableReferences": {
    "2570": [
      {
        "length": 32,
        "start": 1693
      },
      {
        "length": 32,
        "start": 4072
      },
      {
        "length": 32,
        "start": 7248
      },
      {
        "length": 32,
        "start": 7826
      },
      {
        "length": 32,
        "start": 8157
      },
      {
        "length": 32,
        "start": 8494
      }
    ],
    "2573": [
      {
        "length": 32,
        "start": 1218
      },
      {
        "length": 32,
        "start": 5859
      },
      {
        "length": 32,
        "start": 8733
      },
      {
        "length": 32,
        "start": 8890
      }
    ],
    "2575": [
      {
        "length": 32,
        "start": 1179
      },
      {
        "length": 32,
        "start": 8539
      }
    ]
  },
  "source": "// SPDX-License-Identifier: MIT\npragma solidity ^0.8.0;\n\nimport \"@openzeppelin/contracts/interfaces/IERC20.sol\";\nimport \"@openzeppelin/contracts/access/Ownable.sol\";\nimport \"@openzeppelin/contracts/access/AccessControlEnumerable.sol\";\nimport \"@openzeppelin/contracts/utils/structs/EnumerableSet.sol\";\nimport \"@openzeppelin/contracts/security/Pausable.sol\";\nimport \"./RpSeeder.sol\";\n\n/// @title A Death Roll-inspired game for Raid Party\n/// @author xanewok.eth\n/// @notice The games uses $CFTI, the native Raid Party token\ncontract ConfettiRoll is AccessControlEnumerable, Ownable, Pausable {\n    using EnumerableSet for EnumerableSet.Bytes32Set;\n\n    IERC20 public immutable confetti;\n    RpSeeder public immutable seeder;\n    address public immutable treasury;\n    uint256 public tipAmount;\n    uint256 public treasuryAmount;\n\n    uint256 public treasuryFee = 500; // 5%\n    uint256 public betTip = 25; // 0.25%\n    uint256 constant FEE_PRECISION = 1e4;\n\n    uint256 public minBet = 1e17; // 0.1 $CFTI\n    uint256 public maxBet = 150e18; // 150 $CFTI\n    uint256 public defaultBet = 15e18; // 15 $CFTI\n\n    uint256 public minStartingRoll = 1;\n    uint256 public maxStartingRoll = 1000;\n    uint256 public defaultStartingRoll = 100;\n\n    bytes32 public constant TREASURY_ROLE = keccak256(\"TREASURY_ROLE\");\n\n    struct Game {\n        uint256 roundNum;\n        uint256 poolBet;\n        address[] participants;\n        uint256 startingRoll;\n    }\n\n    struct GameResult {\n        address[] players;\n        // The player who rolled last is the loser\n        uint256[] rolls;\n        uint256 prizeShare;\n    }\n\n    event PlayerLost(bytes32 indexed gameId, address indexed player);\n    event GameCreated(bytes32 indexed gameId);\n    event PlayerJoined(bytes32 indexed gameId, address indexed player);\n\n    mapping(bytes32 => GameResult) gameResults;\n    mapping(bytes32 => Game) games;\n\n    mapping(address => EnumerableSet.Bytes32Set) pendingGames;\n\n    constructor(\n        IERC20 confetti_,\n        address seeder_,\n        address treasury_\n    ) {\n        _setupRole(TREASURY_ROLE, treasury_);\n\n        seeder = RpSeeder(seeder_);\n        treasury = treasury_;\n        confetti = confetti_;\n        tipAmount = 0;\n        treasuryAmount = 0;\n    }\n\n    function setTreasuryFee(uint256 treasuryFee_)\n        public\n        onlyRole(TREASURY_ROLE)\n    {\n        require(treasuryFee_ <= 1500, \"Let the gamblers gamble in peace\");\n        treasuryFee = treasuryFee_;\n    }\n\n    function withdrawTax() public onlyRole(TREASURY_ROLE) {\n        require(treasuryAmount > 0, \"Nothing to withdraw\");\n        confetti.transfer(treasury, treasuryAmount);\n        treasuryAmount = 0;\n    }\n\n    function withdrawTip() public onlyOwner {\n        require(tipAmount > 0, \"Nothing to withdraw\");\n        confetti.transfer(owner(), tipAmount);\n        tipAmount = 0;\n    }\n\n    function setBetTip(uint256 betTip_) public onlyOwner {\n        betTip = betTip_;\n    }\n\n    function setBets(\n        uint256 min,\n        uint256 max,\n        uint256 default_\n    ) public onlyOwner {\n        minBet = min;\n        maxBet = max;\n        defaultBet = default_;\n    }\n\n    function setStartingRolls(\n        uint256 min,\n        uint256 max,\n        uint256 default_\n    ) public onlyOwner {\n        minStartingRoll = min;\n        maxStartingRoll = max;\n        defaultStartingRoll = default_;\n    }\n\n    /// @dev We piggyback on the RaidParty batch seeder for our game round abstraction\n    function currentRound() public view returns (uint256) {\n        return seeder.getBatch();\n    }\n\n    /// @notice Return generated random words for a given game round\n    function getSeed(uint256 roundNum) public view returns (uint256) {\n        bytes32 reqId = seeder.getReqByBatch(roundNum);\n        return seeder.getRandomness(reqId);\n    }\n\n    function getGame(bytes32 gameId) public view returns (Game memory) {\n        return games[gameId];\n    }\n\n    function getGameResults(bytes32 gameId)\n        public\n        view\n        returns (GameResult memory)\n    {\n        return gameResults[gameId];\n    }\n\n    function isGameFinished(bytes32 gameId) public view returns (bool) {\n        return gameResults[gameId].rolls.length != 0;\n    }\n\n    /// @notice Given a game result, return an address of a player who lost\n    function getLoser(GameResult memory result) public pure returns (address) {\n        if (result.rolls.length == 0) {\n            return address(0x0);\n        }\n        uint256 loserIdx = (result.rolls.length - 1) % result.players.length;\n        return result.players[loserIdx];\n    }\n\n    /// @notice Returns a list of outstanding games for the player\n    function getPendingGames(address player)\n        public\n        view\n        returns (bytes32[] memory)\n    {\n        bytes32[] memory pendingGames_ = new bytes32[](\n            pendingGames[player].length()\n        );\n        for (uint256 i = 0; i < pendingGames[player].length(); i++) {\n            pendingGames_[i] = pendingGames[player].at(i);\n        }\n        return pendingGames_;\n    }\n\n    /// @notice Returns whether the player is eligible to collect a prize for a given game\n    function canCollectReward(address player, bytes32 gameId)\n        public\n        view\n        returns (bool)\n    {\n        return (isGameFinished(gameId) &&\n            getLoser(gameResults[gameId]) != player);\n    }\n\n    /// @notice Returns a total amount of claimable rewards by the player\n    function getPendingRewards(address player) public view returns (uint256) {\n        uint256 sum = 0;\n        for (uint256 i = 0; i < pendingGames[player].length(); i++) {\n            bytes32 gameId = pendingGames[player].at(i);\n            if (canCollectReward(player, gameId)) {\n                sum += gameResults[gameId].prizeShare;\n            }\n        }\n        return sum;\n    }\n\n    /// @notice Process and clear every outstanding game, collecting the rewards\n    function withdrawRewards() public whenNotPaused returns (uint256) {\n        address player = msg.sender;\n        uint256 rewards = 0;\n\n        for (uint256 i = 0; i < pendingGames[player].length(); ) {\n            bytes32 gameId = pendingGames[player].at(i);\n            if (canCollectReward(player, gameId)) {\n                rewards += gameResults[gameId].prizeShare;\n            }\n            // NOTE: This is the main function that is responsible for clearing\n            // up pending games (e.g. for UI reasons), so make sure to clear up\n            // pending *lost* games as well, even if we didn't collect a prize\n            if (isGameFinished(gameId)) {\n                pendingGames[player].remove(gameId);\n                // Deleting an element might've shifted the order of the elements\n                // and since we're deleting while iterating (a Bad Idea^TM),\n                // simply start iterating from the start to be safe\n                i = 0;\n            } else {\n                i++;\n            }\n        }\n\n        confetti.transfer(msg.sender, rewards);\n        return rewards;\n    }\n\n    /// @notice Calculates the game identifier for a given game initializer and roundNum\n    function calcGameId(address initializer, uint256 roundNum)\n        public\n        pure\n        returns (bytes32)\n    {\n        return keccak256(abi.encodePacked(initializer, roundNum));\n    }\n\n    /// @notice Returns a game identifier for the currently running, global game\n    function currentGlobalGameId() public view returns (bytes32) {\n        return calcGameId(address(this), currentRound());\n    }\n\n    // Anyone can join the game for the current round where either they are the\n    // initializer and they can set a custom bet or they can create a global\n    // game per round with a default bet amount\n    /// @notice Create a new game\n    /// @param initializer needs to be an address of the contract or the sender\n    /// @param poolBet The amount of money that the player enters with. Use 18 decimals, just like for $CFTI\n    /// @param startingRoll The upper roll that the game begins with\n    /// @param roundNum The round when the game will be played. Must be bigger than the current round\n    function createGame(\n        address initializer,\n        uint256 poolBet,\n        uint256 startingRoll,\n        uint256 roundNum\n    ) public whenNotPaused returns (bytes32) {\n        if (startingRoll == 0) {\n            startingRoll = defaultStartingRoll;\n        }\n        if (poolBet == 0) {\n            poolBet = defaultBet;\n        }\n        uint256 seed = getSeed(roundNum);\n        require(seed == 0, \"Game already seeded\");\n        require(\n            roundNum >= currentRound(),\n            \"Can't create games for past rounds\"\n        );\n        require(\n            poolBet >= minBet && poolBet <= maxBet,\n            \"Bet outside legal range\"\n        );\n        require(\n            startingRoll >= minStartingRoll && startingRoll <= maxStartingRoll,\n            \"Start roll outside legal range\"\n        );\n        // Allow for creating a custom game with the sender as initializer or\n        // a \"global\" (per round) one that needs to have default values set\n        require(\n            initializer == msg.sender ||\n                (initializer == address(this) &&\n                    poolBet == defaultBet &&\n                    startingRoll == defaultStartingRoll)\n        );\n        bytes32 gameId = calcGameId(initializer, roundNum);\n        require(!isGameFinished(gameId), \"Game already finished\");\n\n        games[gameId] = Game({\n            poolBet: poolBet,\n            roundNum: roundNum,\n            startingRoll: startingRoll,\n            participants: new address[](0)\n        });\n\n        emit GameCreated(gameId);\n        return gameId;\n    }\n\n    /// @notice Join the given game. Needs $CFTI approval as the player needs to deposit the pool bet in order to play.\n    function joinGame(bytes32 gameId) public whenNotPaused {\n        Game memory game = games[gameId];\n        require(!isGameFinished(gameId), \"Game already finished\");\n        require(!pendingGames[msg.sender].contains(gameId), \"Already joined\");\n        require(\n            games[gameId].participants.length <= (FEE_PRECISION / betTip),\n            \"Too many players\"\n        );\n\n        uint256 tip = (game.poolBet * betTip) / FEE_PRECISION;\n        tipAmount += tip;\n        confetti.transferFrom(msg.sender, address(this), game.poolBet);\n\n        games[gameId].participants.push(msg.sender);\n        pendingGames[msg.sender].add(gameId);\n        emit PlayerJoined(gameId, msg.sender);\n    }\n\n    /// @notice A convenient method to join the currently running global game\n    function joinGlobalGame() public whenNotPaused returns (bytes32) {\n        bytes32 globalGameId = currentGlobalGameId();\n        // Lazily create a global game if there isn't one already\n        if (games[globalGameId].startingRoll == 0) {\n            createGame(\n                address(this),\n                defaultBet,\n                defaultStartingRoll,\n                currentRound()\n            );\n        }\n        joinGame(globalGameId);\n        return globalGameId;\n    }\n\n    /// @return Shuffled randomly players from the given ones, using supplied seed\n    function shuffledPlayers(address[] memory players, uint256 seed)\n        public\n        pure\n        returns (address[] memory)\n    {\n        address[] memory shuffled = players;\n\n        address temp;\n        uint256 pick;\n        for (uint256 i = 0; i < players.length; i++) {\n            // Randomly pick a value from i (incl.) till the end of the array\n            // To further increase randomness entropy, add the current player address\n            pick =\n                uint256(keccak256(abi.encodePacked(players[i], seed))) %\n                (players.length - i);\n            temp = shuffled[i];\n            // Save the randomly picked number as the i-th address in the sequence\n            shuffled[i] = shuffled[i + pick];\n            // Return the original value to the pool that we pick from\n            shuffled[i + pick] = temp;\n        }\n\n        return shuffled;\n    }\n\n    /// @dev Given an unitialized yet game, simulate the game and commit the results to the storage\n    function simulateGame(bytes32 gameId)\n        internal\n        whenNotPaused\n        returns (GameResult storage)\n    {\n        require(!isGameFinished(gameId), \"Game already finished\");\n        Game memory game = games[gameId];\n\n        uint256 seed = getSeed(game.roundNum);\n        require(seed > 0, \"Game not seeded yet\");\n        // To remove any bias from the order that players registered with, make\n        // sure to shuffle them before starting the actual game\n        address[] memory players = shuffledPlayers(game.participants, seed);\n        gameResults[gameId].players = players;\n        uint256[] storage rolls = gameResults[gameId].rolls;\n\n        uint256 roll = game.startingRoll;\n        while (roll > 0) {\n            // NOTE: `roll` is always in the [1, game.startingRoll - 1] range\n            // here, as we start if it's positive and we always use modulo,\n            // starting from the `game.startingRoll`\n            unchecked {\n                roll =\n                    uint256(keccak256(abi.encodePacked(rolls.length, seed))) %\n                    roll;\n                rolls.push(roll + 1);\n            }\n        }\n\n        return gameResults[gameId];\n    }\n\n    /// @notice Simulates a given game, assuming it's been seeded since its creation\n    function commenceGame(bytes32 gameId) public whenNotPaused {\n        Game memory game = games[gameId];\n\n        require(game.participants.length > 0, \"No players in the game\");\n        if (game.participants.length == 1) {\n            // Not much of a game if we have a single participant, return the bet\n            confetti.transfer(game.participants[0], game.poolBet);\n            pendingGames[game.participants[0]].remove(gameId);\n            return;\n        }\n\n        GameResult storage results = simulateGame(gameId);\n        require(isGameFinished(gameId), \"Game not finished after simul.\");\n\n        address loser = getLoser(results);\n        emit PlayerLost(gameId, loser);\n\n        // Tax the prize money for the treasury\n        uint256 collectedBetTip = (game.poolBet * betTip) / FEE_PRECISION;\n        uint256 payableBet = game.poolBet - collectedBetTip;\n        uint256 treasuryShare = (payableBet * treasuryFee) / FEE_PRECISION;\n        treasuryAmount += treasuryShare;\n\n        // Split the remaining prize pool among the winners; they need to collect\n        // them themselves to amortize gas cost of the game simulation\n        results.prizeShare =\n            // Original bet\n            payableBet +\n            // Taxed prize pool that's split among everyone\n            (payableBet - treasuryShare) /\n            (results.players.length - 1);\n    }\n\n    function pause() public onlyOwner {\n        _pause();\n    }\n\n    function unpause() public onlyOwner {\n        _unpause();\n    }\n}\n",
  "sourcePath": "/home/xanewok/repos/confetti-roll/contract/contracts/ConfettiRoll.sol",
  "compiler": {
    "name": "solc",
    "version": "0.8.13+commit.abaa5c0e.Emscripten.clang"
  },
  "schemaVersion": "3.4.6",
  "updatedAt": "2022-04-05T21:18:30.432Z",
  "devdoc": {
    "author": "xanewok.eth",
    "kind": "dev",
    "methods": {
      "createGame(address,uint256,uint256,uint256)": {
        "params": {
          "initializer": "needs to be an address of the contract or the sender",
          "poolBet": "The amount of money that the player enters with. Use 18 decimals, just like for $CFTI",
          "roundNum": "The round when the game will be played. Must be bigger than the current round",
          "startingRoll": "The upper roll that the game begins with"
        }
      },
      "currentRound()": {
        "details": "We piggyback on the RaidParty batch seeder for our game round abstraction"
      },
      "getRoleAdmin(bytes32)": {
        "details": "Returns the admin role that controls `role`. See {grantRole} and {revokeRole}. To change a role's admin, use {_setRoleAdmin}."
      },
      "getRoleMember(bytes32,uint256)": {
        "details": "Returns one of the accounts that have `role`. `index` must be a value between 0 and {getRoleMemberCount}, non-inclusive. Role bearers are not sorted in any particular way, and their ordering may change at any point. WARNING: When using {getRoleMember} and {getRoleMemberCount}, make sure you perform all queries on the same block. See the following https://forum.openzeppelin.com/t/iterating-over-elements-on-enumerableset-in-openzeppelin-contracts/2296[forum post] for more information."
      },
      "getRoleMemberCount(bytes32)": {
        "details": "Returns the number of accounts that have `role`. Can be used together with {getRoleMember} to enumerate all bearers of a role."
      },
      "grantRole(bytes32,address)": {
        "details": "Overload {grantRole} to track enumerable memberships"
      },
      "hasRole(bytes32,address)": {
        "details": "Returns `true` if `account` has been granted `role`."
      },
      "owner()": {
        "details": "Returns the address of the current owner."
      },
      "paused()": {
        "details": "Returns true if the contract is paused, and false otherwise."
      },
      "renounceOwnership()": {
        "details": "Leaves the contract without owner. It will not be possible to call `onlyOwner` functions anymore. Can only be called by the current owner. NOTE: Renouncing ownership will leave the contract without an owner, thereby removing any functionality that is only available to the owner."
      },
      "renounceRole(bytes32,address)": {
        "details": "Overload {renounceRole} to track enumerable memberships"
      },
      "revokeRole(bytes32,address)": {
        "details": "Overload {revokeRole} to track enumerable memberships"
      },
      "shuffledPlayers(address[],uint256)": {
        "returns": {
          "_0": "Shuffled randomly players from the given ones, using supplied seed"
        }
      },
      "supportsInterface(bytes4)": {
        "details": "See {IERC165-supportsInterface}."
      },
      "transferOwnership(address)": {
        "details": "Transfers ownership of the contract to a new account (`newOwner`). Can only be called by the current owner."
      }
    },
    "title": "A Death Roll-inspired game for Raid Party",
    "version": 1
  },
  "userdoc": {
    "kind": "user",
    "methods": {
      "calcGameId(address,uint256)": {
        "notice": "Calculates the game identifier for a given game initializer and roundNum"
      },
      "canCollectReward(address,bytes32)": {
        "notice": "Returns whether the player is eligible to collect a prize for a given game"
      },
      "commenceGame(bytes32)": {
        "notice": "Simulates a given game, assuming it's been seeded since its creation"
      },
      "createGame(address,uint256,uint256,uint256)": {
        "notice": "Create a new game"
      },
      "currentGlobalGameId()": {
        "notice": "Returns a game identifier for the currently running, global game"
      },
      "getLoser((address[],uint256[],uint256))": {
        "notice": "Given a game result, return an address of a player who lost"
      },
      "getPendingGames(address)": {
        "notice": "Returns a list of outstanding games for the player"
      },
      "getPendingRewards(address)": {
        "notice": "Returns a total amount of claimable rewards by the player"
      },
      "getSeed(uint256)": {
        "notice": "Return generated random words for a given game round"
      },
      "joinGame(bytes32)": {
        "notice": "Join the given game. Needs $CFTI approval as the player needs to deposit the pool bet in order to play."
      },
      "joinGlobalGame()": {
        "notice": "A convenient method to join the currently running global game"
      },
      "withdrawRewards()": {
        "notice": "Process and clear every outstanding game, collecting the rewards"
      }
    },
    "notice": "The games uses $CFTI, the native Raid Party token",
    "version": 1
  }
}