{
  "contractName": "ConfettiRoll",
  "abi": [
    {
      "inputs": [
        {
          "internalType": "contract IERC20",
          "name": "confetti_",
          "type": "address"
        },
        {
          "internalType": "address",
          "name": "seeder_",
          "type": "address"
        },
        {
          "internalType": "address",
          "name": "treasury_",
          "type": "address"
        }
      ],
      "stateMutability": "nonpayable",
      "type": "constructor"
    },
    {
      "anonymous": false,
      "inputs": [
        {
          "indexed": true,
          "internalType": "bytes32",
          "name": "gameId",
          "type": "bytes32"
        }
      ],
      "name": "GameCreated",
      "type": "event"
    },
    {
      "anonymous": false,
      "inputs": [
        {
          "indexed": true,
          "internalType": "address",
          "name": "previousOwner",
          "type": "address"
        },
        {
          "indexed": true,
          "internalType": "address",
          "name": "newOwner",
          "type": "address"
        }
      ],
      "name": "OwnershipTransferred",
      "type": "event"
    },
    {
      "anonymous": false,
      "inputs": [
        {
          "indexed": false,
          "internalType": "address",
          "name": "account",
          "type": "address"
        }
      ],
      "name": "Paused",
      "type": "event"
    },
    {
      "anonymous": false,
      "inputs": [
        {
          "indexed": true,
          "internalType": "bytes32",
          "name": "gameId",
          "type": "bytes32"
        },
        {
          "indexed": true,
          "internalType": "address",
          "name": "player",
          "type": "address"
        }
      ],
      "name": "PlayerJoined",
      "type": "event"
    },
    {
      "anonymous": false,
      "inputs": [
        {
          "indexed": true,
          "internalType": "bytes32",
          "name": "gameId",
          "type": "bytes32"
        },
        {
          "indexed": true,
          "internalType": "address",
          "name": "player",
          "type": "address"
        }
      ],
      "name": "PlayerLost",
      "type": "event"
    },
    {
      "anonymous": false,
      "inputs": [
        {
          "indexed": true,
          "internalType": "bytes32",
          "name": "role",
          "type": "bytes32"
        },
        {
          "indexed": true,
          "internalType": "bytes32",
          "name": "previousAdminRole",
          "type": "bytes32"
        },
        {
          "indexed": true,
          "internalType": "bytes32",
          "name": "newAdminRole",
          "type": "bytes32"
        }
      ],
      "name": "RoleAdminChanged",
      "type": "event"
    },
    {
      "anonymous": false,
      "inputs": [
        {
          "indexed": true,
          "internalType": "bytes32",
          "name": "role",
          "type": "bytes32"
        },
        {
          "indexed": true,
          "internalType": "address",
          "name": "account",
          "type": "address"
        },
        {
          "indexed": true,
          "internalType": "address",
          "name": "sender",
          "type": "address"
        }
      ],
      "name": "RoleGranted",
      "type": "event"
    },
    {
      "anonymous": false,
      "inputs": [
        {
          "indexed": true,
          "internalType": "bytes32",
          "name": "role",
          "type": "bytes32"
        },
        {
          "indexed": true,
          "internalType": "address",
          "name": "account",
          "type": "address"
        },
        {
          "indexed": true,
          "internalType": "address",
          "name": "sender",
          "type": "address"
        }
      ],
      "name": "RoleRevoked",
      "type": "event"
    },
    {
      "anonymous": false,
      "inputs": [
        {
          "indexed": false,
          "internalType": "address",
          "name": "account",
          "type": "address"
        }
      ],
      "name": "Unpaused",
      "type": "event"
    },
    {
      "inputs": [],
      "name": "DEFAULT_ADMIN_ROLE",
      "outputs": [
        {
          "internalType": "bytes32",
          "name": "",
          "type": "bytes32"
        }
      ],
      "stateMutability": "view",
      "type": "function"
    },
    {
      "inputs": [],
      "name": "TREASURY_ROLE",
      "outputs": [
        {
          "internalType": "bytes32",
          "name": "",
          "type": "bytes32"
        }
      ],
      "stateMutability": "view",
      "type": "function"
    },
    {
      "inputs": [],
      "name": "betTip",
      "outputs": [
        {
          "internalType": "uint256",
          "name": "",
          "type": "uint256"
        }
      ],
      "stateMutability": "view",
      "type": "function"
    },
    {
      "inputs": [],
      "name": "confetti",
      "outputs": [
        {
          "internalType": "contract IERC20",
          "name": "",
          "type": "address"
        }
      ],
      "stateMutability": "view",
      "type": "function"
    },
    {
      "inputs": [],
      "name": "defaultBet",
      "outputs": [
        {
          "internalType": "uint256",
          "name": "",
          "type": "uint256"
        }
      ],
      "stateMutability": "view",
      "type": "function"
    },
    {
      "inputs": [],
      "name": "defaultMaxParticipants",
      "outputs": [
        {
          "internalType": "uint256",
          "name": "",
          "type": "uint256"
        }
      ],
      "stateMutability": "view",
      "type": "function"
    },
    {
      "inputs": [],
      "name": "defaultStartingRoll",
      "outputs": [
        {
          "internalType": "uint256",
          "name": "",
          "type": "uint256"
        }
      ],
      "stateMutability": "view",
      "type": "function"
    },
    {
      "inputs": [
        {
          "internalType": "bytes32",
          "name": "role",
          "type": "bytes32"
        }
      ],
      "name": "getRoleAdmin",
      "outputs": [
        {
          "internalType": "bytes32",
          "name": "",
          "type": "bytes32"
        }
      ],
      "stateMutability": "view",
      "type": "function"
    },
    {
      "inputs": [
        {
          "internalType": "bytes32",
          "name": "role",
          "type": "bytes32"
        },
        {
          "internalType": "uint256",
          "name": "index",
          "type": "uint256"
        }
      ],
      "name": "getRoleMember",
      "outputs": [
        {
          "internalType": "address",
          "name": "",
          "type": "address"
        }
      ],
      "stateMutability": "view",
      "type": "function"
    },
    {
      "inputs": [
        {
          "internalType": "bytes32",
          "name": "role",
          "type": "bytes32"
        }
      ],
      "name": "getRoleMemberCount",
      "outputs": [
        {
          "internalType": "uint256",
          "name": "",
          "type": "uint256"
        }
      ],
      "stateMutability": "view",
      "type": "function"
    },
    {
      "inputs": [
        {
          "internalType": "bytes32",
          "name": "role",
          "type": "bytes32"
        },
        {
          "internalType": "address",
          "name": "account",
          "type": "address"
        }
      ],
      "name": "grantRole",
      "outputs": [],
      "stateMutability": "nonpayable",
      "type": "function"
    },
    {
      "inputs": [
        {
          "internalType": "bytes32",
          "name": "role",
          "type": "bytes32"
        },
        {
          "internalType": "address",
          "name": "account",
          "type": "address"
        }
      ],
      "name": "hasRole",
      "outputs": [
        {
          "internalType": "bool",
          "name": "",
          "type": "bool"
        }
      ],
      "stateMutability": "view",
      "type": "function"
    },
    {
      "inputs": [],
      "name": "maxBet",
      "outputs": [
        {
          "internalType": "uint256",
          "name": "",
          "type": "uint256"
        }
      ],
      "stateMutability": "view",
      "type": "function"
    },
    {
      "inputs": [],
      "name": "maxStartingRoll",
      "outputs": [
        {
          "internalType": "uint256",
          "name": "",
          "type": "uint256"
        }
      ],
      "stateMutability": "view",
      "type": "function"
    },
    {
      "inputs": [],
      "name": "minBet",
      "outputs": [
        {
          "internalType": "uint256",
          "name": "",
          "type": "uint256"
        }
      ],
      "stateMutability": "view",
      "type": "function"
    },
    {
      "inputs": [],
      "name": "minStartingRoll",
      "outputs": [
        {
          "internalType": "uint256",
          "name": "",
          "type": "uint256"
        }
      ],
      "stateMutability": "view",
      "type": "function"
    },
    {
      "inputs": [],
      "name": "owner",
      "outputs": [
        {
          "internalType": "address",
          "name": "",
          "type": "address"
        }
      ],
      "stateMutability": "view",
      "type": "function"
    },
    {
      "inputs": [],
      "name": "paused",
      "outputs": [
        {
          "internalType": "bool",
          "name": "",
          "type": "bool"
        }
      ],
      "stateMutability": "view",
      "type": "function"
    },
    {
      "inputs": [],
      "name": "renounceOwnership",
      "outputs": [],
      "stateMutability": "nonpayable",
      "type": "function"
    },
    {
      "inputs": [
        {
          "internalType": "bytes32",
          "name": "role",
          "type": "bytes32"
        },
        {
          "internalType": "address",
          "name": "account",
          "type": "address"
        }
      ],
      "name": "renounceRole",
      "outputs": [],
      "stateMutability": "nonpayable",
      "type": "function"
    },
    {
      "inputs": [
        {
          "internalType": "bytes32",
          "name": "role",
          "type": "bytes32"
        },
        {
          "internalType": "address",
          "name": "account",
          "type": "address"
        }
      ],
      "name": "revokeRole",
      "outputs": [],
      "stateMutability": "nonpayable",
      "type": "function"
    },
    {
      "inputs": [],
      "name": "seeder",
      "outputs": [
        {
          "internalType": "contract RpSeeder",
          "name": "",
          "type": "address"
        }
      ],
      "stateMutability": "view",
      "type": "function"
    },
    {
      "inputs": [
        {
          "internalType": "bytes4",
          "name": "interfaceId",
          "type": "bytes4"
        }
      ],
      "name": "supportsInterface",
      "outputs": [
        {
          "internalType": "bool",
          "name": "",
          "type": "bool"
        }
      ],
      "stateMutability": "view",
      "type": "function"
    },
    {
      "inputs": [],
      "name": "tipAmount",
      "outputs": [
        {
          "internalType": "uint256",
          "name": "",
          "type": "uint256"
        }
      ],
      "stateMutability": "view",
      "type": "function"
    },
    {
      "inputs": [
        {
          "internalType": "address",
          "name": "newOwner",
          "type": "address"
        }
      ],
      "name": "transferOwnership",
      "outputs": [],
      "stateMutability": "nonpayable",
      "type": "function"
    },
    {
      "inputs": [],
      "name": "treasury",
      "outputs": [
        {
          "internalType": "address",
          "name": "",
          "type": "address"
        }
      ],
      "stateMutability": "view",
      "type": "function"
    },
    {
      "inputs": [],
      "name": "treasuryAmount",
      "outputs": [
        {
          "internalType": "uint256",
          "name": "",
          "type": "uint256"
        }
      ],
      "stateMutability": "view",
      "type": "function"
    },
    {
      "inputs": [],
      "name": "treasuryFee",
      "outputs": [
        {
          "internalType": "uint256",
          "name": "",
          "type": "uint256"
        }
      ],
      "stateMutability": "view",
      "type": "function"
    },
    {
      "inputs": [
        {
          "internalType": "uint256",
          "name": "treasuryFee_",
          "type": "uint256"
        }
      ],
      "name": "setTreasuryFee",
      "outputs": [],
      "stateMutability": "nonpayable",
      "type": "function"
    },
    {
      "inputs": [],
      "name": "withdrawTax",
      "outputs": [],
      "stateMutability": "nonpayable",
      "type": "function"
    },
    {
      "inputs": [],
      "name": "withdrawTip",
      "outputs": [],
      "stateMutability": "nonpayable",
      "type": "function"
    },
    {
      "inputs": [
        {
          "internalType": "uint256",
          "name": "betTip_",
          "type": "uint256"
        }
      ],
      "name": "setBetTip",
      "outputs": [],
      "stateMutability": "nonpayable",
      "type": "function"
    },
    {
      "inputs": [
        {
          "internalType": "uint256",
          "name": "min",
          "type": "uint256"
        },
        {
          "internalType": "uint256",
          "name": "max",
          "type": "uint256"
        },
        {
          "internalType": "uint256",
          "name": "default_",
          "type": "uint256"
        }
      ],
      "name": "setBets",
      "outputs": [],
      "stateMutability": "nonpayable",
      "type": "function"
    },
    {
      "inputs": [
        {
          "internalType": "uint256",
          "name": "min",
          "type": "uint256"
        },
        {
          "internalType": "uint256",
          "name": "max",
          "type": "uint256"
        },
        {
          "internalType": "uint256",
          "name": "default_",
          "type": "uint256"
        }
      ],
      "name": "setStartingRolls",
      "outputs": [],
      "stateMutability": "nonpayable",
      "type": "function"
    },
    {
      "inputs": [
        {
          "internalType": "uint256",
          "name": "value",
          "type": "uint256"
        }
      ],
      "name": "setDefaultMaxParticipants",
      "outputs": [],
      "stateMutability": "nonpayable",
      "type": "function"
    },
    {
      "inputs": [],
      "name": "currentRound",
      "outputs": [
        {
          "internalType": "uint256",
          "name": "",
          "type": "uint256"
        }
      ],
      "stateMutability": "view",
      "type": "function"
    },
    {
      "inputs": [
        {
          "internalType": "uint256",
          "name": "roundNum",
          "type": "uint256"
        }
      ],
      "name": "getSeed",
      "outputs": [
        {
          "internalType": "uint256",
          "name": "",
          "type": "uint256"
        }
      ],
      "stateMutability": "view",
      "type": "function"
    },
    {
      "inputs": [
        {
          "internalType": "bytes32",
          "name": "gameId",
          "type": "bytes32"
        }
      ],
      "name": "getGame",
      "outputs": [
        {
          "components": [
            {
              "internalType": "uint256",
              "name": "roundNum",
              "type": "uint256"
            },
            {
              "internalType": "uint256",
              "name": "poolBet",
              "type": "uint256"
            },
            {
              "internalType": "address[]",
              "name": "participants",
              "type": "address[]"
            },
            {
              "internalType": "uint256",
              "name": "startingRoll",
              "type": "uint256"
            },
            {
              "internalType": "uint256",
              "name": "maxParticipants",
              "type": "uint256"
            }
          ],
          "internalType": "struct ConfettiRoll.Game",
          "name": "",
          "type": "tuple"
        }
      ],
      "stateMutability": "view",
      "type": "function"
    },
    {
      "inputs": [
        {
          "internalType": "bytes32",
          "name": "gameId",
          "type": "bytes32"
        }
      ],
      "name": "getGameResults",
      "outputs": [
        {
          "components": [
            {
              "internalType": "address[]",
              "name": "players",
              "type": "address[]"
            },
            {
              "internalType": "uint256[]",
              "name": "rolls",
              "type": "uint256[]"
            },
            {
              "internalType": "uint256",
              "name": "prizeShare",
              "type": "uint256"
            }
          ],
          "internalType": "struct ConfettiRoll.GameResult",
          "name": "",
          "type": "tuple"
        }
      ],
      "stateMutability": "view",
      "type": "function"
    },
    {
      "inputs": [
        {
          "internalType": "bytes32",
          "name": "gameId",
          "type": "bytes32"
        }
      ],
      "name": "isGameFinished",
      "outputs": [
        {
          "internalType": "bool",
          "name": "",
          "type": "bool"
        }
      ],
      "stateMutability": "view",
      "type": "function"
    },
    {
      "inputs": [
        {
          "components": [
            {
              "internalType": "address[]",
              "name": "players",
              "type": "address[]"
            },
            {
              "internalType": "uint256[]",
              "name": "rolls",
              "type": "uint256[]"
            },
            {
              "internalType": "uint256",
              "name": "prizeShare",
              "type": "uint256"
            }
          ],
          "internalType": "struct ConfettiRoll.GameResult",
          "name": "result",
          "type": "tuple"
        }
      ],
      "name": "getLoser",
      "outputs": [
        {
          "internalType": "address",
          "name": "",
          "type": "address"
        }
      ],
      "stateMutability": "pure",
      "type": "function"
    },
    {
      "inputs": [
        {
          "internalType": "bytes32",
          "name": "gameId",
          "type": "bytes32"
        }
      ],
      "name": "getRolls",
      "outputs": [
        {
          "internalType": "uint256[]",
          "name": "",
          "type": "uint256[]"
        }
      ],
      "stateMutability": "view",
      "type": "function"
    },
    {
      "inputs": [
        {
          "internalType": "address",
          "name": "player",
          "type": "address"
        }
      ],
      "name": "getPendingGames",
      "outputs": [
        {
          "internalType": "bytes32[]",
          "name": "",
          "type": "bytes32[]"
        }
      ],
      "stateMutability": "view",
      "type": "function"
    },
    {
      "inputs": [
        {
          "internalType": "address",
          "name": "player",
          "type": "address"
        },
        {
          "internalType": "bytes32",
          "name": "gameId",
          "type": "bytes32"
        }
      ],
      "name": "canCollectReward",
      "outputs": [
        {
          "internalType": "bool",
          "name": "",
          "type": "bool"
        }
      ],
      "stateMutability": "view",
      "type": "function"
    },
    {
      "inputs": [
        {
          "internalType": "address",
          "name": "player",
          "type": "address"
        }
      ],
      "name": "getPendingRewards",
      "outputs": [
        {
          "internalType": "uint256",
          "name": "",
          "type": "uint256"
        }
      ],
      "stateMutability": "view",
      "type": "function"
    },
    {
      "inputs": [],
      "name": "withdrawRewards",
      "outputs": [
        {
          "internalType": "uint256",
          "name": "",
          "type": "uint256"
        }
      ],
      "stateMutability": "nonpayable",
      "type": "function"
    },
    {
      "inputs": [
        {
          "internalType": "address",
          "name": "initializer",
          "type": "address"
        },
        {
          "internalType": "uint256",
          "name": "roundNum",
          "type": "uint256"
        }
      ],
      "name": "calcGameId",
      "outputs": [
        {
          "internalType": "bytes32",
          "name": "",
          "type": "bytes32"
        }
      ],
      "stateMutability": "pure",
      "type": "function"
    },
    {
      "inputs": [],
      "name": "currentGlobalGameId",
      "outputs": [
        {
          "internalType": "bytes32",
          "name": "",
          "type": "bytes32"
        }
      ],
      "stateMutability": "view",
      "type": "function"
    },
    {
      "inputs": [
        {
          "internalType": "address",
          "name": "initializer",
          "type": "address"
        },
        {
          "internalType": "uint256",
          "name": "poolBet",
          "type": "uint256"
        },
        {
          "internalType": "uint256",
          "name": "startingRoll",
          "type": "uint256"
        },
        {
          "internalType": "uint256",
          "name": "maxParticipants",
          "type": "uint256"
        },
        {
          "internalType": "uint256",
          "name": "roundNum",
          "type": "uint256"
        }
      ],
      "name": "createGame",
      "outputs": [
        {
          "internalType": "bytes32",
          "name": "",
          "type": "bytes32"
        }
      ],
      "stateMutability": "nonpayable",
      "type": "function"
    },
    {
      "inputs": [
        {
          "internalType": "bytes32",
          "name": "gameId",
          "type": "bytes32"
        }
      ],
      "name": "joinGame",
      "outputs": [],
      "stateMutability": "nonpayable",
      "type": "function"
    },
    {
      "inputs": [],
      "name": "joinGlobalGame",
      "outputs": [
        {
          "internalType": "bytes32",
          "name": "",
          "type": "bytes32"
        }
      ],
      "stateMutability": "nonpayable",
      "type": "function"
    },
    {
      "inputs": [
        {
          "internalType": "address[]",
          "name": "players",
          "type": "address[]"
        },
        {
          "internalType": "uint256",
          "name": "seed",
          "type": "uint256"
        }
      ],
      "name": "shuffledPlayers",
      "outputs": [
        {
          "internalType": "address[]",
          "name": "",
          "type": "address[]"
        }
      ],
      "stateMutability": "pure",
      "type": "function"
    },
    {
      "inputs": [
        {
          "internalType": "bytes32",
          "name": "gameId",
          "type": "bytes32"
        }
      ],
      "name": "commenceGame",
      "outputs": [],
      "stateMutability": "nonpayable",
      "type": "function"
    },
    {
      "inputs": [],
      "name": "pause",
      "outputs": [],
      "stateMutability": "nonpayable",
      "type": "function"
    },
    {
      "inputs": [],
      "name": "unpause",
      "outputs": [],
      "stateMutability": "nonpayable",
      "type": "function"
    }
  ],
  "bytecode": "0x60e06040526101f4600555601960065567016345785d8a0000600755680821ab0d441498000060085567d02ab486cedc00006009556002600a556103e8600b556064600c556064600d553480156200005657600080fd5b5060405162004045380380620040458339810160408190526200007991620002b4565b6200008433620000e4565b6002805460ff60a01b19169055620000bd7fe1dcbdb91df27212a29bc27177c840cf2f819ecf2187432e1fac86c2dd5dfca98262000136565b6001600160a01b0391821660a052811660c052166080526000600381905560045562000308565b600280546001600160a01b038381166001600160a01b0319831681179093556040519116919082907f8be0079c531659141344cd1fd0a4f28419497f9722a3daafe3b4186f6b6457e090600090a35050565b6200014d82826200017960201b62002a431760201c565b60008281526001602090815260409091206200017491839062002a5162000189821b17901c565b505050565b620001858282620001a9565b5050565b6000620001a0836001600160a01b03841662000249565b90505b92915050565b6000828152602081815260408083206001600160a01b038516845290915290205460ff1662000185576000828152602081815260408083206001600160a01b03851684529091529020805460ff19166001179055620002053390565b6001600160a01b0316816001600160a01b0316837f2f8788117e7eff1d82e926ec794901d17c78024a50270940304540a733656f0d60405160405180910390a45050565b60008181526001830160205260408120546200029257508154600181810184556000848152602080822090930184905584548482528286019093526040902091909155620001a3565b506000620001a3565b6001600160a01b0381168114620002b157600080fd5b50565b600080600060608486031215620002ca57600080fd5b8351620002d7816200029b565b6020850151909350620002ea816200029b565b6040850151909250620002fd816200029b565b809150509250925092565b60805160a05160c051613cc76200037e600039600081816104c901526127000152600081816105030152818161172501528181611fb7015281816127c2015261285f0152600081816106d101528181611019015281816121f4015281816124370152818161258201526126d30152613cc76000f3fe608060405234801561001057600080fd5b506004361061036d5760003560e01c806377e741c7116101d35780639f20829d11610104578063d11a57ec116100a2578063dfa20f0a1161007c578063dfa20f0a146107b0578063e0d4ea37146107b8578063f2fde38b146107cb578063f6ed2017146107de57600080fd5b8063d11a57ec1461076e578063d547741f14610795578063d9801146146107a857600080fd5b8063bf474766116100de578063bf47476614610737578063c7b8981c1461074a578063ca15c87314610752578063cc32d1761461076557600080fd5b80639f20829d146106fc578063a217fddf1461071c578063b5ed7f7c1461072457600080fd5b80639010d07c1161017157806397bebf9d1161014b57806397bebf9d146106b057806399b7e5d7146106b95780639e609005146106cc5780639e9ed821146106f357600080fd5b80639010d07c1461065d57806391d14854146106705780639619367d146106a757600080fd5b80638456cb59116101ad5780638456cb59146106345780638a19c8bc1461063c5780638da5cb5b146106445780638f4689881461065557600080fd5b806377e741c7146105fb5780637aa8977f1461060e57806382f4aeb11461062157600080fd5b806342dc6b8b116102ad57806368f46b621161024b5780636ea69b22116102255780636ea69b221461056b578063715018a61461057e57806373931bbf146105865780637559b881146105a657600080fd5b806368f46b62146105255780636d6b0eb3146105385780636e8539251461055857600080fd5b8063608ac8d511610287578063608ac8d5146104bb57806361d027b3146104c457806364d18453146104eb578063684931ed146104fe57600080fd5b806342dc6b8b146104755780635264f33a1461047e5780635c975abb146104a957600080fd5b80632c0c4af91161031a578063345d9a8d116102f4578063345d9a8d1461044857806336568abe14610451578063368acb09146104645780633f4ba83a1461046d57600080fd5b80632c0c4af91461040a5780632e5b21681461042a5780632f2ff15d1461043357600080fd5b8063248a9ca31161034b578063248a9ca3146103ba57806328119fb8146103dd5780632ad9bf951461040257600080fd5b806301b654961461037257806301ffc9a71461038e578063230669e5146103b1575b600080fd5b61037b600b5481565b6040519081526020015b60405180910390f35b6103a161039c36600461357b565b6107f1565b6040519015158152602001610385565b61037b600a5481565b61037b6103c83660046135a5565b60009081526020819052604090206001015490565b6103a16103eb3660046135a5565b6000908152600e6020526040902060010154151590565b61037b610835565b61041d6104183660046135a5565b610848565b60405161038591906135be565b61037b60085481565b610446610441366004613619565b610b49565b005b61037b600c5481565b61044661045f366004613619565b610b70565b61037b60045481565b610446610b92565b61037b60065481565b61049161048c36600461374b565b610bf6565b6040516001600160a01b039091168152602001610385565b600254600160a01b900460ff166103a1565b61037b60035481565b6104917f000000000000000000000000000000000000000000000000000000000000000081565b6104466104f93660046135a5565b610c59565b6104917f000000000000000000000000000000000000000000000000000000000000000081565b6103a161053336600461383e565b610cb8565b61054b6105463660046135a5565b610dcf565b60405161038591906138ac565b6104466105663660046135a5565b610ecf565b610446610579366004613921565b611353565b6104466113bb565b6105996105943660046135a5565b61141f565b604051610385919061394d565b61037b6105b436600461383e565b6040516bffffffffffffffffffffffff19606084901b1660208201526034810182905260009060540160405160208183030381529060405280519060200120905092915050565b6104466106093660046135a5565b6114f1565b61041d61061c36600461399d565b611574565b61044661062f3660046135a5565b611660565b6104466116bf565b61037b611721565b6002546001600160a01b0316610491565b61037b6117a5565b61049161066b3660046139b8565b611839565b6103a161067e366004613619565b6000918252602082815260408084206001600160a01b0393909316845291905290205460ff1690565b61037b60075481565b61037b60095481565b6104466106c7366004613921565b611851565b6104917f000000000000000000000000000000000000000000000000000000000000000081565b61037b600d5481565b61070f61070a3660046139da565b6118b9565b6040516103859190613a1f565b61037b600081565b61037b610732366004613a32565b611a01565b6104466107453660046135a5565b611db2565b61037b6122f4565b61037b6107603660046135a5565b6124b3565b61037b60055481565b61037b7fe1dcbdb91df27212a29bc27177c840cf2f819ecf2187432e1fac86c2dd5dfca981565b6104466107a3366004613619565b6124ca565b6104466124d4565b61044661263b565b61037b6107c63660046135a5565b612786565b6104466107d936600461399d565b6128d2565b61037b6107ec36600461399d565b6129b1565b60006001600160e01b031982167f5a05180f00000000000000000000000000000000000000000000000000000000148061082f575061082f82612a66565b92915050565b6000610843306105b4611721565b905090565b6000818152600f60209081526040808320815160a081018352815481526001820154818501526002820180548451818702810187018652818152606097969395860193909291908301828280156108c857602002820191906000526020600020905b81546001600160a01b031681526001909101906020018083116108aa575b5050505050815260200160038201548152602001600482015481525050905060006108f68260000151612786565b90508060000361094d5760405162461bcd60e51b815260206004820152601360248201527f47616d65206e6f7420736565646564207965740000000000000000000000000060448201526064015b60405180910390fd5b6002826040015151106109c85760405162461bcd60e51b815260206004820152602e60248201527f43616e27742073696d756c6174652067616d6520776974686f7574206174206c60448201527f65617374203220706c61796572730000000000000000000000000000000000006064820152608401610944565b60006109d88360400151836118b9565b90506000836060015167ffffffffffffffff8111156109f9576109f9613645565b604051908082528060200260200182016040528015610a22578160200160208202803683370190505b50606085015190915060005b8115610aa15781835186604051602001610a52929190918252602082015260400190565b6040516020818303038152906040528051906020012060001c81610a7857610a78613a74565b06915081838281518110610a8e57610a8e613a8a565b6020908102919091010152600101610a2e565b60008167ffffffffffffffff811115610abc57610abc613645565b604051908082528060200260200182016040528015610ae5578160200160208202803683370190505b50905060005b82811015610b3c57848381518110610b0557610b05613a8a565b6020026020010151828281518110610b1f57610b1f613a8a565b602090810291909101015280610b3481613ab6565b915050610aeb565b5098975050505050505050565b610b538282612acd565b6000828152600160205260409020610b6b9082612a51565b505050565b610b7a8282612af3565b6000828152600160205260409020610b6b9082612b7b565b6002546001600160a01b03163314610bec5760405162461bcd60e51b815260206004820181905260248201527f4f776e61626c653a2063616c6c6572206973206e6f7420746865206f776e65726044820152606401610944565b610bf4612b90565b565b6000816020015151600003610c0d57506000919050565b60008260000151516001846020015151610c279190613acf565b610c319190613ae6565b905082600001518181518110610c4957610c49613a8a565b6020026020010151915050919050565b6002546001600160a01b03163314610cb35760405162461bcd60e51b815260206004820181905260248201527f4f776e61626c653a2063616c6c6572206973206e6f7420746865206f776e65726044820152606401610944565b600d55565b6000818152600e602052604081206001015415158015610dc857506000828152600e602090815260409182902082518154608093810282018401909452606081018481526001600160a01b03881694610dbc949293928492918491840182828015610d4c57602002820191906000526020600020905b81546001600160a01b03168152600190910190602001808311610d2e575b5050505050815260200160018201805480602002602001604051908101604052809291908181526020018280548015610da457602002820191906000526020600020905b815481526020019060010190808311610d90575b50505050508152602001600282015481525050610bf6565b6001600160a01b031614155b9392505050565b610df360405180606001604052806060815260200160608152602001600081525090565b6000828152600e602090815260409182902082518154608093810282018401909452606081018481529093919284928491840182828015610e5d57602002820191906000526020600020905b81546001600160a01b03168152600190910190602001808311610e3f575b5050505050815260200160018201805480602002602001604051908101604052809291908181526020018280548015610eb557602002820191906000526020600020905b815481526020019060010190808311610ea1575b505050505081526020016002820154815250509050919050565b600254600160a01b900460ff1615610f1c5760405162461bcd60e51b815260206004820152601060248201526f14185d5cd8589b194e881c185d5cd95960821b6044820152606401610944565b6000818152600f60209081526040808320815160a08101835281548152600182015481850152600282018054845181870281018701865281815292959394860193830182828015610f9657602002820191906000526020600020905b81546001600160a01b03168152600190910190602001808311610f78575b5050505050815260200160038201548152602001600482015481525050905060008160400151511161100a5760405162461bcd60e51b815260206004820152601660248201527f4e6f20706c617965727320696e207468652067616d65000000000000000000006044820152606401610944565b806040015151600103611134577f00000000000000000000000000000000000000000000000000000000000000006001600160a01b031663a9059cbb826040015160008151811061105d5761105d613a8a565b602002602001015183602001516040518363ffffffff1660e01b815260040161109b9291906001600160a01b03929092168252602082015260400190565b6020604051808303816000875af11580156110ba573d6000803e3d6000fd5b505050506040513d601f19601f820116820180604052508101906110de9190613afa565b50610b6b826010600084604001516000815181106110fe576110fe613a8a565b60200260200101516001600160a01b03166001600160a01b03168152602001908152602001600020612c3690919063ffffffff16565b600061113f83612c42565b6000848152600e60205260409020600101549091506111a05760405162461bcd60e51b815260206004820152601e60248201527f47616d65206e6f742066696e69736865642061667465722073696d756c2e00006044820152606401610944565b604080518254608060208202830181019093526060820181815260009361126f93928692849290918491840182828015610d4c576020028201919060005260206000209081546001600160a01b03168152600190910190602001808311610d2e575050505050815260200160018201805480602002602001604051908101604052809291908181526020018280548015610da45760200282019190600052602060002090815481526020019060010190808311610d905750505050508152602001600282015481525050610bf6565b9050806001600160a01b0316847fd5a82ebfa8edb5cbec605a5fe6ef6469bb00d282b0d42748e6434ced9617b5b060405160405180910390a3600061271060065485602001516112bf9190613b1c565b6112c99190613b3b565b905060008185602001516112dd9190613acf565b90506000612710600554836112f29190613b1c565b6112fc9190613b3b565b905080600460008282546113109190613b4f565b9091555050845461132390600190613acf565b61132d8284613acf565b6113379190613b3b565b6113419083613b4f565b85600201819055505050505050505b50565b6002546001600160a01b031633146113ad5760405162461bcd60e51b815260206004820181905260248201527f4f776e61626c653a2063616c6c6572206973206e6f7420746865206f776e65726044820152606401610944565b600a92909255600b55600c55565b6002546001600160a01b031633146114155760405162461bcd60e51b815260206004820181905260248201527f4f776e61626c653a2063616c6c6572206973206e6f7420746865206f776e65726044820152606401610944565b610bf46000612ec5565b6114516040518060a0016040528060008152602001600081526020016060815260200160008152602001600081525090565b6000828152600f6020908152604091829020825160a08101845281548152600182015481840152600282018054855181860281018601875281815292959394938601938301828280156114cd57602002820191906000526020600020905b81546001600160a01b031681526001909101906020018083116114af575b50505050508152602001600382015481526020016004820154815250509050919050565b7fe1dcbdb91df27212a29bc27177c840cf2f819ecf2187432e1fac86c2dd5dfca961151c8133612f24565b6105dc82111561156e5760405162461bcd60e51b815260206004820181905260248201527f4c6574207468652067616d626c6572732067616d626c6520696e2070656163656044820152606401610944565b50600555565b6001600160a01b03811660009081526010602052604081206060919061159990612fa2565b67ffffffffffffffff8111156115b1576115b1613645565b6040519080825280602002602001820160405280156115da578160200160208202803683370190505b50905060005b6001600160a01b038416600090815260106020526040902061160190612fa2565b811015611659576001600160a01b038416600090815260106020526040902061162a9082612fac565b82828151811061163c5761163c613a8a565b60209081029190910101528061165181613ab6565b9150506115e0565b5092915050565b6002546001600160a01b031633146116ba5760405162461bcd60e51b815260206004820181905260248201527f4f776e61626c653a2063616c6c6572206973206e6f7420746865206f776e65726044820152606401610944565b600655565b6002546001600160a01b031633146117195760405162461bcd60e51b815260206004820181905260248201527f4f776e61626c653a2063616c6c6572206973206e6f7420746865206f776e65726044820152606401610944565b610bf4612fb8565b60007f00000000000000000000000000000000000000000000000000000000000000006001600160a01b0316633b1fee6c6040518163ffffffff1660e01b8152600401602060405180830381865afa158015611781573d6000803e3d6000fd5b505050506040513d601f19601f820116820180604052508101906108439190613b67565b600254600090600160a01b900460ff16156117f55760405162461bcd60e51b815260206004820152601060248201526f14185d5cd8589b194e881c185d5cd95960821b6044820152606401610944565b60006117ff610835565b6000818152600f6020526040812060030154919250036118305761182e30600954600c54600d54610732611721565b505b61084381611db2565b6000828152600160205260408120610dc89083612fac565b6002546001600160a01b031633146118ab5760405162461bcd60e51b815260206004820181905260248201527f4f776e61626c653a2063616c6c6572206973206e6f7420746865206f776e65726044820152606401610944565b600792909255600855600955565b606082600080805b86518110156119f6578087516118d79190613acf565b8782815181106118e9576118e9613a8a565b60200260200101518760405160200161192092919060609290921b6bffffffffffffffffffffffff19168252601482015260340190565b6040516020818303038152906040528051906020012060001c6119439190613ae6565b915083818151811061195757611957613a8a565b6020026020010151925083828261196e9190613b4f565b8151811061197e5761197e613a8a565b602002602001015184828151811061199857611998613a8a565b6001600160a01b039092166020928302919091019091015282846119bc8484613b4f565b815181106119cc576119cc613a8a565b6001600160a01b0390921660209283029190910190910152806119ee81613ab6565b9150506118c1565b509195945050505050565b600254600090600160a01b900460ff1615611a515760405162461bcd60e51b815260206004820152601060248201526f14185d5cd8589b194e881c185d5cd95960821b6044820152606401610944565b83600003611a5f57600c5493505b84600003611a6d5760095494505b6002831015611a7c57600d5492505b6000611a8783612786565b90508015611ad75760405162461bcd60e51b815260206004820152601360248201527f47616d6520616c726561647920736565646564000000000000000000000000006044820152606401610944565b611adf611721565b831015611b545760405162461bcd60e51b815260206004820152602260248201527f43616e2774206372656174652067616d657320666f72207061737420726f756e60448201527f64730000000000000000000000000000000000000000000000000000000000006064820152608401610944565b6007548610158015611b6857506008548611155b611bb45760405162461bcd60e51b815260206004820152601760248201527f426574206f757473696465206c6567616c2072616e67650000000000000000006044820152606401610944565b600a548510158015611bc85750600b548511155b611c145760405162461bcd60e51b815260206004820152601e60248201527f537461727420726f6c6c206f757473696465206c6567616c2072616e676500006044820152606401610944565b6001600160a01b038716331480611c5957506001600160a01b03871630148015611c3f575060095486145b8015611c4c5750600c5485145b8015611c595750600d5484145b611c6257600080fd5b604080516bffffffffffffffffffffffff1960608a901b16602080830191909152603480830187905283518084039091018152605490920183528151918101919091206000818152600e9092529190206001015415611d035760405162461bcd60e51b815260206004820152601560248201527f47616d6520616c72656164792066696e697368656400000000000000000000006044820152606401610944565b6040805160a08101825285815260208082018a8152835160008082528184018652848601918252606085018c9052608085018b9052868152600f845294909420835181559051600182015592518051929392611d6592600285019201906134f4565b506060820151600382015560809091015160049091015560405181907f7195cf6f05afbbfa979e2346d841dcb24356d5956eec907794f47ff7acaf701290600090a2979650505050505050565b600254600160a01b900460ff1615611dff5760405162461bcd60e51b815260206004820152601060248201526f14185d5cd8589b194e881c185d5cd95960821b6044820152606401610944565b6000818152600f60209081526040808320815160a08101835281548152600182015481850152600282018054845181870281018701865281815292959394860193830182828015611e7957602002820191906000526020600020905b81546001600160a01b03168152600190910190602001808311611e5b575b505050505081526020016003820154815260200160048201548152505090506000816060015111611eec5760405162461bcd60e51b815260206004820152601660248201527f47616d6520646f65736e277420657869737420796574000000000000000000006044820152606401610944565b6000828152600e602052604090206001015415611f4b5760405162461bcd60e51b815260206004820152601560248201527f47616d6520616c72656164792066696e697368656400000000000000000000006044820152606401610944565b6000611f5a8260000151612786565b90508015611faa5760405162461bcd60e51b815260206004820152601360248201527f47616d6520616c726561647920736565646564000000000000000000000000006044820152606401610944565b611fb542603c613b4f565b7f00000000000000000000000000000000000000000000000000000000000000006001600160a01b0316633c099fce6040518163ffffffff1660e01b8152600401602060405180830381865afa158015612013573d6000803e3d6000fd5b505050506040513d601f19601f820116820180604052508101906120379190613b67565b116120845760405162461bcd60e51b815260206004820181905260248201527f5365656420696d6d696e656e743b207369676e2d757020697320636c6f7365646044820152606401610944565b33600090815260106020526040902061209d9084613040565b156120ea5760405162461bcd60e51b815260206004820152600e60248201527f416c7265616479206a6f696e65640000000000000000000000000000000000006044820152606401610944565b60808201516000848152600f602052604090206002015410801561212d575060065461211890612710613b3b565b6000848152600f602052604090206002015411155b6121795760405162461bcd60e51b815260206004820152601060248201527f546f6f206d616e7920706c6179657273000000000000000000000000000000006044820152606401610944565b600061271060065484602001516121909190613b1c565b61219a9190613b3b565b905080600360008282546121ae9190613b4f565b909155505060208301516040517f23b872dd00000000000000000000000000000000000000000000000000000000815233600482015230602482015260448101919091527f00000000000000000000000000000000000000000000000000000000000000006001600160a01b0316906323b872dd906064016020604051808303816000875af1158015612245573d6000803e3d6000fd5b505050506040513d601f19601f820116820180604052508101906122699190613afa565b506000848152600f60209081526040808320600201805460018101825590845282842001805473ffffffffffffffffffffffffffffffffffffffff1916339081179091558352601090915290206122c09085613058565b50604051339085907fdd5a0e5e0c7946c099f2ed766c0b633dd2eb1e1e10743bab89f871e8038b080b90600090a350505050565b600254600090600160a01b900460ff16156123445760405162461bcd60e51b815260206004820152601060248201526f14185d5cd8589b194e881c185d5cd95960821b6044820152606401610944565b336000805b6001600160a01b038316600090815260106020526040902061236a90612fa2565b81101561241a576001600160a01b03831660009081526010602052604081206123939083612fac565b905061239f8482610cb8565b156123c3576000818152600e60205260409020600201546123c09084613b4f565b92505b6000818152600e602052604090206001015415612406576001600160a01b03841660009081526010602052604090206123fc9082612c36565b5060009150612414565b8161241081613ab6565b9250505b50612349565b5060405163a9059cbb60e01b8152336004820152602481018290527f00000000000000000000000000000000000000000000000000000000000000006001600160a01b03169063a9059cbb906044016020604051808303816000875af1158015612488573d6000803e3d6000fd5b505050506040513d601f19601f820116820180604052508101906124ac9190613afa565b5091505090565b600081815260016020526040812061082f90612fa2565b610b7a8282613064565b6002546001600160a01b0316331461252e5760405162461bcd60e51b815260206004820181905260248201527f4f776e61626c653a2063616c6c6572206973206e6f7420746865206f776e65726044820152606401610944565b6000600354116125805760405162461bcd60e51b815260206004820152601360248201527f4e6f7468696e6720746f207769746864726177000000000000000000000000006044820152606401610944565b7f00000000000000000000000000000000000000000000000000000000000000006001600160a01b031663a9059cbb6125c16002546001600160a01b031690565b6003546040516001600160e01b031960e085901b1681526001600160a01b03909216600483015260248201526044016020604051808303816000875af115801561260f573d6000803e3d6000fd5b505050506040513d601f19601f820116820180604052508101906126339190613afa565b506000600355565b7fe1dcbdb91df27212a29bc27177c840cf2f819ecf2187432e1fac86c2dd5dfca96126668133612f24565b6000600454116126b85760405162461bcd60e51b815260206004820152601360248201527f4e6f7468696e6720746f207769746864726177000000000000000000000000006044820152606401610944565b6004805460405163a9059cbb60e01b81526001600160a01b037f0000000000000000000000000000000000000000000000000000000000000000169263a9059cbb9261273a927f000000000000000000000000000000000000000000000000000000000000000092016001600160a01b03929092168252602082015260400190565b6020604051808303816000875af1158015612759573d6000803e3d6000fd5b505050506040513d601f19601f8201168201806040525081019061277d9190613afa565b50506000600455565b6040517f591c0e1c0000000000000000000000000000000000000000000000000000000081526004810182905260009081906001600160a01b037f0000000000000000000000000000000000000000000000000000000000000000169063591c0e1c90602401602060405180830381865afa158015612809573d6000803e3d6000fd5b505050506040513d601f19601f8201168201806040525081019061282d9190613b67565b6040517f05b19402000000000000000000000000000000000000000000000000000000008152600481018290529091507f00000000000000000000000000000000000000000000000000000000000000006001600160a01b0316906305b1940290602401602060405180830381865afa1580156128ae573d6000803e3d6000fd5b505050506040513d601f19601f82011682018060405250810190610dc89190613b67565b6002546001600160a01b0316331461292c5760405162461bcd60e51b815260206004820181905260248201527f4f776e61626c653a2063616c6c6572206973206e6f7420746865206f776e65726044820152606401610944565b6001600160a01b0381166129a85760405162461bcd60e51b815260206004820152602660248201527f4f776e61626c653a206e6577206f776e657220697320746865207a65726f206160448201527f64647265737300000000000000000000000000000000000000000000000000006064820152608401610944565b61135081612ec5565b600080805b6001600160a01b03841660009081526010602052604090206129d790612fa2565b811015611659576001600160a01b0384166000908152601060205260408120612a009083612fac565b9050612a0c8582610cb8565b15612a30576000818152600e6020526040902060020154612a2d9084613b4f565b92505b5080612a3b81613ab6565b9150506129b6565b612a4d828261308a565b5050565b6000610dc8836001600160a01b038416613128565b60006001600160e01b031982167f7965db0b00000000000000000000000000000000000000000000000000000000148061082f57507f01ffc9a7000000000000000000000000000000000000000000000000000000006001600160e01b031983161461082f565b600082815260208190526040902060010154612ae98133612f24565b610b6b838361308a565b6001600160a01b0381163314612b715760405162461bcd60e51b815260206004820152602f60248201527f416363657373436f6e74726f6c3a2063616e206f6e6c792072656e6f756e636560448201527f20726f6c657320666f722073656c6600000000000000000000000000000000006064820152608401610944565b612a4d8282613177565b6000610dc8836001600160a01b0384166131f6565b600254600160a01b900460ff16612be95760405162461bcd60e51b815260206004820152601460248201527f5061757361626c653a206e6f74207061757365640000000000000000000000006044820152606401610944565b6002805460ff60a01b191690557f5db9ee0a495bf2e6ff9c91a7834c1ba4fdd244a5e8aa4e537bd38aeae4b073aa335b6040516001600160a01b03909116815260200160405180910390a1565b6000610dc883836131f6565b600254600090600160a01b900460ff1615612c925760405162461bcd60e51b815260206004820152601060248201526f14185d5cd8589b194e881c185d5cd95960821b6044820152606401610944565b6000828152600e602052604090206001015415612cf15760405162461bcd60e51b815260206004820152601560248201527f47616d6520616c72656164792066696e697368656400000000000000000000006044820152606401610944565b6000828152600f60209081526040808320815160a08101835281548152600182015481850152600282018054845181870281018701865281815292959394860193830182828015612d6b57602002820191906000526020600020905b81546001600160a01b03168152600190910190602001808311612d4d575b505050505081526020016003820154815260200160048201548152505090506000612d998260000151612786565b905060008111612deb5760405162461bcd60e51b815260206004820152601360248201527f47616d65206e6f742073656564656420796574000000000000000000000000006044820152606401610944565b6000612dfb8360400151836118b9565b6000868152600e602090815260409091208251929350612e1f9290918401906134f4565b506000858152600e6020526040902060608401516001909101905b8015612eaa5781546040518291612e5e918790602001918252602082015260400190565b6040516020818303038152906040528051906020012060001c81612e8457612e84613a74565b835460018181018655600086815260209020939092069182019201919091559050612e3a565b5050506000848152600e60205260409020925050505b919050565b600280546001600160a01b0383811673ffffffffffffffffffffffffffffffffffffffff19831681179093556040519116919082907f8be0079c531659141344cd1fd0a4f28419497f9722a3daafe3b4186f6b6457e090600090a35050565b6000828152602081815260408083206001600160a01b038516845290915290205460ff16612a4d57612f60816001600160a01b031660146132e9565b612f6b8360206132e9565b604051602001612f7c929190613bb0565b60408051601f198184030181529082905262461bcd60e51b825261094491600401613c31565b600061082f825490565b6000610dc883836134ca565b600254600160a01b900460ff16156130055760405162461bcd60e51b815260206004820152601060248201526f14185d5cd8589b194e881c185d5cd95960821b6044820152606401610944565b6002805460ff60a01b1916600160a01b1790557f62e78cea01bee320cd4e420270b5ea74000d11b0c9f74754ebdbfc544b05a258612c193390565b60008181526001830160205260408120541515610dc8565b6000610dc88383613128565b6000828152602081905260409020600101546130808133612f24565b610b6b8383613177565b6000828152602081815260408083206001600160a01b038516845290915290205460ff16612a4d576000828152602081815260408083206001600160a01b03851684529091529020805460ff191660011790556130e43390565b6001600160a01b0316816001600160a01b0316837f2f8788117e7eff1d82e926ec794901d17c78024a50270940304540a733656f0d60405160405180910390a45050565b600081815260018301602052604081205461316f5750815460018181018455600084815260208082209093018490558454848252828601909352604090209190915561082f565b50600061082f565b6000828152602081815260408083206001600160a01b038516845290915290205460ff1615612a4d576000828152602081815260408083206001600160a01b0385168085529252808320805460ff1916905551339285917ff6391f5c32d9c69d2a47ea670b442974b53935d1edc7fd64eb21e047a839171b9190a45050565b600081815260018301602052604081205480156132df57600061321a600183613acf565b855490915060009061322e90600190613acf565b905081811461329357600086600001828154811061324e5761324e613a8a565b906000526020600020015490508087600001848154811061327157613271613a8a565b6000918252602080832090910192909255918252600188019052604090208390555b85548690806132a4576132a4613c64565b60019003818190600052602060002001600090559055856001016000868152602001908152602001600020600090556001935050505061082f565b600091505061082f565b606060006132f8836002613b1c565b613303906002613b4f565b67ffffffffffffffff81111561331b5761331b613645565b6040519080825280601f01601f191660200182016040528015613345576020820181803683370190505b5090507f30000000000000000000000000000000000000000000000000000000000000008160008151811061337c5761337c613a8a565b60200101906001600160f81b031916908160001a9053507f7800000000000000000000000000000000000000000000000000000000000000816001815181106133c7576133c7613a8a565b60200101906001600160f81b031916908160001a90535060006133eb846002613b1c565b6133f6906001613b4f565b90505b600181111561347b577f303132333435363738396162636465660000000000000000000000000000000085600f166010811061343757613437613a8a565b1a60f81b82828151811061344d5761344d613a8a565b60200101906001600160f81b031916908160001a90535060049490941c9361347481613c7a565b90506133f9565b508315610dc85760405162461bcd60e51b815260206004820181905260248201527f537472696e67733a20686578206c656e67746820696e73756666696369656e746044820152606401610944565b60008260000182815481106134e1576134e1613a8a565b9060005260206000200154905092915050565b828054828255906000526020600020908101928215613556579160200282015b82811115613556578251825473ffffffffffffffffffffffffffffffffffffffff19166001600160a01b03909116178255602090920191600190910190613514565b50613562929150613566565b5090565b5b808211156135625760008155600101613567565b60006020828403121561358d57600080fd5b81356001600160e01b031981168114610dc857600080fd5b6000602082840312156135b757600080fd5b5035919050565b6020808252825182820181905260009190848201906040850190845b818110156135f6578351835292840192918401916001016135da565b50909695505050505050565b80356001600160a01b0381168114612ec057600080fd5b6000806040838503121561362c57600080fd5b8235915061363c60208401613602565b90509250929050565b634e487b7160e01b600052604160045260246000fd5b6040516060810167ffffffffffffffff8111828210171561367e5761367e613645565b60405290565b604051601f8201601f1916810167ffffffffffffffff811182821017156136ad576136ad613645565b604052919050565b600067ffffffffffffffff8211156136cf576136cf613645565b5060051b60200190565b600082601f8301126136ea57600080fd5b813560206136ff6136fa836136b5565b613684565b82815260059290921b8401810191818101908684111561371e57600080fd5b8286015b848110156137405761373381613602565b8352918301918301613722565b509695505050505050565b6000602080838503121561375e57600080fd5b823567ffffffffffffffff8082111561377657600080fd5b908401906060828703121561378a57600080fd5b61379261365b565b8235828111156137a157600080fd5b6137ad888286016136d9565b82525083830135828111156137c157600080fd5b83019150601f820187136137d457600080fd5b81356137e26136fa826136b5565b81815260059190911b8301850190858101908983111561380157600080fd5b938601935b8285101561381f57843582529386019390860190613806565b8087850152505050604083013560408201528094505050505092915050565b6000806040838503121561385157600080fd5b61385a83613602565b946020939093013593505050565b600081518084526020808501945080840160005b838110156138a15781516001600160a01b03168752958201959082019060010161387c565b509495945050505050565b6000602080835283516060828501526138c86080850182613868565b85830151858203601f19016040870152805180835290840192506000918401905b8083101561390957835182529284019260019290920191908401906138e9565b50604087015160608701528094505050505092915050565b60008060006060848603121561393657600080fd5b505081359360208301359350604090920135919050565b6020815281516020820152602082015160408201526000604083015160a0606084015261397d60c0840182613868565b905060608401516080840152608084015160a08401528091505092915050565b6000602082840312156139af57600080fd5b610dc882613602565b600080604083850312156139cb57600080fd5b50508035926020909101359150565b600080604083850312156139ed57600080fd5b823567ffffffffffffffff811115613a0457600080fd5b613a10858286016136d9565b95602094909401359450505050565b602081526000610dc86020830184613868565b600080600080600060a08688031215613a4a57600080fd5b613a5386613602565b97602087013597506040870135966060810135965060800135945092505050565b634e487b7160e01b600052601260045260246000fd5b634e487b7160e01b600052603260045260246000fd5b634e487b7160e01b600052601160045260246000fd5b600060018201613ac857613ac8613aa0565b5060010190565b600082821015613ae157613ae1613aa0565b500390565b600082613af557613af5613a74565b500690565b600060208284031215613b0c57600080fd5b81518015158114610dc857600080fd5b6000816000190483118215151615613b3657613b36613aa0565b500290565b600082613b4a57613b4a613a74565b500490565b60008219821115613b6257613b62613aa0565b500190565b600060208284031215613b7957600080fd5b5051919050565b60005b83811015613b9b578181015183820152602001613b83565b83811115613baa576000848401525b50505050565b7f416363657373436f6e74726f6c3a206163636f756e7420000000000000000000815260008351613be8816017850160208801613b80565b7f206973206d697373696e6720726f6c65200000000000000000000000000000006017918401918201528351613c25816028840160208801613b80565b01602801949350505050565b6020815260008251806020840152613c50816040850160208701613b80565b601f01601f19169190910160400192915050565b634e487b7160e01b600052603160045260246000fd5b600081613c8957613c89613aa0565b50600019019056fea2646970667358221220605217b08c9463eae57bcc4dd4b8fed83498310399be9da041950ae0503e520764736f6c634300080d0033",
  "immutableReferences": {
    "1742": [
      {
        "length": 32,
        "start": 1745
      },
      {
        "length": 32,
        "start": 4121
      },
      {
        "length": 32,
        "start": 8692
      },
      {
        "length": 32,
        "start": 9271
      },
      {
        "length": 32,
        "start": 9602
      },
      {
        "length": 32,
        "start": 9939
      }
    ],
    "1745": [
      {
        "length": 32,
        "start": 1283
      },
      {
        "length": 32,
        "start": 5925
      },
      {
        "length": 32,
        "start": 8119
      },
      {
        "length": 32,
        "start": 10178
      },
      {
        "length": 32,
        "start": 10335
      }
    ],
    "1747": [
      {
        "length": 32,
        "start": 1225
      },
      {
        "length": 32,
        "start": 9984
      }
    ]
  },
  "source": "// SPDX-License-Identifier: MIT\npragma solidity ^0.8.0;\n\nimport \"@openzeppelin/contracts/interfaces/IERC20.sol\";\nimport \"@openzeppelin/contracts/access/Ownable.sol\";\nimport \"@openzeppelin/contracts/access/AccessControlEnumerable.sol\";\nimport \"@openzeppelin/contracts/utils/structs/EnumerableSet.sol\";\nimport \"@openzeppelin/contracts/security/Pausable.sol\";\nimport \"./RpSeeder.sol\";\n\n/// @title A Death Roll-inspired game for Raid Party\n/// @author xanewok.eth\n/// @notice The games uses $CFTI, the native Raid Party token\ncontract ConfettiRoll is AccessControlEnumerable, Ownable, Pausable {\n    using EnumerableSet for EnumerableSet.Bytes32Set;\n\n    IERC20 public immutable confetti;\n    RpSeeder public immutable seeder;\n    address public immutable treasury;\n    uint256 public tipAmount;\n    uint256 public treasuryAmount;\n\n    uint256 public treasuryFee = 500; // 5%\n    uint256 public betTip = 25; // 0.25%\n    uint256 constant FEE_PRECISION = 1e4;\n\n    uint256 public minBet = 1e17; // 0.1 $CFTI\n    uint256 public maxBet = 150e18; // 150 $CFTI\n    uint256 public defaultBet = 15e18; // 15 $CFTI\n\n    uint256 public minStartingRoll = 2;\n    uint256 public maxStartingRoll = 1000;\n    uint256 public defaultStartingRoll = 100;\n\n    uint256 public defaultMaxParticipants = 100;\n\n    bytes32 public constant TREASURY_ROLE = keccak256(\"TREASURY_ROLE\");\n\n    struct Game {\n        uint256 roundNum;\n        uint256 poolBet;\n        address[] participants;\n        uint256 startingRoll;\n        uint256 maxParticipants;\n    }\n\n    struct GameResult {\n        address[] players;\n        // The player who rolled last is the loser\n        uint256[] rolls;\n        uint256 prizeShare;\n    }\n\n    event PlayerLost(bytes32 indexed gameId, address indexed player);\n    event GameCreated(bytes32 indexed gameId);\n    event PlayerJoined(bytes32 indexed gameId, address indexed player);\n\n    mapping(bytes32 => GameResult) gameResults;\n    mapping(bytes32 => Game) games;\n\n    mapping(address => EnumerableSet.Bytes32Set) pendingGames;\n\n    constructor(\n        IERC20 confetti_,\n        address seeder_,\n        address treasury_\n    ) {\n        _setupRole(TREASURY_ROLE, treasury_);\n\n        seeder = RpSeeder(seeder_);\n        treasury = treasury_;\n        confetti = confetti_;\n        tipAmount = 0;\n        treasuryAmount = 0;\n    }\n\n    function setTreasuryFee(uint256 treasuryFee_)\n        public\n        onlyRole(TREASURY_ROLE)\n    {\n        require(treasuryFee_ <= 1500, \"Let the gamblers gamble in peace\");\n        treasuryFee = treasuryFee_;\n    }\n\n    function withdrawTax() public onlyRole(TREASURY_ROLE) {\n        require(treasuryAmount > 0, \"Nothing to withdraw\");\n        confetti.transfer(treasury, treasuryAmount);\n        treasuryAmount = 0;\n    }\n\n    function withdrawTip() public onlyOwner {\n        require(tipAmount > 0, \"Nothing to withdraw\");\n        confetti.transfer(owner(), tipAmount);\n        tipAmount = 0;\n    }\n\n    function setBetTip(uint256 betTip_) public onlyOwner {\n        betTip = betTip_;\n    }\n\n    function setBets(\n        uint256 min,\n        uint256 max,\n        uint256 default_\n    ) public onlyOwner {\n        minBet = min;\n        maxBet = max;\n        defaultBet = default_;\n    }\n\n    function setStartingRolls(\n        uint256 min,\n        uint256 max,\n        uint256 default_\n    ) public onlyOwner {\n        minStartingRoll = min;\n        maxStartingRoll = max;\n        defaultStartingRoll = default_;\n    }\n\n    function setDefaultMaxParticipants(uint256 value) public onlyOwner {\n        defaultMaxParticipants = value;\n    }\n\n    /// @dev We piggyback on the RaidParty batch seeder for our game round abstraction\n    function currentRound() public view returns (uint256) {\n        return seeder.getBatch();\n    }\n\n    /// @notice Return generated random words for a given game round\n    function getSeed(uint256 roundNum) public view returns (uint256) {\n        bytes32 reqId = seeder.getReqByBatch(roundNum);\n        return seeder.getRandomness(reqId);\n    }\n\n    function getGame(bytes32 gameId) public view returns (Game memory) {\n        return games[gameId];\n    }\n\n    function getGameResults(bytes32 gameId)\n        public\n        view\n        returns (GameResult memory)\n    {\n        return gameResults[gameId];\n    }\n\n    function isGameFinished(bytes32 gameId) public view returns (bool) {\n        return gameResults[gameId].rolls.length != 0;\n    }\n\n    /// @notice Given a game result, return an address of a player who lost\n    function getLoser(GameResult memory result) public pure returns (address) {\n        if (result.rolls.length == 0) {\n            return address(0x0);\n        }\n        uint256 loserIdx = (result.rolls.length - 1) % result.players.length;\n        return result.players[loserIdx];\n    }\n\n    function getRolls(bytes32 gameId) public view returns (uint256[] memory) {\n        Game memory game = games[gameId];\n        uint256 seed = getSeed(game.roundNum);\n        require(seed != 0, \"Game not seeded yet\");\n        require(game.participants.length < 2, \"Can't simulate game without at least 2 players\");\n        // NOTE: The part below is the same as `simulateGame` only with\n        // remembering the roll values (which are originally not to save gas).\n\n        // To remove any bias from the order that players registered with, make\n        // sure to shuffle them before starting the actual game\n        address[] memory players = shuffledPlayers(game.participants, seed);\n        // The upper bound for the number of rolls is the starting roll value\n        uint256[] memory rolls = new uint256[](game.startingRoll);\n\n        uint256 roll = game.startingRoll;\n        uint256 rollCount = 0;\n        while (roll > 0) {\n            // NOTE: `roll` is always in the [1, game.startingRoll - 1] range\n            // here, as we start if it's positive and we always use modulo,\n            // starting from the `game.startingRoll`\n            unchecked {\n                roll =\n                    uint256(keccak256(abi.encodePacked(rolls.length, seed))) %\n                    roll;\n                rolls[rollCount] = roll;\n                rollCount++;\n            }\n        }\n        // NOTE: This is meant to be executed as read-only function, so it's fine\n        // to copy over the results to truncate the rolls array;\n        uint256[] memory returnedRolls = new uint256[](rollCount);\n        for (uint256 i = 0; i < rollCount; i++) {\n            returnedRolls[i] = rolls[rollCount];\n        }\n        return returnedRolls;\n    }\n\n    /// @notice Returns a list of outstanding games for the player\n    function getPendingGames(address player)\n        public\n        view\n        returns (bytes32[] memory)\n    {\n        bytes32[] memory pendingGames_ = new bytes32[](\n            pendingGames[player].length()\n        );\n        for (uint256 i = 0; i < pendingGames[player].length(); i++) {\n            pendingGames_[i] = pendingGames[player].at(i);\n        }\n        return pendingGames_;\n    }\n\n    /// @notice Returns whether the player is eligible to collect a prize for a given game\n    function canCollectReward(address player, bytes32 gameId)\n        public\n        view\n        returns (bool)\n    {\n        return (isGameFinished(gameId) &&\n            getLoser(gameResults[gameId]) != player);\n    }\n\n    /// @notice Returns a total amount of claimable rewards by the player\n    function getPendingRewards(address player) public view returns (uint256) {\n        uint256 sum = 0;\n        for (uint256 i = 0; i < pendingGames[player].length(); i++) {\n            bytes32 gameId = pendingGames[player].at(i);\n            if (canCollectReward(player, gameId)) {\n                sum += gameResults[gameId].prizeShare;\n            }\n        }\n        return sum;\n    }\n\n    /// @notice Process and clear every outstanding game, collecting the rewards\n    function withdrawRewards() public whenNotPaused returns (uint256) {\n        address player = msg.sender;\n        uint256 rewards = 0;\n\n        for (uint256 i = 0; i < pendingGames[player].length(); ) {\n            bytes32 gameId = pendingGames[player].at(i);\n            if (canCollectReward(player, gameId)) {\n                rewards += gameResults[gameId].prizeShare;\n            }\n            // NOTE: This is the main function that is responsible for clearing\n            // up pending games (e.g. for UI reasons), so make sure to clear up\n            // pending *lost* games as well, even if we didn't collect a prize\n            if (isGameFinished(gameId)) {\n                pendingGames[player].remove(gameId);\n                // Deleting an element might've shifted the order of the elements\n                // and since we're deleting while iterating (a Bad Idea^TM),\n                // simply start iterating from the start to be safe\n                i = 0;\n            } else {\n                i++;\n            }\n        }\n\n        confetti.transfer(msg.sender, rewards);\n        return rewards;\n    }\n\n    /// @notice Calculates the game identifier for a given game initializer and roundNum\n    function calcGameId(address initializer, uint256 roundNum)\n        public\n        pure\n        returns (bytes32)\n    {\n        return keccak256(abi.encodePacked(initializer, roundNum));\n    }\n\n    /// @notice Returns a game identifier for the currently running, global game\n    function currentGlobalGameId() public view returns (bytes32) {\n        return calcGameId(address(this), currentRound());\n    }\n\n    // Anyone can join the game for the current round where either they are the\n    // initializer and they can set a custom bet or they can create a global\n    // game per round with a default bet amount\n    /// @notice Create a new game\n    /// @param initializer needs to be an address of the contract or the sender\n    /// @param poolBet The amount of money that the player enters with. Use 18 decimals, just like for $CFTI\n    /// @param maxParticipants The maximum number of players that can join the game\n    /// @param startingRoll The upper roll that the game begins with\n    /// @param roundNum The round when the game will be played. Must be bigger than the current round\n    function createGame(\n        address initializer,\n        uint256 poolBet,\n        uint256 startingRoll,\n        uint256 maxParticipants,\n        uint256 roundNum\n    ) public whenNotPaused returns (bytes32) {\n        if (startingRoll == 0) {\n            startingRoll = defaultStartingRoll;\n        }\n        if (poolBet == 0) {\n            poolBet = defaultBet;\n        }\n        if (maxParticipants < 2) {\n            maxParticipants = defaultMaxParticipants;\n        }\n        uint256 seed = getSeed(roundNum);\n        require(seed == 0, \"Game already seeded\");\n        require(\n            roundNum >= currentRound(),\n            \"Can't create games for past rounds\"\n        );\n        require(\n            poolBet >= minBet && poolBet <= maxBet,\n            \"Bet outside legal range\"\n        );\n        require(\n            startingRoll >= minStartingRoll && startingRoll <= maxStartingRoll,\n            \"Start roll outside legal range\"\n        );\n        // Allow for creating a custom game with the sender as initializer or\n        // a \"global\" (per round) one that needs to have default values set\n        require(\n            initializer == msg.sender ||\n                (initializer == address(this) &&\n                    poolBet == defaultBet &&\n                    startingRoll == defaultStartingRoll &&\n                    maxParticipants == defaultMaxParticipants)\n        );\n        bytes32 gameId = calcGameId(initializer, roundNum);\n        require(!isGameFinished(gameId), \"Game already finished\");\n\n        games[gameId] = Game({\n            poolBet: poolBet,\n            roundNum: roundNum,\n            startingRoll: startingRoll,\n            maxParticipants: maxParticipants,\n            participants: new address[](0)\n        });\n\n        emit GameCreated(gameId);\n        return gameId;\n    }\n\n    /// @notice Join the given game. Needs $CFTI approval as the player needs to deposit the pool bet in order to play.\n    function joinGame(bytes32 gameId) public whenNotPaused {\n        Game memory game = games[gameId];\n        require(game.startingRoll > 0, \"Game doesn't exist yet\");\n        require(!isGameFinished(gameId), \"Game already finished\");\n        // Mitigate possible front-running - close the game sign-ups about a minute\n        // before the seeder can request randomness. The RP seeder is pre-configured\n        // to require 3 block confirmations, so 60 seconds makes sense (< 3 * 14s)\n        uint256 seed = getSeed(game.roundNum);\n        require(seed == 0, \"Game already seeded\");\n        require(\n            seeder.getNextAvailableBatch() > (block.timestamp + 60),\n            \"Seed imminent; sign-up is closed\"\n        );\n        require(!pendingGames[msg.sender].contains(gameId), \"Already joined\");\n        require(\n            games[gameId].participants.length < game.maxParticipants &&\n                games[gameId].participants.length <= (FEE_PRECISION / betTip),\n            \"Too many players\"\n        );\n\n        uint256 tip = (game.poolBet * betTip) / FEE_PRECISION;\n        tipAmount += tip;\n        confetti.transferFrom(msg.sender, address(this), game.poolBet);\n\n        games[gameId].participants.push(msg.sender);\n        pendingGames[msg.sender].add(gameId);\n        emit PlayerJoined(gameId, msg.sender);\n    }\n\n    /// @notice A convenient method to join the currently running global game\n    function joinGlobalGame() public whenNotPaused returns (bytes32) {\n        bytes32 globalGameId = currentGlobalGameId();\n        // Lazily create a global game if there isn't one already\n        if (games[globalGameId].startingRoll == 0) {\n            createGame(\n                address(this),\n                defaultBet,\n                defaultStartingRoll,\n                defaultMaxParticipants,\n                currentRound()\n            );\n        }\n        joinGame(globalGameId);\n        return globalGameId;\n    }\n\n    /// @return Shuffled randomly players from the given ones, using supplied seed\n    function shuffledPlayers(address[] memory players, uint256 seed)\n        public\n        pure\n        returns (address[] memory)\n    {\n        address[] memory shuffled = players;\n\n        address temp;\n        uint256 pick;\n        for (uint256 i = 0; i < players.length; i++) {\n            // Randomly pick a value from i (incl.) till the end of the array\n            // To further increase randomness entropy, add the current player address\n            pick =\n                uint256(keccak256(abi.encodePacked(players[i], seed))) %\n                (players.length - i);\n            temp = shuffled[i];\n            // Save the randomly picked number as the i-th address in the sequence\n            shuffled[i] = shuffled[i + pick];\n            // Return the original value to the pool that we pick from\n            shuffled[i + pick] = temp;\n        }\n\n        return shuffled;\n    }\n\n    /// @dev Given an unitialized yet game, simulate the game and commit the results to the storage\n    function simulateGame(bytes32 gameId)\n        internal\n        whenNotPaused\n        returns (GameResult storage)\n    {\n        require(!isGameFinished(gameId), \"Game already finished\");\n        Game memory game = games[gameId];\n\n        uint256 seed = getSeed(game.roundNum);\n        require(seed > 0, \"Game not seeded yet\");\n        // To remove any bias from the order that players registered with, make\n        // sure to shuffle them before starting the actual game\n        address[] memory players = shuffledPlayers(game.participants, seed);\n        gameResults[gameId].players = players;\n        uint256[] storage rolls = gameResults[gameId].rolls;\n\n        uint256 roll = game.startingRoll;\n        while (roll > 0) {\n            // NOTE: `roll` is always in the [1, game.startingRoll - 1] range\n            // here, as we start if it's positive and we always use modulo,\n            // starting from the `game.startingRoll`\n            unchecked {\n                roll =\n                    uint256(keccak256(abi.encodePacked(rolls.length, seed))) %\n                    roll;\n                rolls.push(roll + 1);\n            }\n        }\n\n        return gameResults[gameId];\n    }\n\n    /// @notice Simulates a given game, assuming it's been seeded since its creation\n    function commenceGame(bytes32 gameId) public whenNotPaused {\n        Game memory game = games[gameId];\n\n        require(game.participants.length > 0, \"No players in the game\");\n        if (game.participants.length == 1) {\n            // Not much of a game if we have a single participant, return the bet\n            confetti.transfer(game.participants[0], game.poolBet);\n            pendingGames[game.participants[0]].remove(gameId);\n            return;\n        }\n\n        GameResult storage results = simulateGame(gameId);\n        require(isGameFinished(gameId), \"Game not finished after simul.\");\n\n        address loser = getLoser(results);\n        emit PlayerLost(gameId, loser);\n\n        // Tax the prize money for the treasury\n        uint256 collectedBetTip = (game.poolBet * betTip) / FEE_PRECISION;\n        uint256 payableBet = game.poolBet - collectedBetTip;\n        uint256 treasuryShare = (payableBet * treasuryFee) / FEE_PRECISION;\n        treasuryAmount += treasuryShare;\n\n        // Split the remaining prize pool among the winners; they need to collect\n        // them themselves to amortize gas cost of the game simulation\n        results.prizeShare =\n            // Original bet\n            payableBet +\n            // Taxed prize pool that's split among everyone\n            (payableBet - treasuryShare) /\n            (results.players.length - 1);\n    }\n\n    function pause() public onlyOwner {\n        _pause();\n    }\n\n    function unpause() public onlyOwner {\n        _unpause();\n    }\n}\n",
  "sourcePath": "/home/xanewok/repos/confetti-roll/contract/contracts/ConfettiRoll.sol",
  "compiler": {
    "name": "solc",
    "version": "0.8.13+commit.abaa5c0e.Emscripten.clang"
  },
  "schemaVersion": "3.4.6",
  "updatedAt": "2022-04-07T07:53:33.253Z",
  "devdoc": {
    "author": "xanewok.eth",
    "kind": "dev",
    "methods": {
      "createGame(address,uint256,uint256,uint256,uint256)": {
        "params": {
          "initializer": "needs to be an address of the contract or the sender",
          "maxParticipants": "The maximum number of players that can join the game",
          "poolBet": "The amount of money that the player enters with. Use 18 decimals, just like for $CFTI",
          "roundNum": "The round when the game will be played. Must be bigger than the current round",
          "startingRoll": "The upper roll that the game begins with"
        }
      },
      "currentRound()": {
        "details": "We piggyback on the RaidParty batch seeder for our game round abstraction"
      },
      "getRoleAdmin(bytes32)": {
        "details": "Returns the admin role that controls `role`. See {grantRole} and {revokeRole}. To change a role's admin, use {_setRoleAdmin}."
      },
      "getRoleMember(bytes32,uint256)": {
        "details": "Returns one of the accounts that have `role`. `index` must be a value between 0 and {getRoleMemberCount}, non-inclusive. Role bearers are not sorted in any particular way, and their ordering may change at any point. WARNING: When using {getRoleMember} and {getRoleMemberCount}, make sure you perform all queries on the same block. See the following https://forum.openzeppelin.com/t/iterating-over-elements-on-enumerableset-in-openzeppelin-contracts/2296[forum post] for more information."
      },
      "getRoleMemberCount(bytes32)": {
        "details": "Returns the number of accounts that have `role`. Can be used together with {getRoleMember} to enumerate all bearers of a role."
      },
      "grantRole(bytes32,address)": {
        "details": "Overload {grantRole} to track enumerable memberships"
      },
      "hasRole(bytes32,address)": {
        "details": "Returns `true` if `account` has been granted `role`."
      },
      "owner()": {
        "details": "Returns the address of the current owner."
      },
      "paused()": {
        "details": "Returns true if the contract is paused, and false otherwise."
      },
      "renounceOwnership()": {
        "details": "Leaves the contract without owner. It will not be possible to call `onlyOwner` functions anymore. Can only be called by the current owner. NOTE: Renouncing ownership will leave the contract without an owner, thereby removing any functionality that is only available to the owner."
      },
      "renounceRole(bytes32,address)": {
        "details": "Overload {renounceRole} to track enumerable memberships"
      },
      "revokeRole(bytes32,address)": {
        "details": "Overload {revokeRole} to track enumerable memberships"
      },
      "shuffledPlayers(address[],uint256)": {
        "returns": {
          "_0": "Shuffled randomly players from the given ones, using supplied seed"
        }
      },
      "supportsInterface(bytes4)": {
        "details": "See {IERC165-supportsInterface}."
      },
      "transferOwnership(address)": {
        "details": "Transfers ownership of the contract to a new account (`newOwner`). Can only be called by the current owner."
      }
    },
    "title": "A Death Roll-inspired game for Raid Party",
    "version": 1
  },
  "userdoc": {
    "kind": "user",
    "methods": {
      "calcGameId(address,uint256)": {
        "notice": "Calculates the game identifier for a given game initializer and roundNum"
      },
      "canCollectReward(address,bytes32)": {
        "notice": "Returns whether the player is eligible to collect a prize for a given game"
      },
      "commenceGame(bytes32)": {
        "notice": "Simulates a given game, assuming it's been seeded since its creation"
      },
      "createGame(address,uint256,uint256,uint256,uint256)": {
        "notice": "Create a new game"
      },
      "currentGlobalGameId()": {
        "notice": "Returns a game identifier for the currently running, global game"
      },
      "getLoser((address[],uint256[],uint256))": {
        "notice": "Given a game result, return an address of a player who lost"
      },
      "getPendingGames(address)": {
        "notice": "Returns a list of outstanding games for the player"
      },
      "getPendingRewards(address)": {
        "notice": "Returns a total amount of claimable rewards by the player"
      },
      "getSeed(uint256)": {
        "notice": "Return generated random words for a given game round"
      },
      "joinGame(bytes32)": {
        "notice": "Join the given game. Needs $CFTI approval as the player needs to deposit the pool bet in order to play."
      },
      "joinGlobalGame()": {
        "notice": "A convenient method to join the currently running global game"
      },
      "withdrawRewards()": {
        "notice": "Process and clear every outstanding game, collecting the rewards"
      }
    },
    "notice": "The games uses $CFTI, the native Raid Party token",
    "version": 1
  }
}