{
  "contractName": "ConfettiRoll",
  "abi": [
    {
      "inputs": [
        {
          "internalType": "contract IERC20",
          "name": "confetti_",
          "type": "address"
        },
        {
          "internalType": "address",
          "name": "seeder_",
          "type": "address"
        },
        {
          "internalType": "address",
          "name": "treasury_",
          "type": "address"
        }
      ],
      "stateMutability": "nonpayable",
      "type": "constructor"
    },
    {
      "anonymous": false,
      "inputs": [
        {
          "indexed": true,
          "internalType": "bytes32",
          "name": "gameId",
          "type": "bytes32"
        }
      ],
      "name": "GameCreated",
      "type": "event"
    },
    {
      "anonymous": false,
      "inputs": [
        {
          "indexed": true,
          "internalType": "address",
          "name": "previousOwner",
          "type": "address"
        },
        {
          "indexed": true,
          "internalType": "address",
          "name": "newOwner",
          "type": "address"
        }
      ],
      "name": "OwnershipTransferred",
      "type": "event"
    },
    {
      "anonymous": false,
      "inputs": [
        {
          "indexed": false,
          "internalType": "address",
          "name": "account",
          "type": "address"
        }
      ],
      "name": "Paused",
      "type": "event"
    },
    {
      "anonymous": false,
      "inputs": [
        {
          "indexed": true,
          "internalType": "bytes32",
          "name": "gameId",
          "type": "bytes32"
        },
        {
          "indexed": true,
          "internalType": "address",
          "name": "player",
          "type": "address"
        }
      ],
      "name": "PlayerJoined",
      "type": "event"
    },
    {
      "anonymous": false,
      "inputs": [
        {
          "indexed": true,
          "internalType": "bytes32",
          "name": "gameId",
          "type": "bytes32"
        },
        {
          "indexed": true,
          "internalType": "address",
          "name": "player",
          "type": "address"
        }
      ],
      "name": "PlayerLost",
      "type": "event"
    },
    {
      "anonymous": false,
      "inputs": [
        {
          "indexed": true,
          "internalType": "bytes32",
          "name": "role",
          "type": "bytes32"
        },
        {
          "indexed": true,
          "internalType": "bytes32",
          "name": "previousAdminRole",
          "type": "bytes32"
        },
        {
          "indexed": true,
          "internalType": "bytes32",
          "name": "newAdminRole",
          "type": "bytes32"
        }
      ],
      "name": "RoleAdminChanged",
      "type": "event"
    },
    {
      "anonymous": false,
      "inputs": [
        {
          "indexed": true,
          "internalType": "bytes32",
          "name": "role",
          "type": "bytes32"
        },
        {
          "indexed": true,
          "internalType": "address",
          "name": "account",
          "type": "address"
        },
        {
          "indexed": true,
          "internalType": "address",
          "name": "sender",
          "type": "address"
        }
      ],
      "name": "RoleGranted",
      "type": "event"
    },
    {
      "anonymous": false,
      "inputs": [
        {
          "indexed": true,
          "internalType": "bytes32",
          "name": "role",
          "type": "bytes32"
        },
        {
          "indexed": true,
          "internalType": "address",
          "name": "account",
          "type": "address"
        },
        {
          "indexed": true,
          "internalType": "address",
          "name": "sender",
          "type": "address"
        }
      ],
      "name": "RoleRevoked",
      "type": "event"
    },
    {
      "anonymous": false,
      "inputs": [
        {
          "indexed": false,
          "internalType": "address",
          "name": "account",
          "type": "address"
        }
      ],
      "name": "Unpaused",
      "type": "event"
    },
    {
      "inputs": [],
      "name": "DEFAULT_ADMIN_ROLE",
      "outputs": [
        {
          "internalType": "bytes32",
          "name": "",
          "type": "bytes32"
        }
      ],
      "stateMutability": "view",
      "type": "function",
      "constant": true
    },
    {
      "inputs": [],
      "name": "TREASURY_ROLE",
      "outputs": [
        {
          "internalType": "bytes32",
          "name": "",
          "type": "bytes32"
        }
      ],
      "stateMutability": "view",
      "type": "function",
      "constant": true
    },
    {
      "inputs": [],
      "name": "betTip",
      "outputs": [
        {
          "internalType": "uint256",
          "name": "",
          "type": "uint256"
        }
      ],
      "stateMutability": "view",
      "type": "function",
      "constant": true
    },
    {
      "inputs": [],
      "name": "confetti",
      "outputs": [
        {
          "internalType": "contract IERC20",
          "name": "",
          "type": "address"
        }
      ],
      "stateMutability": "view",
      "type": "function",
      "constant": true
    },
    {
      "inputs": [],
      "name": "defaultBet",
      "outputs": [
        {
          "internalType": "uint256",
          "name": "",
          "type": "uint256"
        }
      ],
      "stateMutability": "view",
      "type": "function",
      "constant": true
    },
    {
      "inputs": [],
      "name": "defaultMaxParticipants",
      "outputs": [
        {
          "internalType": "uint256",
          "name": "",
          "type": "uint256"
        }
      ],
      "stateMutability": "view",
      "type": "function",
      "constant": true
    },
    {
      "inputs": [],
      "name": "defaultStartingRoll",
      "outputs": [
        {
          "internalType": "uint256",
          "name": "",
          "type": "uint256"
        }
      ],
      "stateMutability": "view",
      "type": "function",
      "constant": true
    },
    {
      "inputs": [
        {
          "internalType": "bytes32",
          "name": "role",
          "type": "bytes32"
        }
      ],
      "name": "getRoleAdmin",
      "outputs": [
        {
          "internalType": "bytes32",
          "name": "",
          "type": "bytes32"
        }
      ],
      "stateMutability": "view",
      "type": "function",
      "constant": true
    },
    {
      "inputs": [
        {
          "internalType": "bytes32",
          "name": "role",
          "type": "bytes32"
        },
        {
          "internalType": "uint256",
          "name": "index",
          "type": "uint256"
        }
      ],
      "name": "getRoleMember",
      "outputs": [
        {
          "internalType": "address",
          "name": "",
          "type": "address"
        }
      ],
      "stateMutability": "view",
      "type": "function",
      "constant": true
    },
    {
      "inputs": [
        {
          "internalType": "bytes32",
          "name": "role",
          "type": "bytes32"
        }
      ],
      "name": "getRoleMemberCount",
      "outputs": [
        {
          "internalType": "uint256",
          "name": "",
          "type": "uint256"
        }
      ],
      "stateMutability": "view",
      "type": "function",
      "constant": true
    },
    {
      "inputs": [
        {
          "internalType": "bytes32",
          "name": "role",
          "type": "bytes32"
        },
        {
          "internalType": "address",
          "name": "account",
          "type": "address"
        }
      ],
      "name": "grantRole",
      "outputs": [],
      "stateMutability": "nonpayable",
      "type": "function"
    },
    {
      "inputs": [
        {
          "internalType": "bytes32",
          "name": "role",
          "type": "bytes32"
        },
        {
          "internalType": "address",
          "name": "account",
          "type": "address"
        }
      ],
      "name": "hasRole",
      "outputs": [
        {
          "internalType": "bool",
          "name": "",
          "type": "bool"
        }
      ],
      "stateMutability": "view",
      "type": "function",
      "constant": true
    },
    {
      "inputs": [],
      "name": "maxBet",
      "outputs": [
        {
          "internalType": "uint256",
          "name": "",
          "type": "uint256"
        }
      ],
      "stateMutability": "view",
      "type": "function",
      "constant": true
    },
    {
      "inputs": [],
      "name": "maxStartingRoll",
      "outputs": [
        {
          "internalType": "uint256",
          "name": "",
          "type": "uint256"
        }
      ],
      "stateMutability": "view",
      "type": "function",
      "constant": true
    },
    {
      "inputs": [],
      "name": "minBet",
      "outputs": [
        {
          "internalType": "uint256",
          "name": "",
          "type": "uint256"
        }
      ],
      "stateMutability": "view",
      "type": "function",
      "constant": true
    },
    {
      "inputs": [],
      "name": "minStartingRoll",
      "outputs": [
        {
          "internalType": "uint256",
          "name": "",
          "type": "uint256"
        }
      ],
      "stateMutability": "view",
      "type": "function",
      "constant": true
    },
    {
      "inputs": [],
      "name": "owner",
      "outputs": [
        {
          "internalType": "address",
          "name": "",
          "type": "address"
        }
      ],
      "stateMutability": "view",
      "type": "function",
      "constant": true
    },
    {
      "inputs": [],
      "name": "paused",
      "outputs": [
        {
          "internalType": "bool",
          "name": "",
          "type": "bool"
        }
      ],
      "stateMutability": "view",
      "type": "function",
      "constant": true
    },
    {
      "inputs": [],
      "name": "renounceOwnership",
      "outputs": [],
      "stateMutability": "nonpayable",
      "type": "function"
    },
    {
      "inputs": [
        {
          "internalType": "bytes32",
          "name": "role",
          "type": "bytes32"
        },
        {
          "internalType": "address",
          "name": "account",
          "type": "address"
        }
      ],
      "name": "renounceRole",
      "outputs": [],
      "stateMutability": "nonpayable",
      "type": "function"
    },
    {
      "inputs": [
        {
          "internalType": "bytes32",
          "name": "role",
          "type": "bytes32"
        },
        {
          "internalType": "address",
          "name": "account",
          "type": "address"
        }
      ],
      "name": "revokeRole",
      "outputs": [],
      "stateMutability": "nonpayable",
      "type": "function"
    },
    {
      "inputs": [],
      "name": "seeder",
      "outputs": [
        {
          "internalType": "contract RpSeeder",
          "name": "",
          "type": "address"
        }
      ],
      "stateMutability": "view",
      "type": "function",
      "constant": true
    },
    {
      "inputs": [
        {
          "internalType": "bytes4",
          "name": "interfaceId",
          "type": "bytes4"
        }
      ],
      "name": "supportsInterface",
      "outputs": [
        {
          "internalType": "bool",
          "name": "",
          "type": "bool"
        }
      ],
      "stateMutability": "view",
      "type": "function",
      "constant": true
    },
    {
      "inputs": [],
      "name": "tipAmount",
      "outputs": [
        {
          "internalType": "uint256",
          "name": "",
          "type": "uint256"
        }
      ],
      "stateMutability": "view",
      "type": "function",
      "constant": true
    },
    {
      "inputs": [
        {
          "internalType": "address",
          "name": "newOwner",
          "type": "address"
        }
      ],
      "name": "transferOwnership",
      "outputs": [],
      "stateMutability": "nonpayable",
      "type": "function"
    },
    {
      "inputs": [],
      "name": "treasury",
      "outputs": [
        {
          "internalType": "address",
          "name": "",
          "type": "address"
        }
      ],
      "stateMutability": "view",
      "type": "function",
      "constant": true
    },
    {
      "inputs": [],
      "name": "treasuryAmount",
      "outputs": [
        {
          "internalType": "uint256",
          "name": "",
          "type": "uint256"
        }
      ],
      "stateMutability": "view",
      "type": "function",
      "constant": true
    },
    {
      "inputs": [],
      "name": "treasuryFee",
      "outputs": [
        {
          "internalType": "uint256",
          "name": "",
          "type": "uint256"
        }
      ],
      "stateMutability": "view",
      "type": "function",
      "constant": true
    },
    {
      "inputs": [
        {
          "internalType": "uint256",
          "name": "treasuryFee_",
          "type": "uint256"
        }
      ],
      "name": "setTreasuryFee",
      "outputs": [],
      "stateMutability": "nonpayable",
      "type": "function"
    },
    {
      "inputs": [],
      "name": "withdrawTax",
      "outputs": [],
      "stateMutability": "nonpayable",
      "type": "function"
    },
    {
      "inputs": [],
      "name": "withdrawTip",
      "outputs": [],
      "stateMutability": "nonpayable",
      "type": "function"
    },
    {
      "inputs": [
        {
          "internalType": "uint256",
          "name": "betTip_",
          "type": "uint256"
        }
      ],
      "name": "setBetTip",
      "outputs": [],
      "stateMutability": "nonpayable",
      "type": "function"
    },
    {
      "inputs": [
        {
          "internalType": "uint256",
          "name": "min",
          "type": "uint256"
        },
        {
          "internalType": "uint256",
          "name": "max",
          "type": "uint256"
        },
        {
          "internalType": "uint256",
          "name": "default_",
          "type": "uint256"
        }
      ],
      "name": "setBets",
      "outputs": [],
      "stateMutability": "nonpayable",
      "type": "function"
    },
    {
      "inputs": [
        {
          "internalType": "uint256",
          "name": "min",
          "type": "uint256"
        },
        {
          "internalType": "uint256",
          "name": "max",
          "type": "uint256"
        },
        {
          "internalType": "uint256",
          "name": "default_",
          "type": "uint256"
        }
      ],
      "name": "setStartingRolls",
      "outputs": [],
      "stateMutability": "nonpayable",
      "type": "function"
    },
    {
      "inputs": [
        {
          "internalType": "uint256",
          "name": "value",
          "type": "uint256"
        }
      ],
      "name": "setDefaultMaxParticipants",
      "outputs": [],
      "stateMutability": "nonpayable",
      "type": "function"
    },
    {
      "inputs": [],
      "name": "currentRound",
      "outputs": [
        {
          "internalType": "uint256",
          "name": "",
          "type": "uint256"
        }
      ],
      "stateMutability": "view",
      "type": "function",
      "constant": true
    },
    {
      "inputs": [
        {
          "internalType": "uint256",
          "name": "roundNum",
          "type": "uint256"
        }
      ],
      "name": "getSeed",
      "outputs": [
        {
          "internalType": "uint256",
          "name": "",
          "type": "uint256"
        }
      ],
      "stateMutability": "view",
      "type": "function",
      "constant": true
    },
    {
      "inputs": [
        {
          "internalType": "bytes32",
          "name": "gameId",
          "type": "bytes32"
        }
      ],
      "name": "getGame",
      "outputs": [
        {
          "components": [
            {
              "internalType": "uint256",
              "name": "roundNum",
              "type": "uint256"
            },
            {
              "internalType": "uint256",
              "name": "poolBet",
              "type": "uint256"
            },
            {
              "internalType": "address[]",
              "name": "participants",
              "type": "address[]"
            },
            {
              "internalType": "uint256",
              "name": "startingRoll",
              "type": "uint256"
            },
            {
              "internalType": "uint256",
              "name": "maxParticipants",
              "type": "uint256"
            }
          ],
          "internalType": "struct ConfettiRoll.Game",
          "name": "",
          "type": "tuple"
        }
      ],
      "stateMutability": "view",
      "type": "function",
      "constant": true
    },
    {
      "inputs": [
        {
          "internalType": "bytes32",
          "name": "gameId",
          "type": "bytes32"
        }
      ],
      "name": "getGameResults",
      "outputs": [
        {
          "components": [
            {
              "internalType": "uint256",
              "name": "finalizedSeed",
              "type": "uint256"
            },
            {
              "internalType": "uint256",
              "name": "prizeShare",
              "type": "uint256"
            },
            {
              "internalType": "address",
              "name": "loser",
              "type": "address"
            }
          ],
          "internalType": "struct ConfettiRoll.GameResult",
          "name": "",
          "type": "tuple"
        }
      ],
      "stateMutability": "view",
      "type": "function",
      "constant": true
    },
    {
      "inputs": [
        {
          "internalType": "bytes32",
          "name": "gameId",
          "type": "bytes32"
        }
      ],
      "name": "isGameFinished",
      "outputs": [
        {
          "internalType": "bool",
          "name": "",
          "type": "bool"
        }
      ],
      "stateMutability": "view",
      "type": "function",
      "constant": true
    },
    {
      "inputs": [
        {
          "internalType": "bytes32",
          "name": "gameId",
          "type": "bytes32"
        }
      ],
      "name": "getRollingPlayers",
      "outputs": [
        {
          "internalType": "address[]",
          "name": "",
          "type": "address[]"
        }
      ],
      "stateMutability": "view",
      "type": "function",
      "constant": true
    },
    {
      "inputs": [
        {
          "internalType": "bytes32",
          "name": "gameId",
          "type": "bytes32"
        }
      ],
      "name": "getRolls",
      "outputs": [
        {
          "internalType": "uint256[]",
          "name": "",
          "type": "uint256[]"
        }
      ],
      "stateMutability": "view",
      "type": "function",
      "constant": true
    },
    {
      "inputs": [
        {
          "internalType": "address",
          "name": "player",
          "type": "address"
        }
      ],
      "name": "getPendingGames",
      "outputs": [
        {
          "internalType": "bytes32[]",
          "name": "",
          "type": "bytes32[]"
        }
      ],
      "stateMutability": "view",
      "type": "function",
      "constant": true
    },
    {
      "inputs": [
        {
          "internalType": "address",
          "name": "player",
          "type": "address"
        },
        {
          "internalType": "bytes32",
          "name": "gameId",
          "type": "bytes32"
        }
      ],
      "name": "canCollectReward",
      "outputs": [
        {
          "internalType": "bool",
          "name": "",
          "type": "bool"
        }
      ],
      "stateMutability": "view",
      "type": "function",
      "constant": true
    },
    {
      "inputs": [
        {
          "internalType": "address",
          "name": "player",
          "type": "address"
        }
      ],
      "name": "getPendingRewards",
      "outputs": [
        {
          "internalType": "uint256",
          "name": "",
          "type": "uint256"
        }
      ],
      "stateMutability": "view",
      "type": "function",
      "constant": true
    },
    {
      "inputs": [],
      "name": "withdrawRewards",
      "outputs": [
        {
          "internalType": "uint256",
          "name": "",
          "type": "uint256"
        }
      ],
      "stateMutability": "nonpayable",
      "type": "function"
    },
    {
      "inputs": [
        {
          "internalType": "address",
          "name": "initializer",
          "type": "address"
        },
        {
          "internalType": "uint256",
          "name": "roundNum",
          "type": "uint256"
        }
      ],
      "name": "calcGameId",
      "outputs": [
        {
          "internalType": "bytes32",
          "name": "",
          "type": "bytes32"
        }
      ],
      "stateMutability": "pure",
      "type": "function",
      "constant": true
    },
    {
      "inputs": [],
      "name": "currentGlobalGameId",
      "outputs": [
        {
          "internalType": "bytes32",
          "name": "",
          "type": "bytes32"
        }
      ],
      "stateMutability": "view",
      "type": "function",
      "constant": true
    },
    {
      "inputs": [
        {
          "internalType": "address",
          "name": "initializer",
          "type": "address"
        },
        {
          "internalType": "uint256",
          "name": "poolBet",
          "type": "uint256"
        },
        {
          "internalType": "uint256",
          "name": "startingRoll",
          "type": "uint256"
        },
        {
          "internalType": "uint256",
          "name": "maxParticipants",
          "type": "uint256"
        },
        {
          "internalType": "uint256",
          "name": "roundNum",
          "type": "uint256"
        }
      ],
      "name": "createGame",
      "outputs": [
        {
          "internalType": "bytes32",
          "name": "",
          "type": "bytes32"
        }
      ],
      "stateMutability": "nonpayable",
      "type": "function"
    },
    {
      "inputs": [
        {
          "internalType": "bytes32",
          "name": "gameId",
          "type": "bytes32"
        }
      ],
      "name": "joinGame",
      "outputs": [],
      "stateMutability": "nonpayable",
      "type": "function"
    },
    {
      "inputs": [],
      "name": "joinGlobalGame",
      "outputs": [
        {
          "internalType": "bytes32",
          "name": "",
          "type": "bytes32"
        }
      ],
      "stateMutability": "nonpayable",
      "type": "function"
    },
    {
      "inputs": [
        {
          "internalType": "address[]",
          "name": "players",
          "type": "address[]"
        },
        {
          "internalType": "uint256",
          "name": "seed",
          "type": "uint256"
        }
      ],
      "name": "shuffledPlayers",
      "outputs": [
        {
          "internalType": "address[]",
          "name": "",
          "type": "address[]"
        }
      ],
      "stateMutability": "pure",
      "type": "function",
      "constant": true
    },
    {
      "inputs": [
        {
          "internalType": "bytes32",
          "name": "gameId",
          "type": "bytes32"
        }
      ],
      "name": "commenceGame",
      "outputs": [],
      "stateMutability": "nonpayable",
      "type": "function"
    },
    {
      "inputs": [],
      "name": "pause",
      "outputs": [],
      "stateMutability": "nonpayable",
      "type": "function"
    },
    {
      "inputs": [],
      "name": "unpause",
      "outputs": [],
      "stateMutability": "nonpayable",
      "type": "function"
    }
  ],
  "bytecode": "0x60e06040526101f4600555603260065567016345785d8a0000600755680821ab0d441498000060085567d02ab486cedc00006009556002600a556103e8600b556064600c556064600d553480156200005657600080fd5b5060405162003e5d38038062003e5d8339810160408190526200007991620002b4565b6200008433620000e4565b6002805460ff60a01b19169055620000bd7fe1dcbdb91df27212a29bc27177c840cf2f819ecf2187432e1fac86c2dd5dfca98262000136565b6001600160a01b0391821660a052811660c052166080526000600381905560045562000308565b600280546001600160a01b038381166001600160a01b0319831681179093556040519116919082907f8be0079c531659141344cd1fd0a4f28419497f9722a3daafe3b4186f6b6457e090600090a35050565b6200014d82826200017960201b620029981760201c565b600082815260016020908152604090912062000174918390620029a662000189821b17901c565b505050565b620001858282620001a9565b5050565b6000620001a0836001600160a01b03841662000249565b90505b92915050565b6000828152602081815260408083206001600160a01b038516845290915290205460ff1662000185576000828152602081815260408083206001600160a01b03851684529091529020805460ff19166001179055620002053390565b6001600160a01b0316816001600160a01b0316837f2f8788117e7eff1d82e926ec794901d17c78024a50270940304540a733656f0d60405160405180910390a45050565b60008181526001830160205260408120546200029257508154600181810184556000848152602080822090930184905584548482528286019093526040902091909155620001a3565b506000620001a3565b6001600160a01b0381168114620002b157600080fd5b50565b600080600060608486031215620002ca57600080fd5b8351620002d7816200029b565b6020850151909350620002ea816200029b565b6040850151909250620002fd816200029b565b809150509250925092565b60805160a05160c051613adf6200037e600039600081816104c701526126550152600081816105190152818161165f01528181611f030152818161271701526127b401526000818161070501528181610fb9015281816121400152818161238c015281816124d701526126280152613adf6000f3fe608060405234801561001057600080fd5b506004361061036d5760003560e01c806377e741c7116101d35780639f20829d11610104578063d11a57ec116100a2578063dfa20f0a1161007c578063dfa20f0a146107d7578063e0d4ea37146107df578063f2fde38b146107f2578063f6ed20171461080557600080fd5b8063d11a57ec14610795578063d547741f146107bc578063d9801146146107cf57600080fd5b8063bf474766116100de578063bf4747661461075e578063c7b8981c14610771578063ca15c87314610779578063cc32d1761461078c57600080fd5b80639f20829d14610730578063a217fddf14610743578063b5ed7f7c1461074b57600080fd5b80639010d07c1161017157806397bebf9d1161014b57806397bebf9d146106e457806399b7e5d7146106ed5780639e609005146107005780639e9ed8211461072757600080fd5b80639010d07c1461069157806391d14854146106a45780639619367d146106db57600080fd5b80638456cb59116101ad5780638456cb59146106685780638a19c8bc146106705780638da5cb5b146106785780638f4689881461068957600080fd5b806377e741c71461062f5780637aa8977f1461064257806382f4aeb11461065557600080fd5b806342dc6b8b116102ad57806368f46b621161024b5780636ea69b22116102255780636ea69b221461059f578063715018a6146105b257806373931bbf146105ba5780637559b881146105da57600080fd5b806368f46b621461053b5780636d6b0eb31461054e5780636e8539251461058c57600080fd5b8063608ac8d511610287578063608ac8d5146104b957806361d027b3146104c257806364d1845314610501578063684931ed1461051457600080fd5b806342dc6b8b1461047e5780635a744c4d146104875780635c975abb146104a757600080fd5b80632c0c4af91161031a578063345d9a8d116102f4578063345d9a8d1461045157806336568abe1461045a578063368acb091461046d5780633f4ba83a1461047657600080fd5b80632c0c4af9146104135780632e5b2168146104335780632f2ff15d1461043c57600080fd5b8063248a9ca31161034b578063248a9ca3146103ba57806328119fb8146103dd5780632ad9bf951461040b57600080fd5b806301b654961461037257806301ffc9a71461038e578063230669e5146103b1575b600080fd5b61037b600b5481565b6040519081526020015b60405180910390f35b6103a161039c366004613544565b610818565b6040519015158152602001610385565b61037b600a5481565b61037b6103c836600461356e565b60009081526020819052604090206001015490565b6103a16103eb36600461356e565b6000908152600e60205260409020600201546001600160a01b0316151590565b61037b61085c565b61042661042136600461356e565b61086f565b6040516103859190613587565b61037b60085481565b61044f61044a3660046135e2565b610b3b565b005b61037b600c5481565b61044f6104683660046135e2565b610b62565b61037b60045481565b61044f610b84565b61037b60065481565b61049a61049536600461356e565b610be8565b604051610385919061360e565b600254600160a01b900460ff166103a1565b61037b60035481565b6104e97f000000000000000000000000000000000000000000000000000000000000000081565b6040516001600160a01b039091168152602001610385565b61044f61050f36600461356e565b610d54565b6104e97f000000000000000000000000000000000000000000000000000000000000000081565b6103a161054936600461364f565b610db3565b61056161055c36600461356e565b610e00565b604080518251815260208084015190820152918101516001600160a01b031690820152606001610385565b61044f61059a36600461356e565b610e6f565b61044f6105ad366004613679565b61128d565b61044f6112f5565b6105cd6105c836600461356e565b611359565b60405161038591906136a5565b61037b6105e836600461364f565b6040516bffffffffffffffffffffffff19606084901b1660208201526034810182905260009060540160405160208183030381529060405280519060200120905092915050565b61044f61063d36600461356e565b61142b565b61042661065036600461372c565b6114ae565b61044f61066336600461356e565b61159a565b61044f6115f9565b61037b61165b565b6002546001600160a01b03166104e9565b61037b6116df565b6104e961069f366004613747565b611773565b6103a16106b23660046135e2565b6000918252602082815260408084206001600160a01b0393909316845291905290205460ff1690565b61037b60075481565b61037b60095481565b61044f6106fb366004613679565b61178b565b6104e97f000000000000000000000000000000000000000000000000000000000000000081565b61037b600d5481565b61049a61073e36600461377f565b6117f3565b61037b600081565b61037b61075936600461384a565b61193b565b61044f61076c36600461356e565b611cf5565b61037b612240565b61037b61078736600461356e565b612408565b61037b60055481565b61037b7fe1dcbdb91df27212a29bc27177c840cf2f819ecf2187432e1fac86c2dd5dfca981565b61044f6107ca3660046135e2565b61241f565b61044f612429565b61044f612590565b61037b6107ed36600461356e565b6126db565b61044f61080036600461372c565b612827565b61037b61081336600461372c565b612906565b60006001600160e01b031982167f5a05180f0000000000000000000000000000000000000000000000000000000014806108565750610856826129bb565b92915050565b600061086a306105e861165b565b905090565b6000818152600f60209081526040808320815160a081018352815481526001820154818501526002820180548451818702810187018652818152606097969395860193909291908301828280156108ef57602002820191906000526020600020905b81546001600160a01b031681526001909101906020018083116108d1575b50505050508152602001600382015481526020016004820154815250509050600061091d82600001516126db565b9050600081116109745760405162461bcd60e51b815260206004820152601360248201527f47616d65206e6f7420736565646564207965740000000000000000000000000060448201526064015b60405180910390fd5b600282604001515110156109ca5760405162461bcd60e51b815260206004820152601760248201527f4e656564206174206c65617374203220706c6179657273000000000000000000604482015260640161096b565b6000826060015167ffffffffffffffff8111156109e9576109e9613769565b604051908082528060200260200182016040528015610a12578160200160208202803683370190505b50606084015190915060005b8115610a935760408051602080820184905281830187905282518083038401815260609092019092528051910120610a579083906138a2565b9150610a648260016138cc565b838281518110610a7657610a766138e4565b602090810291909101015280610a8b816138fa565b915050610a1e565b60008167ffffffffffffffff811115610aae57610aae613769565b604051908082528060200260200182016040528015610ad7578160200160208202803683370190505b50905060005b8151811015610b2f57848181518110610af857610af86138e4565b6020026020010151828281518110610b1257610b126138e4565b602090810291909101015280610b27816138fa565b915050610add565b50979650505050505050565b610b458282612a22565b6000828152600160205260409020610b5d90826129a6565b505050565b610b6c8282612a48565b6000828152600160205260409020610b5d9082612ad0565b6002546001600160a01b03163314610bde5760405162461bcd60e51b815260206004820181905260248201527f4f776e61626c653a2063616c6c6572206973206e6f7420746865206f776e6572604482015260640161096b565b610be6612ae5565b565b6000818152600f60209081526040808320815160a08101835281548152600182015481850152600282018054845181870281018701865281815260609796939586019390929190830182828015610c6857602002820191906000526020600020905b81546001600160a01b03168152600190910190602001808311610c4a575b505050505081526020016003820154815260200160048201548152505090506000610c9682600001516126db565b905060008111610ce85760405162461bcd60e51b815260206004820152601360248201527f47616d65206e6f74207365656465642079657400000000000000000000000000604482015260640161096b565b60028260400151511015610d3e5760405162461bcd60e51b815260206004820152601760248201527f4e656564206174206c65617374203220706c6179657273000000000000000000604482015260640161096b565b610d4c8260400151826117f3565b949350505050565b6002546001600160a01b03163314610dae5760405162461bcd60e51b815260206004820181905260248201527f4f776e61626c653a2063616c6c6572206973206e6f7420746865206f776e6572604482015260640161096b565b600d55565b6000818152600e60205260408120600201546001600160a01b031615158015610df957506000828152600e60205260409020600201546001600160a01b03848116911614155b9392505050565b610e2d6040518060600160405280600081526020016000815260200160006001600160a01b031681525090565b506000908152600e6020908152604091829020825160608101845281548152600182015492810192909252600201546001600160a01b03169181019190915290565b600254600160a01b900460ff1615610ebc5760405162461bcd60e51b815260206004820152601060248201526f14185d5cd8589b194e881c185d5cd95960821b604482015260640161096b565b6000818152600f60209081526040808320815160a08101835281548152600182015481850152600282018054845181870281018701865281815292959394860193830182828015610f3657602002820191906000526020600020905b81546001600160a01b03168152600190910190602001808311610f18575b50505050508152602001600382015481526020016004820154815250509050600081604001515111610faa5760405162461bcd60e51b815260206004820152601660248201527f4e6f20706c617965727320696e207468652067616d6500000000000000000000604482015260640161096b565b8060400151516001036110d4577f00000000000000000000000000000000000000000000000000000000000000006001600160a01b031663a9059cbb8260400151600081518110610ffd57610ffd6138e4565b602002602001015183602001516040518363ffffffff1660e01b815260040161103b9291906001600160a01b03929092168252602082015260400190565b6020604051808303816000875af115801561105a573d6000803e3d6000fd5b505050506040513d601f19601f8201168201806040525081019061107e9190613913565b50610b5d8260106000846040015160008151811061109e5761109e6138e4565b60200260200101516001600160a01b03166001600160a01b03168152602001908152602001600020612b8b90919063ffffffff16565b60006110df83612b97565b6000848152600e60205260409020600201549091506001600160a01b03166111495760405162461bcd60e51b815260206004820152601e60248201527f47616d65206e6f742066696e69736865642061667465722073696d756c2e0000604482015260640161096b565b60028101546001600160a01b03166111a35760405162461bcd60e51b815260206004820152601a60248201527f46696e69736865642067616d6520686173206e6f206c6f736572000000000000604482015260640161096b565b60028101546040516001600160a01b039091169084907fd5a82ebfa8edb5cbec605a5fe6ef6469bb00d282b0d42748e6434ced9617b5b090600090a3600061271060065484602001516111f69190613935565b6112009190613954565b905060008184602001516112149190613968565b90506000612710600554836112299190613935565b6112339190613954565b9050806004600082825461124791906138cc565b909155505060408501515161125e90600190613968565b6112688284613968565b6112729190613954565b61127c90836138cc565b846001018190555050505050505b50565b6002546001600160a01b031633146112e75760405162461bcd60e51b815260206004820181905260248201527f4f776e61626c653a2063616c6c6572206973206e6f7420746865206f776e6572604482015260640161096b565b600a92909255600b55600c55565b6002546001600160a01b0316331461134f5760405162461bcd60e51b815260206004820181905260248201527f4f776e61626c653a2063616c6c6572206973206e6f7420746865206f776e6572604482015260640161096b565b610be66000612e8e565b61138b6040518060a0016040528060008152602001600081526020016060815260200160008152602001600081525090565b6000828152600f6020908152604091829020825160a081018452815481526001820154818401526002820180548551818602810186018752818152929593949386019383018282801561140757602002820191906000526020600020905b81546001600160a01b031681526001909101906020018083116113e9575b50505050508152602001600382015481526020016004820154815250509050919050565b7fe1dcbdb91df27212a29bc27177c840cf2f819ecf2187432e1fac86c2dd5dfca96114568133612eed565b6105dc8211156114a85760405162461bcd60e51b815260206004820181905260248201527f4c6574207468652067616d626c6572732067616d626c6520696e207065616365604482015260640161096b565b50600555565b6001600160a01b0381166000908152601060205260408120606091906114d390612f6b565b67ffffffffffffffff8111156114eb576114eb613769565b604051908082528060200260200182016040528015611514578160200160208202803683370190505b50905060005b6001600160a01b038416600090815260106020526040902061153b90612f6b565b811015611593576001600160a01b03841660009081526010602052604090206115649082612f75565b828281518110611576576115766138e4565b60209081029190910101528061158b816138fa565b91505061151a565b5092915050565b6002546001600160a01b031633146115f45760405162461bcd60e51b815260206004820181905260248201527f4f776e61626c653a2063616c6c6572206973206e6f7420746865206f776e6572604482015260640161096b565b600655565b6002546001600160a01b031633146116535760405162461bcd60e51b815260206004820181905260248201527f4f776e61626c653a2063616c6c6572206973206e6f7420746865206f776e6572604482015260640161096b565b610be6612f81565b60007f00000000000000000000000000000000000000000000000000000000000000006001600160a01b0316633b1fee6c6040518163ffffffff1660e01b8152600401602060405180830381865afa1580156116bb573d6000803e3d6000fd5b505050506040513d601f19601f8201168201806040525081019061086a919061397f565b600254600090600160a01b900460ff161561172f5760405162461bcd60e51b815260206004820152601060248201526f14185d5cd8589b194e881c185d5cd95960821b604482015260640161096b565b600061173961085c565b6000818152600f60205260408120600301549192500361176a5761176830600954600c54600d5461075961165b565b505b61086a81611cf5565b6000828152600160205260408120610df99083612f75565b6002546001600160a01b031633146117e55760405162461bcd60e51b815260206004820181905260248201527f4f776e61626c653a2063616c6c6572206973206e6f7420746865206f776e6572604482015260640161096b565b600792909255600855600955565b606082600080805b8651811015611930578087516118119190613968565b878281518110611823576118236138e4565b60200260200101518760405160200161185a92919060609290921b6bffffffffffffffffffffffff19168252601482015260340190565b6040516020818303038152906040528051906020012060001c61187d91906138a2565b9150838181518110611891576118916138e4565b602002602001015192508382826118a891906138cc565b815181106118b8576118b86138e4565b60200260200101518482815181106118d2576118d26138e4565b6001600160a01b039092166020928302919091019091015282846118f684846138cc565b81518110611906576119066138e4565b6001600160a01b039092166020928302919091019091015280611928816138fa565b9150506117fb565b509195945050505050565b600254600090600160a01b900460ff161561198b5760405162461bcd60e51b815260206004820152601060248201526f14185d5cd8589b194e881c185d5cd95960821b604482015260640161096b565b8360000361199957600c5493505b846000036119a75760095494505b60028310156119b657600d5492505b60006119c1836126db565b90508015611a115760405162461bcd60e51b815260206004820152601360248201527f47616d6520616c72656164792073656564656400000000000000000000000000604482015260640161096b565b611a1961165b565b831015611a8e5760405162461bcd60e51b815260206004820152602260248201527f43616e2774206372656174652067616d657320666f72207061737420726f756e60448201527f6473000000000000000000000000000000000000000000000000000000000000606482015260840161096b565b6007548610158015611aa257506008548611155b611aee5760405162461bcd60e51b815260206004820152601760248201527f426574206f757473696465206c6567616c2072616e6765000000000000000000604482015260640161096b565b600a548510158015611b025750600b548511155b611b4e5760405162461bcd60e51b815260206004820152601e60248201527f537461727420726f6c6c206f757473696465206c6567616c2072616e67650000604482015260640161096b565b6001600160a01b038716331480611b9357506001600160a01b03871630148015611b79575060095486145b8015611b865750600c5485145b8015611b935750600d5484145b611b9c57600080fd5b604080516bffffffffffffffffffffffff1960608a901b16602080830191909152603480830187905283518084039091018152605490920183528151918101919091206000818152600e909252919020600201546001600160a01b031615611c465760405162461bcd60e51b815260206004820152601560248201527f47616d6520616c72656164792066696e69736865640000000000000000000000604482015260640161096b565b6040805160a08101825285815260208082018a8152835160008082528184018652848601918252606085018c9052608085018b9052868152600f845294909420835181559051600182015592518051929392611ca892600285019201906134bd565b506060820151600382015560809091015160049091015560405181907f7195cf6f05afbbfa979e2346d841dcb24356d5956eec907794f47ff7acaf701290600090a2979650505050505050565b600254600160a01b900460ff1615611d425760405162461bcd60e51b815260206004820152601060248201526f14185d5cd8589b194e881c185d5cd95960821b604482015260640161096b565b6000818152600f60209081526040808320815160a08101835281548152600182015481850152600282018054845181870281018701865281815292959394860193830182828015611dbc57602002820191906000526020600020905b81546001600160a01b03168152600190910190602001808311611d9e575b505050505081526020016003820154815260200160048201548152505090506000816060015111611e2f5760405162461bcd60e51b815260206004820152601660248201527f47616d6520646f65736e27742065786973742079657400000000000000000000604482015260640161096b565b6000828152600e60205260409020600201546001600160a01b031615611e975760405162461bcd60e51b815260206004820152601560248201527f47616d6520616c72656164792066696e69736865640000000000000000000000604482015260640161096b565b6000611ea682600001516126db565b90508015611ef65760405162461bcd60e51b815260206004820152601360248201527f47616d6520616c72656164792073656564656400000000000000000000000000604482015260640161096b565b611f0142603c6138cc565b7f00000000000000000000000000000000000000000000000000000000000000006001600160a01b0316633c099fce6040518163ffffffff1660e01b8152600401602060405180830381865afa158015611f5f573d6000803e3d6000fd5b505050506040513d601f19601f82011682018060405250810190611f83919061397f565b11611fd05760405162461bcd60e51b815260206004820181905260248201527f5365656420696d6d696e656e743b207369676e2d757020697320636c6f736564604482015260640161096b565b336000908152601060205260409020611fe99084613009565b156120365760405162461bcd60e51b815260206004820152600e60248201527f416c7265616479206a6f696e6564000000000000000000000000000000000000604482015260640161096b565b60808201516000848152600f6020526040902060020154108015612079575060065461206490612710613954565b6000848152600f602052604090206002015411155b6120c55760405162461bcd60e51b815260206004820152601060248201527f546f6f206d616e7920706c617965727300000000000000000000000000000000604482015260640161096b565b600061271060065484602001516120dc9190613935565b6120e69190613954565b905080600360008282546120fa91906138cc565b909155505060208301516040517f23b872dd00000000000000000000000000000000000000000000000000000000815233600482015230602482015260448101919091527f00000000000000000000000000000000000000000000000000000000000000006001600160a01b0316906323b872dd906064016020604051808303816000875af1158015612191573d6000803e3d6000fd5b505050506040513d601f19601f820116820180604052508101906121b59190613913565b506000848152600f60209081526040808320600201805460018101825590845282842001805473ffffffffffffffffffffffffffffffffffffffff19163390811790915583526010909152902061220c9085613021565b50604051339085907fdd5a0e5e0c7946c099f2ed766c0b633dd2eb1e1e10743bab89f871e8038b080b90600090a350505050565b600254600090600160a01b900460ff16156122905760405162461bcd60e51b815260206004820152601060248201526f14185d5cd8589b194e881c185d5cd95960821b604482015260640161096b565b336000805b6001600160a01b03831660009081526010602052604090206122b690612f6b565b81101561236f576001600160a01b03831660009081526010602052604081206122df9083612f75565b90506122eb8482610db3565b1561230f576000818152600e602052604090206001015461230c90846138cc565b92505b6000818152600e60205260409020600201546001600160a01b03161561235b576001600160a01b03841660009081526010602052604090206123519082612b8b565b5060009150612369565b81612365816138fa565b9250505b50612295565b5060405163a9059cbb60e01b8152336004820152602481018290527f00000000000000000000000000000000000000000000000000000000000000006001600160a01b03169063a9059cbb906044016020604051808303816000875af11580156123dd573d6000803e3d6000fd5b505050506040513d601f19601f820116820180604052508101906124019190613913565b5091505090565b600081815260016020526040812061085690612f6b565b610b6c828261302d565b6002546001600160a01b031633146124835760405162461bcd60e51b815260206004820181905260248201527f4f776e61626c653a2063616c6c6572206973206e6f7420746865206f776e6572604482015260640161096b565b6000600354116124d55760405162461bcd60e51b815260206004820152601360248201527f4e6f7468696e6720746f20776974686472617700000000000000000000000000604482015260640161096b565b7f00000000000000000000000000000000000000000000000000000000000000006001600160a01b031663a9059cbb6125166002546001600160a01b031690565b6003546040516001600160e01b031960e085901b1681526001600160a01b03909216600483015260248201526044016020604051808303816000875af1158015612564573d6000803e3d6000fd5b505050506040513d601f19601f820116820180604052508101906125889190613913565b506000600355565b7fe1dcbdb91df27212a29bc27177c840cf2f819ecf2187432e1fac86c2dd5dfca96125bb8133612eed565b60006004541161260d5760405162461bcd60e51b815260206004820152601360248201527f4e6f7468696e6720746f20776974686472617700000000000000000000000000604482015260640161096b565b6004805460405163a9059cbb60e01b81526001600160a01b037f0000000000000000000000000000000000000000000000000000000000000000169263a9059cbb9261268f927f000000000000000000000000000000000000000000000000000000000000000092016001600160a01b03929092168252602082015260400190565b6020604051808303816000875af11580156126ae573d6000803e3d6000fd5b505050506040513d601f19601f820116820180604052508101906126d29190613913565b50506000600455565b6040517f591c0e1c0000000000000000000000000000000000000000000000000000000081526004810182905260009081906001600160a01b037f0000000000000000000000000000000000000000000000000000000000000000169063591c0e1c90602401602060405180830381865afa15801561275e573d6000803e3d6000fd5b505050506040513d601f19601f82011682018060405250810190612782919061397f565b6040517f05b19402000000000000000000000000000000000000000000000000000000008152600481018290529091507f00000000000000000000000000000000000000000000000000000000000000006001600160a01b0316906305b1940290602401602060405180830381865afa158015612803573d6000803e3d6000fd5b505050506040513d601f19601f82011682018060405250810190610df9919061397f565b6002546001600160a01b031633146128815760405162461bcd60e51b815260206004820181905260248201527f4f776e61626c653a2063616c6c6572206973206e6f7420746865206f776e6572604482015260640161096b565b6001600160a01b0381166128fd5760405162461bcd60e51b815260206004820152602660248201527f4f776e61626c653a206e6577206f776e657220697320746865207a65726f206160448201527f6464726573730000000000000000000000000000000000000000000000000000606482015260840161096b565b61128a81612e8e565b600080805b6001600160a01b038416600090815260106020526040902061292c90612f6b565b811015611593576001600160a01b03841660009081526010602052604081206129559083612f75565b90506129618582610db3565b15612985576000818152600e602052604090206001015461298290846138cc565b92505b5080612990816138fa565b91505061290b565b6129a28282613053565b5050565b6000610df9836001600160a01b0384166130f1565b60006001600160e01b031982167f7965db0b00000000000000000000000000000000000000000000000000000000148061085657507f01ffc9a7000000000000000000000000000000000000000000000000000000006001600160e01b0319831614610856565b600082815260208190526040902060010154612a3e8133612eed565b610b5d8383613053565b6001600160a01b0381163314612ac65760405162461bcd60e51b815260206004820152602f60248201527f416363657373436f6e74726f6c3a2063616e206f6e6c792072656e6f756e636560448201527f20726f6c657320666f722073656c660000000000000000000000000000000000606482015260840161096b565b6129a28282613140565b6000610df9836001600160a01b0384166131bf565b600254600160a01b900460ff16612b3e5760405162461bcd60e51b815260206004820152601460248201527f5061757361626c653a206e6f7420706175736564000000000000000000000000604482015260640161096b565b6002805460ff60a01b191690557f5db9ee0a495bf2e6ff9c91a7834c1ba4fdd244a5e8aa4e537bd38aeae4b073aa335b6040516001600160a01b03909116815260200160405180910390a1565b6000610df983836131bf565b600254600090600160a01b900460ff1615612be75760405162461bcd60e51b815260206004820152601060248201526f14185d5cd8589b194e881c185d5cd95960821b604482015260640161096b565b6000828152600e60205260409020600201546001600160a01b031615612c4f5760405162461bcd60e51b815260206004820152601560248201527f47616d6520616c72656164792066696e69736865640000000000000000000000604482015260640161096b565b6000828152600f60209081526040808320815160a08101835281548152600182015481850152600282018054845181870281018701865281815292959394860193830182828015612cc957602002820191906000526020600020905b81546001600160a01b03168152600190910190602001808311612cab575b505050505081526020016003820154815260200160048201548152505090506000612cf782600001516126db565b905060008111612d495760405162461bcd60e51b815260206004820152601360248201527f47616d65206e6f74207365656465642079657400000000000000000000000000604482015260640161096b565b60028260400151511015612d9f5760405162461bcd60e51b815260206004820152601760248201527f4e656564206174206c65617374203220706c6179657273000000000000000000604482015260640161096b565b6000612daf8360400151836117f3565b606084015190915060005b8115612e0757604080516020810183905290810185905282906060016040516020818303038152906040528051906020012060001c81612dfc57612dfc61388c565b069150600101612dba565b6000838451600184612e199190613968565b612e2391906138a2565b81518110612e3357612e336138e4565b60209081029190910181015160008a8152600e909252604090912060028101805473ffffffffffffffffffffffffffffffffffffffff19166001600160a01b039093169290921790915594855550929450505050505b919050565b600280546001600160a01b0383811673ffffffffffffffffffffffffffffffffffffffff19831681179093556040519116919082907f8be0079c531659141344cd1fd0a4f28419497f9722a3daafe3b4186f6b6457e090600090a35050565b6000828152602081815260408083206001600160a01b038516845290915290205460ff166129a257612f29816001600160a01b031660146132b2565b612f348360206132b2565b604051602001612f459291906139c8565b60408051601f198184030181529082905262461bcd60e51b825261096b91600401613a49565b6000610856825490565b6000610df98383613493565b600254600160a01b900460ff1615612fce5760405162461bcd60e51b815260206004820152601060248201526f14185d5cd8589b194e881c185d5cd95960821b604482015260640161096b565b6002805460ff60a01b1916600160a01b1790557f62e78cea01bee320cd4e420270b5ea74000d11b0c9f74754ebdbfc544b05a258612b6e3390565b60008181526001830160205260408120541515610df9565b6000610df983836130f1565b6000828152602081905260409020600101546130498133612eed565b610b5d8383613140565b6000828152602081815260408083206001600160a01b038516845290915290205460ff166129a2576000828152602081815260408083206001600160a01b03851684529091529020805460ff191660011790556130ad3390565b6001600160a01b0316816001600160a01b0316837f2f8788117e7eff1d82e926ec794901d17c78024a50270940304540a733656f0d60405160405180910390a45050565b600081815260018301602052604081205461313857508154600181810184556000848152602080822090930184905584548482528286019093526040902091909155610856565b506000610856565b6000828152602081815260408083206001600160a01b038516845290915290205460ff16156129a2576000828152602081815260408083206001600160a01b0385168085529252808320805460ff1916905551339285917ff6391f5c32d9c69d2a47ea670b442974b53935d1edc7fd64eb21e047a839171b9190a45050565b600081815260018301602052604081205480156132a85760006131e3600183613968565b85549091506000906131f790600190613968565b905081811461325c576000866000018281548110613217576132176138e4565b906000526020600020015490508087600001848154811061323a5761323a6138e4565b6000918252602080832090910192909255918252600188019052604090208390555b855486908061326d5761326d613a7c565b600190038181906000526020600020016000905590558560010160008681526020019081526020016000206000905560019350505050610856565b6000915050610856565b606060006132c1836002613935565b6132cc9060026138cc565b67ffffffffffffffff8111156132e4576132e4613769565b6040519080825280601f01601f19166020018201604052801561330e576020820181803683370190505b5090507f300000000000000000000000000000000000000000000000000000000000000081600081518110613345576133456138e4565b60200101906001600160f81b031916908160001a9053507f780000000000000000000000000000000000000000000000000000000000000081600181518110613390576133906138e4565b60200101906001600160f81b031916908160001a90535060006133b4846002613935565b6133bf9060016138cc565b90505b6001811115613444577f303132333435363738396162636465660000000000000000000000000000000085600f1660108110613400576134006138e4565b1a60f81b828281518110613416576134166138e4565b60200101906001600160f81b031916908160001a90535060049490941c9361343d81613a92565b90506133c2565b508315610df95760405162461bcd60e51b815260206004820181905260248201527f537472696e67733a20686578206c656e67746820696e73756666696369656e74604482015260640161096b565b60008260000182815481106134aa576134aa6138e4565b9060005260206000200154905092915050565b82805482825590600052602060002090810192821561351f579160200282015b8281111561351f578251825473ffffffffffffffffffffffffffffffffffffffff19166001600160a01b039091161782556020909201916001909101906134dd565b5061352b92915061352f565b5090565b5b8082111561352b5760008155600101613530565b60006020828403121561355657600080fd5b81356001600160e01b031981168114610df957600080fd5b60006020828403121561358057600080fd5b5035919050565b6020808252825182820181905260009190848201906040850190845b818110156135bf578351835292840192918401916001016135a3565b50909695505050505050565b80356001600160a01b0381168114612e8957600080fd5b600080604083850312156135f557600080fd5b82359150613605602084016135cb565b90509250929050565b6020808252825182820181905260009190848201906040850190845b818110156135bf5783516001600160a01b03168352928401929184019160010161362a565b6000806040838503121561366257600080fd5b61366b836135cb565b946020939093013593505050565b60008060006060848603121561368e57600080fd5b505081359360208301359350604090920135919050565b6000602080835260c08301845182850152818501516040850152604085015160a0606086015281815180845260e0870191508483019350600092505b8083101561370a5783516001600160a01b031682529284019260019290920191908401906136e1565b5060608701516080870152608087015160a08701528094505050505092915050565b60006020828403121561373e57600080fd5b610df9826135cb565b6000806040838503121561375a57600080fd5b50508035926020909101359150565b634e487b7160e01b600052604160045260246000fd5b6000806040838503121561379257600080fd5b823567ffffffffffffffff808211156137aa57600080fd5b818501915085601f8301126137be57600080fd5b81356020828211156137d2576137d2613769565b8160051b604051601f19603f830116810181811086821117156137f7576137f7613769565b60405292835281830193508481018201928984111561381557600080fd5b948201945b8386101561383a5761382b866135cb565b8552948201949382019361381a565b9997909101359750505050505050565b600080600080600060a0868803121561386257600080fd5b61386b866135cb565b97602087013597506040870135966060810135965060800135945092505050565b634e487b7160e01b600052601260045260246000fd5b6000826138b1576138b161388c565b500690565b634e487b7160e01b600052601160045260246000fd5b600082198211156138df576138df6138b6565b500190565b634e487b7160e01b600052603260045260246000fd5b60006001820161390c5761390c6138b6565b5060010190565b60006020828403121561392557600080fd5b81518015158114610df957600080fd5b600081600019048311821515161561394f5761394f6138b6565b500290565b6000826139635761396361388c565b500490565b60008282101561397a5761397a6138b6565b500390565b60006020828403121561399157600080fd5b5051919050565b60005b838110156139b357818101518382015260200161399b565b838111156139c2576000848401525b50505050565b7f416363657373436f6e74726f6c3a206163636f756e7420000000000000000000815260008351613a00816017850160208801613998565b7f206973206d697373696e6720726f6c65200000000000000000000000000000006017918401918201528351613a3d816028840160208801613998565b01602801949350505050565b6020815260008251806020840152613a68816040850160208701613998565b601f01601f19169190910160400192915050565b634e487b7160e01b600052603160045260246000fd5b600081613aa157613aa16138b6565b50600019019056fea2646970667358221220fb9f2b9d5b04c208f041f9eed753e33608ad9a33b68502cf2b7be7690be9ab1564736f6c634300080d0033",
  "immutableReferences": {
    "1742": [
      {
        "length": 32,
        "start": 1797
      },
      {
        "length": 32,
        "start": 4025
      },
      {
        "length": 32,
        "start": 8512
      },
      {
        "length": 32,
        "start": 9100
      },
      {
        "length": 32,
        "start": 9431
      },
      {
        "length": 32,
        "start": 9768
      }
    ],
    "1745": [
      {
        "length": 32,
        "start": 1305
      },
      {
        "length": 32,
        "start": 5727
      },
      {
        "length": 32,
        "start": 7939
      },
      {
        "length": 32,
        "start": 10007
      },
      {
        "length": 32,
        "start": 10164
      }
    ],
    "1747": [
      {
        "length": 32,
        "start": 1223
      },
      {
        "length": 32,
        "start": 9813
      }
    ]
  },
  "source": "// SPDX-License-Identifier: MIT\npragma solidity ^0.8.0;\n\nimport \"@openzeppelin/contracts/interfaces/IERC20.sol\";\nimport \"@openzeppelin/contracts/access/Ownable.sol\";\nimport \"@openzeppelin/contracts/access/AccessControlEnumerable.sol\";\nimport \"@openzeppelin/contracts/utils/structs/EnumerableSet.sol\";\nimport \"@openzeppelin/contracts/security/Pausable.sol\";\nimport \"./RpSeeder.sol\";\n\n/// @title A Death Roll-inspired game for Raid Party\n/// @author xanewok.eth\n/// @notice The games uses $CFTI, the native Raid Party token\ncontract ConfettiRoll is AccessControlEnumerable, Ownable, Pausable {\n    using EnumerableSet for EnumerableSet.Bytes32Set;\n\n    IERC20 public immutable confetti;\n    RpSeeder public immutable seeder;\n    address public immutable treasury;\n    uint256 public tipAmount;\n    uint256 public treasuryAmount;\n\n    uint256 public treasuryFee = 500; // 5%\n    uint256 public betTip = 50; // 0.5%\n    uint256 constant FEE_PRECISION = 1e4;\n\n    uint256 public minBet = 1e17; // 0.1 $CFTI\n    uint256 public maxBet = 150e18; // 150 $CFTI\n    uint256 public defaultBet = 15e18; // 15 $CFTI\n\n    uint256 public minStartingRoll = 2;\n    uint256 public maxStartingRoll = 1000;\n    uint256 public defaultStartingRoll = 100;\n\n    uint256 public defaultMaxParticipants = 100;\n\n    bytes32 public constant TREASURY_ROLE = keccak256(\"TREASURY_ROLE\");\n\n    struct Game {\n        uint256 roundNum;\n        uint256 poolBet;\n        address[] participants;\n        uint256 startingRoll;\n        uint256 maxParticipants;\n    }\n\n    struct GameResult {\n        // In theory this should always be equal to `getSeed(game.roundNum)`;\n        // however, since we depend on an external seeder, let's always remember\n        // the seed for a given finalized game to make the results verifiable\n        // and deterministic\n        uint256 finalizedSeed;\n        // The amount that every participant (except for the loser) is due,\n        // after the game finishes\n        uint256 prizeShare;\n        address loser;\n    }\n\n    event PlayerLost(bytes32 indexed gameId, address indexed player);\n    event GameCreated(bytes32 indexed gameId);\n    event PlayerJoined(bytes32 indexed gameId, address indexed player);\n\n    mapping(bytes32 => GameResult) gameResults;\n    mapping(bytes32 => Game) games;\n\n    mapping(address => EnumerableSet.Bytes32Set) pendingGames;\n\n    constructor(\n        IERC20 confetti_,\n        address seeder_,\n        address treasury_\n    ) {\n        _setupRole(TREASURY_ROLE, treasury_);\n\n        seeder = RpSeeder(seeder_);\n        treasury = treasury_;\n        confetti = confetti_;\n        tipAmount = 0;\n        treasuryAmount = 0;\n    }\n\n    function setTreasuryFee(uint256 treasuryFee_)\n        public\n        onlyRole(TREASURY_ROLE)\n    {\n        require(treasuryFee_ <= 1500, \"Let the gamblers gamble in peace\");\n        treasuryFee = treasuryFee_;\n    }\n\n    function withdrawTax() public onlyRole(TREASURY_ROLE) {\n        require(treasuryAmount > 0, \"Nothing to withdraw\");\n        confetti.transfer(treasury, treasuryAmount);\n        treasuryAmount = 0;\n    }\n\n    function withdrawTip() public onlyOwner {\n        require(tipAmount > 0, \"Nothing to withdraw\");\n        confetti.transfer(owner(), tipAmount);\n        tipAmount = 0;\n    }\n\n    function setBetTip(uint256 betTip_) public onlyOwner {\n        betTip = betTip_;\n    }\n\n    function setBets(\n        uint256 min,\n        uint256 max,\n        uint256 default_\n    ) public onlyOwner {\n        minBet = min;\n        maxBet = max;\n        defaultBet = default_;\n    }\n\n    function setStartingRolls(\n        uint256 min,\n        uint256 max,\n        uint256 default_\n    ) public onlyOwner {\n        minStartingRoll = min;\n        maxStartingRoll = max;\n        defaultStartingRoll = default_;\n    }\n\n    function setDefaultMaxParticipants(uint256 value) public onlyOwner {\n        defaultMaxParticipants = value;\n    }\n\n    /// @dev We piggyback on the RaidParty batch seeder for our game round abstraction\n    function currentRound() public view returns (uint256) {\n        return seeder.getBatch();\n    }\n\n    /// @notice Return generated random words for a given game round\n    function getSeed(uint256 roundNum) public view returns (uint256) {\n        bytes32 reqId = seeder.getReqByBatch(roundNum);\n        return seeder.getRandomness(reqId);\n    }\n\n    function getGame(bytes32 gameId) public view returns (Game memory) {\n        return games[gameId];\n    }\n\n    function getGameResults(bytes32 gameId)\n        public\n        view\n        returns (GameResult memory)\n    {\n        return gameResults[gameId];\n    }\n\n    function isGameFinished(bytes32 gameId) public view returns (bool) {\n        return gameResults[gameId].loser != address(0x0);\n    }\n\n    /// @notice Returns the order in which the players roll for a given game\n    function getRollingPlayers(bytes32 gameId)\n        public\n        view\n        returns (address[] memory)\n    {\n        Game memory game = games[gameId];\n        uint256 seed = getSeed(game.roundNum);\n        require(seed > 0, \"Game not seeded yet\");\n        require(game.participants.length >= 2, \"Need at least 2 players\");\n\n        return shuffledPlayers(game.participants, seed);\n    }\n\n    /// @notice Returns player rolls for a given game. They correspond to player order returned by `getRollingPlayers`\n    function getRolls(bytes32 gameId) public view returns (uint256[] memory) {\n        Game memory game = games[gameId];\n        uint256 seed = getSeed(game.roundNum);\n        require(seed > 0, \"Game not seeded yet\");\n        require(game.participants.length >= 2, \"Need at least 2 players\");\n        // NOTE: The part below is the same as `simulateGame` only with\n        // remembering the roll values (which are originally not to save gas).\n\n        // The upper bound for the number of rolls is the starting roll value\n        uint256[] memory rolls = new uint256[](game.startingRoll);\n\n        uint256 roll = game.startingRoll;\n        uint256 rollCount = 0;\n        while (roll > 0) {\n            // NOTE: `roll` is always in the [1, game.startingRoll - 1] range\n            // here, as we start if it's positive and we always use modulo,\n            // starting from the `game.startingRoll`\n            roll = uint256(keccak256(abi.encodePacked(rollCount, seed))) % roll;\n            rolls[rollCount] = roll + 1;\n            rollCount++;\n        }\n        // NOTE: This is meant to be executed in a read-only fashion - to get rid\n        // of the extra zeroes, we just copy over the actual rolls to a new array\n        uint256[] memory returnedRolls = new uint256[](rollCount);\n        for (uint256 i = 0; i < returnedRolls.length; i++) {\n            returnedRolls[i] = rolls[i];\n        }\n        return returnedRolls;\n    }\n\n    /// @notice Returns a list of outstanding games for the player\n    function getPendingGames(address player)\n        public\n        view\n        returns (bytes32[] memory)\n    {\n        bytes32[] memory pendingGames_ = new bytes32[](\n            pendingGames[player].length()\n        );\n        for (uint256 i = 0; i < pendingGames[player].length(); i++) {\n            pendingGames_[i] = pendingGames[player].at(i);\n        }\n        return pendingGames_;\n    }\n\n    /// @notice Returns whether the player is eligible to collect a prize for a given game\n    function canCollectReward(address player, bytes32 gameId)\n        public\n        view\n        returns (bool)\n    {\n        return (isGameFinished(gameId) && gameResults[gameId].loser != player);\n    }\n\n    /// @notice Returns a total amount of claimable rewards by the player\n    function getPendingRewards(address player) public view returns (uint256) {\n        uint256 sum = 0;\n        for (uint256 i = 0; i < pendingGames[player].length(); i++) {\n            bytes32 gameId = pendingGames[player].at(i);\n            if (canCollectReward(player, gameId)) {\n                sum += gameResults[gameId].prizeShare;\n            }\n        }\n        return sum;\n    }\n\n    /// @notice Process and clear every outstanding game, collecting the rewards\n    function withdrawRewards() public whenNotPaused returns (uint256) {\n        address player = msg.sender;\n        uint256 rewards = 0;\n\n        for (uint256 i = 0; i < pendingGames[player].length(); ) {\n            bytes32 gameId = pendingGames[player].at(i);\n            if (canCollectReward(player, gameId)) {\n                rewards += gameResults[gameId].prizeShare;\n            }\n            // NOTE: This is the main function that is responsible for clearing\n            // up pending games (e.g. for UI reasons), so make sure to clear up\n            // pending *lost* games as well, even if we didn't collect a prize\n            if (isGameFinished(gameId)) {\n                pendingGames[player].remove(gameId);\n                // Deleting an element might've shifted the order of the elements\n                // and since we're deleting while iterating (a Bad Idea^TM),\n                // simply start iterating from the start to be safe\n                i = 0;\n            } else {\n                i++;\n            }\n        }\n\n        confetti.transfer(msg.sender, rewards);\n        return rewards;\n    }\n\n    /// @notice Calculates the game identifier for a given game initializer and roundNum\n    /// The game initializer can be either the address of the contract if we're\n    /// creating a \"global\" game or the address of the callee\n    function calcGameId(address initializer, uint256 roundNum)\n        public\n        pure\n        returns (bytes32)\n    {\n        return keccak256(abi.encodePacked(initializer, roundNum));\n    }\n\n    /// @notice Returns a game identifier for the currently running, global game\n    function currentGlobalGameId() public view returns (bytes32) {\n        return calcGameId(address(this), currentRound());\n    }\n\n    // Anyone can join the game for the current round where either they are the\n    // initializer and they can set a custom bet or they can create a global\n    // game per round with a default bet amount\n    /// @notice Create a new game\n    /// @param initializer needs to be an address of the contract or the sender\n    /// @param poolBet The amount of money that the player enters with. Use 18 decimals, just like for $CFTI\n    /// @param maxParticipants The maximum number of players that can join the game\n    /// @param startingRoll The upper roll that the game begins with\n    /// @param roundNum The round when the game will be played. Must be bigger than the current round\n    function createGame(\n        address initializer,\n        uint256 poolBet,\n        uint256 startingRoll,\n        uint256 maxParticipants,\n        uint256 roundNum\n    ) public whenNotPaused returns (bytes32) {\n        if (startingRoll == 0) {\n            startingRoll = defaultStartingRoll;\n        }\n        if (poolBet == 0) {\n            poolBet = defaultBet;\n        }\n        if (maxParticipants < 2) {\n            maxParticipants = defaultMaxParticipants;\n        }\n        uint256 seed = getSeed(roundNum);\n        require(seed == 0, \"Game already seeded\");\n        require(\n            roundNum >= currentRound(),\n            \"Can't create games for past rounds\"\n        );\n        require(\n            poolBet >= minBet && poolBet <= maxBet,\n            \"Bet outside legal range\"\n        );\n        require(\n            startingRoll >= minStartingRoll && startingRoll <= maxStartingRoll,\n            \"Start roll outside legal range\"\n        );\n        // Allow for creating a custom game with the sender as initializer or\n        // a \"global\" (per round) one that needs to have default values set\n        require(\n            initializer == msg.sender ||\n                (initializer == address(this) &&\n                    poolBet == defaultBet &&\n                    startingRoll == defaultStartingRoll &&\n                    maxParticipants == defaultMaxParticipants)\n        );\n        bytes32 gameId = calcGameId(initializer, roundNum);\n        require(!isGameFinished(gameId), \"Game already finished\");\n\n        games[gameId] = Game({\n            poolBet: poolBet,\n            roundNum: roundNum,\n            startingRoll: startingRoll,\n            maxParticipants: maxParticipants,\n            participants: new address[](0)\n        });\n\n        emit GameCreated(gameId);\n        return gameId;\n    }\n\n    /// @notice Join the given game. Needs $CFTI approval as the player needs to deposit the pool bet in order to play.\n    function joinGame(bytes32 gameId) public whenNotPaused {\n        Game memory game = games[gameId];\n        require(game.startingRoll > 0, \"Game doesn't exist yet\");\n        require(!isGameFinished(gameId), \"Game already finished\");\n        // Mitigate possible front-running - close the game sign-ups about a minute\n        // before the seeder can request randomness. The RP seeder is pre-configured\n        // to require 3 block confirmations, so 60 seconds makes sense (< 3 * 14s)\n        uint256 seed = getSeed(game.roundNum);\n        require(seed == 0, \"Game already seeded\");\n        require(\n            seeder.getNextAvailableBatch() > (block.timestamp + 60),\n            \"Seed imminent; sign-up is closed\"\n        );\n        require(!pendingGames[msg.sender].contains(gameId), \"Already joined\");\n        require(\n            games[gameId].participants.length < game.maxParticipants &&\n                games[gameId].participants.length <= (FEE_PRECISION / betTip),\n            \"Too many players\"\n        );\n\n        uint256 tip = (game.poolBet * betTip) / FEE_PRECISION;\n        tipAmount += tip;\n        confetti.transferFrom(msg.sender, address(this), game.poolBet);\n\n        games[gameId].participants.push(msg.sender);\n        pendingGames[msg.sender].add(gameId);\n        emit PlayerJoined(gameId, msg.sender);\n    }\n\n    /// @notice A convenient method to join the currently running global game\n    function joinGlobalGame() public whenNotPaused returns (bytes32) {\n        bytes32 globalGameId = currentGlobalGameId();\n        // Lazily create a global game if there isn't one already\n        if (games[globalGameId].startingRoll == 0) {\n            createGame(\n                address(this),\n                defaultBet,\n                defaultStartingRoll,\n                defaultMaxParticipants,\n                currentRound()\n            );\n        }\n        joinGame(globalGameId);\n        return globalGameId;\n    }\n\n    /// @return Shuffled randomly players from the given ones, using supplied seed\n    function shuffledPlayers(address[] memory players, uint256 seed)\n        public\n        pure\n        returns (address[] memory)\n    {\n        address[] memory shuffled = players;\n\n        address temp;\n        uint256 pick;\n        for (uint256 i = 0; i < players.length; i++) {\n            // Randomly pick a value from i (incl.) till the end of the array\n            // To further increase randomness entropy, add the current player address\n            pick =\n                uint256(keccak256(abi.encodePacked(players[i], seed))) %\n                (players.length - i);\n            temp = shuffled[i];\n            // Save the randomly picked number as the i-th address in the sequence\n            shuffled[i] = shuffled[i + pick];\n            // Return the original value to the pool that we pick from\n            shuffled[i + pick] = temp;\n        }\n\n        return shuffled;\n    }\n\n    /// @dev Given an unitialized yet game, simulate the game and commit the results to the storage\n    function simulateGame(bytes32 gameId)\n        internal\n        whenNotPaused\n        returns (GameResult storage)\n    {\n        require(!isGameFinished(gameId), \"Game already finished\");\n        Game memory game = games[gameId];\n\n        uint256 seed = getSeed(game.roundNum);\n        require(seed > 0, \"Game not seeded yet\");\n        require(game.participants.length >= 2, \"Need at least 2 players\");\n        // To remove any bias from the order that players registered with, make\n        // sure to shuffle them before starting the actual game\n        // NOTE: This is the same as `getRollingPlayers`\n        address[] memory players = shuffledPlayers(game.participants, seed);\n\n        // NOTE: This is the same as `getRolls`, however we don't use that as\n        // we'd spend too much gas on remembering the rolls - we're interested\n        // only in the outcome itself, which is the losing player\n        uint256 roll = game.startingRoll;\n        uint256 rollCount = 0;\n        while (roll > 0) {\n            // NOTE: `roll` is always in the [1, game.startingRoll - 1] range\n            // here, as we start if it's positive and we always use modulo,\n            // starting from the `game.startingRoll`\n            unchecked {\n                roll =\n                    uint256(keccak256(abi.encodePacked(rollCount, seed))) %\n                    roll;\n                rollCount++;\n            }\n        }\n\n        // The last to roll is the one who lost\n        address loser = players[(rollCount - 1) % players.length];\n        gameResults[gameId].loser = loser;\n        // Saved for bookkeeping\n        gameResults[gameId].finalizedSeed = seed;\n\n        return gameResults[gameId];\n    }\n\n    /// @notice Simulates a given game, assuming it's been seeded since its creation\n    function commenceGame(bytes32 gameId) public whenNotPaused {\n        Game memory game = games[gameId];\n\n        require(game.participants.length > 0, \"No players in the game\");\n        if (game.participants.length == 1) {\n            // Not much of a game if we have a single participant, return the bet\n            confetti.transfer(game.participants[0], game.poolBet);\n            pendingGames[game.participants[0]].remove(gameId);\n            return;\n        }\n\n        GameResult storage results = simulateGame(gameId);\n        require(isGameFinished(gameId), \"Game not finished after simul.\");\n        require(results.loser != address(0), \"Finished game has no loser\");\n\n        emit PlayerLost(gameId, results.loser);\n\n        // Tax the prize money for the treasury\n        uint256 collectedBetTip = (game.poolBet * betTip) / FEE_PRECISION;\n        uint256 payableBet = game.poolBet - collectedBetTip;\n        uint256 treasuryShare = (payableBet * treasuryFee) / FEE_PRECISION;\n        treasuryAmount += treasuryShare;\n\n        // Split the remaining prize pool among the winners; they need to collect\n        // them themselves to amortize gas cost of the game simulation\n        results.prizeShare =\n            // Original bet\n            payableBet +\n            // Taxed prize pool that's split among everyone\n            (payableBet - treasuryShare) /\n            (game.participants.length - 1);\n    }\n\n    function pause() public onlyOwner {\n        _pause();\n    }\n\n    function unpause() public onlyOwner {\n        _unpause();\n    }\n}\n",
  "sourcePath": "/home/xanewok/repos/confetti-roll/contract/contracts/ConfettiRoll.sol",
  "compiler": {
    "name": "solc",
    "version": "0.8.13+commit.abaa5c0e.Emscripten.clang"
  },
  "schemaVersion": "3.4.6",
  "updatedAt": "2022-04-07T19:22:00.853Z",
  "networkType": "ethereum",
  "devdoc": {
    "author": "xanewok.eth",
    "kind": "dev",
    "methods": {
      "createGame(address,uint256,uint256,uint256,uint256)": {
        "params": {
          "initializer": "needs to be an address of the contract or the sender",
          "maxParticipants": "The maximum number of players that can join the game",
          "poolBet": "The amount of money that the player enters with. Use 18 decimals, just like for $CFTI",
          "roundNum": "The round when the game will be played. Must be bigger than the current round",
          "startingRoll": "The upper roll that the game begins with"
        }
      },
      "currentRound()": {
        "details": "We piggyback on the RaidParty batch seeder for our game round abstraction"
      },
      "getRoleAdmin(bytes32)": {
        "details": "Returns the admin role that controls `role`. See {grantRole} and {revokeRole}. To change a role's admin, use {_setRoleAdmin}."
      },
      "getRoleMember(bytes32,uint256)": {
        "details": "Returns one of the accounts that have `role`. `index` must be a value between 0 and {getRoleMemberCount}, non-inclusive. Role bearers are not sorted in any particular way, and their ordering may change at any point. WARNING: When using {getRoleMember} and {getRoleMemberCount}, make sure you perform all queries on the same block. See the following https://forum.openzeppelin.com/t/iterating-over-elements-on-enumerableset-in-openzeppelin-contracts/2296[forum post] for more information."
      },
      "getRoleMemberCount(bytes32)": {
        "details": "Returns the number of accounts that have `role`. Can be used together with {getRoleMember} to enumerate all bearers of a role."
      },
      "grantRole(bytes32,address)": {
        "details": "Overload {grantRole} to track enumerable memberships"
      },
      "hasRole(bytes32,address)": {
        "details": "Returns `true` if `account` has been granted `role`."
      },
      "owner()": {
        "details": "Returns the address of the current owner."
      },
      "paused()": {
        "details": "Returns true if the contract is paused, and false otherwise."
      },
      "renounceOwnership()": {
        "details": "Leaves the contract without owner. It will not be possible to call `onlyOwner` functions anymore. Can only be called by the current owner. NOTE: Renouncing ownership will leave the contract without an owner, thereby removing any functionality that is only available to the owner."
      },
      "renounceRole(bytes32,address)": {
        "details": "Overload {renounceRole} to track enumerable memberships"
      },
      "revokeRole(bytes32,address)": {
        "details": "Overload {revokeRole} to track enumerable memberships"
      },
      "shuffledPlayers(address[],uint256)": {
        "returns": {
          "_0": "Shuffled randomly players from the given ones, using supplied seed"
        }
      },
      "supportsInterface(bytes4)": {
        "details": "See {IERC165-supportsInterface}."
      },
      "transferOwnership(address)": {
        "details": "Transfers ownership of the contract to a new account (`newOwner`). Can only be called by the current owner."
      }
    },
    "title": "A Death Roll-inspired game for Raid Party",
    "version": 1
  },
  "userdoc": {
    "kind": "user",
    "methods": {
      "calcGameId(address,uint256)": {
        "notice": "Calculates the game identifier for a given game initializer and roundNum The game initializer can be either the address of the contract if we're creating a \"global\" game or the address of the callee"
      },
      "canCollectReward(address,bytes32)": {
        "notice": "Returns whether the player is eligible to collect a prize for a given game"
      },
      "commenceGame(bytes32)": {
        "notice": "Simulates a given game, assuming it's been seeded since its creation"
      },
      "createGame(address,uint256,uint256,uint256,uint256)": {
        "notice": "Create a new game"
      },
      "currentGlobalGameId()": {
        "notice": "Returns a game identifier for the currently running, global game"
      },
      "getPendingGames(address)": {
        "notice": "Returns a list of outstanding games for the player"
      },
      "getPendingRewards(address)": {
        "notice": "Returns a total amount of claimable rewards by the player"
      },
      "getRollingPlayers(bytes32)": {
        "notice": "Returns the order in which the players roll for a given game"
      },
      "getRolls(bytes32)": {
        "notice": "Returns player rolls for a given game. They correspond to player order returned by `getRollingPlayers`"
      },
      "getSeed(uint256)": {
        "notice": "Return generated random words for a given game round"
      },
      "joinGame(bytes32)": {
        "notice": "Join the given game. Needs $CFTI approval as the player needs to deposit the pool bet in order to play."
      },
      "joinGlobalGame()": {
        "notice": "A convenient method to join the currently running global game"
      },
      "withdrawRewards()": {
        "notice": "Process and clear every outstanding game, collecting the rewards"
      }
    },
    "notice": "The games uses $CFTI, the native Raid Party token",
    "version": 1
  }
}