{
  "contractName": "ConfettiRoll",
  "abi": [
    {
      "inputs": [
        {
          "internalType": "contract IERC20",
          "name": "confetti_",
          "type": "address"
        },
        {
          "internalType": "address",
          "name": "seeder_",
          "type": "address"
        },
        {
          "internalType": "address",
          "name": "treasury_",
          "type": "address"
        }
      ],
      "stateMutability": "nonpayable",
      "type": "constructor"
    },
    {
      "anonymous": false,
      "inputs": [
        {
          "indexed": true,
          "internalType": "bytes32",
          "name": "gameId",
          "type": "bytes32"
        }
      ],
      "name": "GameCreated",
      "type": "event"
    },
    {
      "anonymous": false,
      "inputs": [
        {
          "indexed": true,
          "internalType": "address",
          "name": "previousOwner",
          "type": "address"
        },
        {
          "indexed": true,
          "internalType": "address",
          "name": "newOwner",
          "type": "address"
        }
      ],
      "name": "OwnershipTransferred",
      "type": "event"
    },
    {
      "anonymous": false,
      "inputs": [
        {
          "indexed": false,
          "internalType": "address",
          "name": "account",
          "type": "address"
        }
      ],
      "name": "Paused",
      "type": "event"
    },
    {
      "anonymous": false,
      "inputs": [
        {
          "indexed": true,
          "internalType": "bytes32",
          "name": "gameId",
          "type": "bytes32"
        },
        {
          "indexed": true,
          "internalType": "address",
          "name": "player",
          "type": "address"
        }
      ],
      "name": "PlayerJoined",
      "type": "event"
    },
    {
      "anonymous": false,
      "inputs": [
        {
          "indexed": true,
          "internalType": "bytes32",
          "name": "gameId",
          "type": "bytes32"
        },
        {
          "indexed": true,
          "internalType": "address",
          "name": "player",
          "type": "address"
        }
      ],
      "name": "PlayerLost",
      "type": "event"
    },
    {
      "anonymous": false,
      "inputs": [
        {
          "indexed": true,
          "internalType": "bytes32",
          "name": "role",
          "type": "bytes32"
        },
        {
          "indexed": true,
          "internalType": "bytes32",
          "name": "previousAdminRole",
          "type": "bytes32"
        },
        {
          "indexed": true,
          "internalType": "bytes32",
          "name": "newAdminRole",
          "type": "bytes32"
        }
      ],
      "name": "RoleAdminChanged",
      "type": "event"
    },
    {
      "anonymous": false,
      "inputs": [
        {
          "indexed": true,
          "internalType": "bytes32",
          "name": "role",
          "type": "bytes32"
        },
        {
          "indexed": true,
          "internalType": "address",
          "name": "account",
          "type": "address"
        },
        {
          "indexed": true,
          "internalType": "address",
          "name": "sender",
          "type": "address"
        }
      ],
      "name": "RoleGranted",
      "type": "event"
    },
    {
      "anonymous": false,
      "inputs": [
        {
          "indexed": true,
          "internalType": "bytes32",
          "name": "role",
          "type": "bytes32"
        },
        {
          "indexed": true,
          "internalType": "address",
          "name": "account",
          "type": "address"
        },
        {
          "indexed": true,
          "internalType": "address",
          "name": "sender",
          "type": "address"
        }
      ],
      "name": "RoleRevoked",
      "type": "event"
    },
    {
      "anonymous": false,
      "inputs": [
        {
          "indexed": false,
          "internalType": "address",
          "name": "account",
          "type": "address"
        }
      ],
      "name": "Unpaused",
      "type": "event"
    },
    {
      "inputs": [],
      "name": "DEFAULT_ADMIN_ROLE",
      "outputs": [
        {
          "internalType": "bytes32",
          "name": "",
          "type": "bytes32"
        }
      ],
      "stateMutability": "view",
      "type": "function"
    },
    {
      "inputs": [],
      "name": "TREASURY_ROLE",
      "outputs": [
        {
          "internalType": "bytes32",
          "name": "",
          "type": "bytes32"
        }
      ],
      "stateMutability": "view",
      "type": "function"
    },
    {
      "inputs": [],
      "name": "betTip",
      "outputs": [
        {
          "internalType": "uint256",
          "name": "",
          "type": "uint256"
        }
      ],
      "stateMutability": "view",
      "type": "function"
    },
    {
      "inputs": [],
      "name": "confetti",
      "outputs": [
        {
          "internalType": "contract IERC20",
          "name": "",
          "type": "address"
        }
      ],
      "stateMutability": "view",
      "type": "function"
    },
    {
      "inputs": [],
      "name": "defaultBet",
      "outputs": [
        {
          "internalType": "uint256",
          "name": "",
          "type": "uint256"
        }
      ],
      "stateMutability": "view",
      "type": "function"
    },
    {
      "inputs": [],
      "name": "defaultMaxParticipants",
      "outputs": [
        {
          "internalType": "uint16",
          "name": "",
          "type": "uint16"
        }
      ],
      "stateMutability": "view",
      "type": "function"
    },
    {
      "inputs": [],
      "name": "defaultStartingRoll",
      "outputs": [
        {
          "internalType": "uint16",
          "name": "",
          "type": "uint16"
        }
      ],
      "stateMutability": "view",
      "type": "function"
    },
    {
      "inputs": [
        {
          "internalType": "bytes32",
          "name": "role",
          "type": "bytes32"
        }
      ],
      "name": "getRoleAdmin",
      "outputs": [
        {
          "internalType": "bytes32",
          "name": "",
          "type": "bytes32"
        }
      ],
      "stateMutability": "view",
      "type": "function"
    },
    {
      "inputs": [
        {
          "internalType": "bytes32",
          "name": "role",
          "type": "bytes32"
        },
        {
          "internalType": "uint256",
          "name": "index",
          "type": "uint256"
        }
      ],
      "name": "getRoleMember",
      "outputs": [
        {
          "internalType": "address",
          "name": "",
          "type": "address"
        }
      ],
      "stateMutability": "view",
      "type": "function"
    },
    {
      "inputs": [
        {
          "internalType": "bytes32",
          "name": "role",
          "type": "bytes32"
        }
      ],
      "name": "getRoleMemberCount",
      "outputs": [
        {
          "internalType": "uint256",
          "name": "",
          "type": "uint256"
        }
      ],
      "stateMutability": "view",
      "type": "function"
    },
    {
      "inputs": [
        {
          "internalType": "bytes32",
          "name": "role",
          "type": "bytes32"
        },
        {
          "internalType": "address",
          "name": "account",
          "type": "address"
        }
      ],
      "name": "grantRole",
      "outputs": [],
      "stateMutability": "nonpayable",
      "type": "function"
    },
    {
      "inputs": [
        {
          "internalType": "bytes32",
          "name": "role",
          "type": "bytes32"
        },
        {
          "internalType": "address",
          "name": "account",
          "type": "address"
        }
      ],
      "name": "hasRole",
      "outputs": [
        {
          "internalType": "bool",
          "name": "",
          "type": "bool"
        }
      ],
      "stateMutability": "view",
      "type": "function"
    },
    {
      "inputs": [],
      "name": "maxBet",
      "outputs": [
        {
          "internalType": "uint256",
          "name": "",
          "type": "uint256"
        }
      ],
      "stateMutability": "view",
      "type": "function"
    },
    {
      "inputs": [],
      "name": "maxStartingRoll",
      "outputs": [
        {
          "internalType": "uint16",
          "name": "",
          "type": "uint16"
        }
      ],
      "stateMutability": "view",
      "type": "function"
    },
    {
      "inputs": [],
      "name": "minBet",
      "outputs": [
        {
          "internalType": "uint256",
          "name": "",
          "type": "uint256"
        }
      ],
      "stateMutability": "view",
      "type": "function"
    },
    {
      "inputs": [],
      "name": "minStartingRoll",
      "outputs": [
        {
          "internalType": "uint16",
          "name": "",
          "type": "uint16"
        }
      ],
      "stateMutability": "view",
      "type": "function"
    },
    {
      "inputs": [],
      "name": "owner",
      "outputs": [
        {
          "internalType": "address",
          "name": "",
          "type": "address"
        }
      ],
      "stateMutability": "view",
      "type": "function"
    },
    {
      "inputs": [],
      "name": "paused",
      "outputs": [
        {
          "internalType": "bool",
          "name": "",
          "type": "bool"
        }
      ],
      "stateMutability": "view",
      "type": "function"
    },
    {
      "inputs": [],
      "name": "renounceOwnership",
      "outputs": [],
      "stateMutability": "nonpayable",
      "type": "function"
    },
    {
      "inputs": [
        {
          "internalType": "bytes32",
          "name": "role",
          "type": "bytes32"
        },
        {
          "internalType": "address",
          "name": "account",
          "type": "address"
        }
      ],
      "name": "renounceRole",
      "outputs": [],
      "stateMutability": "nonpayable",
      "type": "function"
    },
    {
      "inputs": [
        {
          "internalType": "bytes32",
          "name": "role",
          "type": "bytes32"
        },
        {
          "internalType": "address",
          "name": "account",
          "type": "address"
        }
      ],
      "name": "revokeRole",
      "outputs": [],
      "stateMutability": "nonpayable",
      "type": "function"
    },
    {
      "inputs": [],
      "name": "seeder",
      "outputs": [
        {
          "internalType": "contract RpSeeder",
          "name": "",
          "type": "address"
        }
      ],
      "stateMutability": "view",
      "type": "function"
    },
    {
      "inputs": [
        {
          "internalType": "bytes4",
          "name": "interfaceId",
          "type": "bytes4"
        }
      ],
      "name": "supportsInterface",
      "outputs": [
        {
          "internalType": "bool",
          "name": "",
          "type": "bool"
        }
      ],
      "stateMutability": "view",
      "type": "function"
    },
    {
      "inputs": [],
      "name": "tipAmount",
      "outputs": [
        {
          "internalType": "uint256",
          "name": "",
          "type": "uint256"
        }
      ],
      "stateMutability": "view",
      "type": "function"
    },
    {
      "inputs": [
        {
          "internalType": "address",
          "name": "newOwner",
          "type": "address"
        }
      ],
      "name": "transferOwnership",
      "outputs": [],
      "stateMutability": "nonpayable",
      "type": "function"
    },
    {
      "inputs": [],
      "name": "treasury",
      "outputs": [
        {
          "internalType": "address",
          "name": "",
          "type": "address"
        }
      ],
      "stateMutability": "view",
      "type": "function"
    },
    {
      "inputs": [],
      "name": "treasuryAmount",
      "outputs": [
        {
          "internalType": "uint256",
          "name": "",
          "type": "uint256"
        }
      ],
      "stateMutability": "view",
      "type": "function"
    },
    {
      "inputs": [],
      "name": "treasuryFee",
      "outputs": [
        {
          "internalType": "uint256",
          "name": "",
          "type": "uint256"
        }
      ],
      "stateMutability": "view",
      "type": "function"
    },
    {
      "inputs": [
        {
          "internalType": "uint256",
          "name": "treasuryFee_",
          "type": "uint256"
        }
      ],
      "name": "setTreasuryFee",
      "outputs": [],
      "stateMutability": "nonpayable",
      "type": "function"
    },
    {
      "inputs": [],
      "name": "withdrawTax",
      "outputs": [],
      "stateMutability": "nonpayable",
      "type": "function"
    },
    {
      "inputs": [],
      "name": "withdrawTip",
      "outputs": [],
      "stateMutability": "nonpayable",
      "type": "function"
    },
    {
      "inputs": [
        {
          "internalType": "uint256",
          "name": "betTip_",
          "type": "uint256"
        }
      ],
      "name": "setBetTip",
      "outputs": [],
      "stateMutability": "nonpayable",
      "type": "function"
    },
    {
      "inputs": [
        {
          "internalType": "uint256",
          "name": "min",
          "type": "uint256"
        },
        {
          "internalType": "uint256",
          "name": "max",
          "type": "uint256"
        },
        {
          "internalType": "uint256",
          "name": "default_",
          "type": "uint256"
        }
      ],
      "name": "setBets",
      "outputs": [],
      "stateMutability": "nonpayable",
      "type": "function"
    },
    {
      "inputs": [
        {
          "internalType": "uint16",
          "name": "min",
          "type": "uint16"
        },
        {
          "internalType": "uint16",
          "name": "max",
          "type": "uint16"
        },
        {
          "internalType": "uint16",
          "name": "default_",
          "type": "uint16"
        }
      ],
      "name": "setStartingRolls",
      "outputs": [],
      "stateMutability": "nonpayable",
      "type": "function"
    },
    {
      "inputs": [
        {
          "internalType": "uint16",
          "name": "value",
          "type": "uint16"
        }
      ],
      "name": "setDefaultMaxParticipants",
      "outputs": [],
      "stateMutability": "nonpayable",
      "type": "function"
    },
    {
      "inputs": [],
      "name": "currentRound",
      "outputs": [
        {
          "internalType": "uint256",
          "name": "",
          "type": "uint256"
        }
      ],
      "stateMutability": "view",
      "type": "function"
    },
    {
      "inputs": [
        {
          "internalType": "uint256",
          "name": "roundNum",
          "type": "uint256"
        }
      ],
      "name": "getSeed",
      "outputs": [
        {
          "internalType": "uint256",
          "name": "",
          "type": "uint256"
        }
      ],
      "stateMutability": "view",
      "type": "function"
    },
    {
      "inputs": [
        {
          "internalType": "bytes32",
          "name": "gameId",
          "type": "bytes32"
        }
      ],
      "name": "getGame",
      "outputs": [
        {
          "components": [
            {
              "internalType": "uint256",
              "name": "roundNum",
              "type": "uint256"
            },
            {
              "internalType": "uint256",
              "name": "poolBet",
              "type": "uint256"
            },
            {
              "internalType": "address[]",
              "name": "participants",
              "type": "address[]"
            },
            {
              "internalType": "uint16",
              "name": "startingRoll",
              "type": "uint16"
            },
            {
              "internalType": "uint16",
              "name": "maxParticipants",
              "type": "uint16"
            }
          ],
          "internalType": "struct ConfettiRoll.Game",
          "name": "",
          "type": "tuple"
        }
      ],
      "stateMutability": "view",
      "type": "function"
    },
    {
      "inputs": [
        {
          "internalType": "bytes32",
          "name": "gameId",
          "type": "bytes32"
        }
      ],
      "name": "getGameResults",
      "outputs": [
        {
          "components": [
            {
              "internalType": "uint256",
              "name": "finalizedSeed",
              "type": "uint256"
            },
            {
              "internalType": "uint256",
              "name": "prizeShare",
              "type": "uint256"
            },
            {
              "internalType": "address",
              "name": "loser",
              "type": "address"
            }
          ],
          "internalType": "struct ConfettiRoll.GameResult",
          "name": "",
          "type": "tuple"
        }
      ],
      "stateMutability": "view",
      "type": "function"
    },
    {
      "inputs": [
        {
          "internalType": "bytes32",
          "name": "gameId",
          "type": "bytes32"
        }
      ],
      "name": "isGameFinished",
      "outputs": [
        {
          "internalType": "bool",
          "name": "",
          "type": "bool"
        }
      ],
      "stateMutability": "view",
      "type": "function"
    },
    {
      "inputs": [
        {
          "internalType": "bytes32",
          "name": "gameId",
          "type": "bytes32"
        }
      ],
      "name": "getRollingPlayers",
      "outputs": [
        {
          "internalType": "address[]",
          "name": "",
          "type": "address[]"
        }
      ],
      "stateMutability": "view",
      "type": "function"
    },
    {
      "inputs": [
        {
          "internalType": "bytes32",
          "name": "gameId",
          "type": "bytes32"
        }
      ],
      "name": "getRolls",
      "outputs": [
        {
          "internalType": "uint256[]",
          "name": "",
          "type": "uint256[]"
        }
      ],
      "stateMutability": "view",
      "type": "function"
    },
    {
      "inputs": [
        {
          "internalType": "address",
          "name": "player",
          "type": "address"
        }
      ],
      "name": "getPendingGames",
      "outputs": [
        {
          "internalType": "bytes32[]",
          "name": "",
          "type": "bytes32[]"
        }
      ],
      "stateMutability": "view",
      "type": "function"
    },
    {
      "inputs": [
        {
          "internalType": "address",
          "name": "player",
          "type": "address"
        },
        {
          "internalType": "bytes32",
          "name": "gameId",
          "type": "bytes32"
        }
      ],
      "name": "canCollectReward",
      "outputs": [
        {
          "internalType": "bool",
          "name": "",
          "type": "bool"
        }
      ],
      "stateMutability": "view",
      "type": "function"
    },
    {
      "inputs": [
        {
          "internalType": "address",
          "name": "player",
          "type": "address"
        }
      ],
      "name": "getPendingRewards",
      "outputs": [
        {
          "internalType": "uint256",
          "name": "",
          "type": "uint256"
        }
      ],
      "stateMutability": "view",
      "type": "function"
    },
    {
      "inputs": [],
      "name": "withdrawRewards",
      "outputs": [
        {
          "internalType": "uint256",
          "name": "",
          "type": "uint256"
        }
      ],
      "stateMutability": "nonpayable",
      "type": "function"
    },
    {
      "inputs": [
        {
          "internalType": "address",
          "name": "initializer",
          "type": "address"
        },
        {
          "internalType": "uint256",
          "name": "roundNum",
          "type": "uint256"
        }
      ],
      "name": "calcGameId",
      "outputs": [
        {
          "internalType": "bytes32",
          "name": "",
          "type": "bytes32"
        }
      ],
      "stateMutability": "pure",
      "type": "function"
    },
    {
      "inputs": [],
      "name": "currentGlobalGameId",
      "outputs": [
        {
          "internalType": "bytes32",
          "name": "",
          "type": "bytes32"
        }
      ],
      "stateMutability": "view",
      "type": "function"
    },
    {
      "inputs": [
        {
          "internalType": "address",
          "name": "initializer",
          "type": "address"
        },
        {
          "internalType": "uint256",
          "name": "poolBet",
          "type": "uint256"
        },
        {
          "internalType": "uint16",
          "name": "startingRoll",
          "type": "uint16"
        },
        {
          "internalType": "uint16",
          "name": "maxParticipants",
          "type": "uint16"
        },
        {
          "internalType": "uint256",
          "name": "roundNum",
          "type": "uint256"
        }
      ],
      "name": "createGame",
      "outputs": [
        {
          "internalType": "bytes32",
          "name": "",
          "type": "bytes32"
        }
      ],
      "stateMutability": "nonpayable",
      "type": "function"
    },
    {
      "inputs": [
        {
          "internalType": "bytes32",
          "name": "gameId",
          "type": "bytes32"
        }
      ],
      "name": "joinGame",
      "outputs": [],
      "stateMutability": "nonpayable",
      "type": "function"
    },
    {
      "inputs": [],
      "name": "joinGlobalGame",
      "outputs": [
        {
          "internalType": "bytes32",
          "name": "",
          "type": "bytes32"
        }
      ],
      "stateMutability": "nonpayable",
      "type": "function"
    },
    {
      "inputs": [
        {
          "internalType": "address[]",
          "name": "players",
          "type": "address[]"
        },
        {
          "internalType": "uint256",
          "name": "seed",
          "type": "uint256"
        }
      ],
      "name": "shuffledPlayers",
      "outputs": [
        {
          "internalType": "address[]",
          "name": "",
          "type": "address[]"
        }
      ],
      "stateMutability": "pure",
      "type": "function"
    },
    {
      "inputs": [
        {
          "internalType": "bytes32",
          "name": "gameId",
          "type": "bytes32"
        }
      ],
      "name": "commenceGame",
      "outputs": [],
      "stateMutability": "nonpayable",
      "type": "function"
    },
    {
      "inputs": [],
      "name": "pause",
      "outputs": [],
      "stateMutability": "nonpayable",
      "type": "function"
    },
    {
      "inputs": [],
      "name": "unpause",
      "outputs": [],
      "stateMutability": "nonpayable",
      "type": "function"
    }
  ],
  "bytecode": "0x60e06040526101f4600555603260065567016345785d8a0000600755680821ab0d441498000060085567d02ab486cedc0000600955600a80546001600160401b0319166664006403e800021790553480156200005a57600080fd5b5060405162003f8738038062003f878339810160408190526200007d91620002b8565b6200008833620000e8565b6002805460ff60a01b19169055620000c17fe1dcbdb91df27212a29bc27177c840cf2f819ecf2187432e1fac86c2dd5dfca9826200013a565b6001600160a01b0391821660a052811660c05216608052600060038190556004556200030c565b600280546001600160a01b038381166001600160a01b0319831681179093556040519116919082907f8be0079c531659141344cd1fd0a4f28419497f9722a3daafe3b4186f6b6457e090600090a35050565b6200015182826200017d60201b62002aa81760201c565b60008281526001602090815260409091206200017891839062002ab66200018d821b17901c565b505050565b620001898282620001ad565b5050565b6000620001a4836001600160a01b0384166200024d565b90505b92915050565b6000828152602081815260408083206001600160a01b038516845290915290205460ff1662000189576000828152602081815260408083206001600160a01b03851684529091529020805460ff19166001179055620002093390565b6001600160a01b0316816001600160a01b0316837f2f8788117e7eff1d82e926ec794901d17c78024a50270940304540a733656f0d60405160405180910390a45050565b60008181526001830160205260408120546200029657508154600181810184556000848152602080822090930184905584548482528286019093526040902091909155620001a7565b506000620001a7565b6001600160a01b0381168114620002b557600080fd5b50565b600080600060608486031215620002ce57600080fd5b8351620002db816200029f565b6020850151909350620002ee816200029f565b604085015190925062000301816200029f565b809150509250925092565b60805160a05160c051613c05620003826000396000818161050a01526126cc0152600081816105490152818161169001528181611f740152818161278e015261282b01526000818161073501528181611040015281816121b7015281816124030152818161254e015261269f0152613c056000f3fe608060405234801561001057600080fd5b506004361061036d5760003560e01c80637aa8977f116101d35780639f20829d11610104578063d547741f116100a2578063e0d4ea371161007c578063e0d4ea371461080b578063f18a065e1461081e578063f2fde38b14610831578063f6ed20171461084457600080fd5b8063d547741f146107e8578063d9801146146107fb578063dfa20f0a1461080357600080fd5b8063c7b8981c116100de578063c7b8981c1461079d578063ca15c873146107a5578063cc32d176146107b8578063d11a57ec146107c157600080fd5b80639f20829d1461076f578063a217fddf14610782578063bf4747661461078a57600080fd5b806391d148541161017157806397bebf9d1161014b57806397bebf9d1461071457806399b7e5d71461071d5780639e609005146107305780639e9ed8211461075757600080fd5b806391d14854146106c1578063951c41af146106f85780639619367d1461070b57600080fd5b80638a19c8bc116101ad5780638a19c8bc1461068d5780638da5cb5b146106955780638f468988146106a65780639010d07c146106ae57600080fd5b80637aa8977f1461065f57806382f4aeb1146106725780638456cb591461068557600080fd5b806342dc6b8b116102ad57806368f46b621161024b578063715018a611610225578063715018a6146105cf57806373931bbf146105d75780637559b881146105f757806377e741c71461064c57600080fd5b806368f46b621461056b5780636d6b0eb31461057e5780636e853925146105bc57600080fd5b80635c975abb116102875780635c975abb146104ea578063608ac8d5146104fc57806361d027b314610505578063684931ed1461054457600080fd5b806342dc6b8b146104ae5780634c223a82146104b75780635a744c4d146104ca57600080fd5b80632c0c4af91161031a578063345d9a8d116102f4578063345d9a8d1461047457806336568abe1461048a578063368acb091461049d5780633f4ba83a146104a657600080fd5b80632c0c4af9146104365780632e5b2168146104565780632f2ff15d1461045f57600080fd5b8063248a9ca31161034b578063248a9ca3146103cf57806328119fb8146104005780632ad9bf951461042e57600080fd5b806301b654961461037257806301ffc9a71461039e578063230669e5146103c1575b600080fd5b600a546103869062010000900461ffff1681565b60405161ffff90911681526020015b60405180910390f35b6103b16103ac3660046135dc565b610857565b6040519015158152602001610395565b600a546103869061ffff1681565b6103f26103dd366004613606565b60009081526020819052604090206001015490565b604051908152602001610395565b6103b161040e366004613606565b6000908152600b60205260409020600201546001600160a01b0316151590565b6103f261089b565b610449610444366004613606565b6108ae565b604051610395919061361f565b6103f260085481565b61047261046d36600461367a565b610b8d565b005b600a5461038690640100000000900461ffff1681565b61047261049836600461367a565b610bb4565b6103f260045481565b610472610bd6565b6103f260065481565b6104726104c53660046136b8565b610c3a565b6104dd6104d8366004613606565b610cbc565b60405161039591906136d3565b600254600160a01b900460ff166103b1565b6103f260035481565b61052c7f000000000000000000000000000000000000000000000000000000000000000081565b6040516001600160a01b039091168152602001610395565b61052c7f000000000000000000000000000000000000000000000000000000000000000081565b6103b1610579366004613714565b610e33565b61059161058c366004613606565b610e80565b604080518251815260208084015190820152918101516001600160a01b031690820152606001610395565b6104726105ca366004613606565b610eef565b610472611314565b6105ea6105e5366004613606565b611378565b604051610395919061373e565b6103f2610605366004613714565b6040516bffffffffffffffffffffffff19606084901b1660208201526034810182905260009060540160405160208183030381529060405280519060200120905092915050565b61047261065a366004613606565b61145c565b61044961066d3660046137d0565b6114df565b610472610680366004613606565b6115cb565b61047261162a565b6103f261168c565b6002546001600160a01b031661052c565b6103f2611710565b61052c6106bc3660046137eb565b6117c3565b6103b16106cf36600461367a565b6000918252602082815260408084206001600160a01b0393909316845291905290205460ff1690565b6103f261070636600461380d565b6117db565b6103f260075481565b6103f260095481565b61047261072b366004613862565b611ba8565b61052c7f000000000000000000000000000000000000000000000000000000000000000081565b600a54610386906601000000000000900461ffff1681565b6104dd61077d3660046138a4565b611c10565b6103f2600081565b610472610798366004613606565b611d58565b6103f26122b7565b6103f26107b3366004613606565b61247f565b6103f260055481565b6103f27fe1dcbdb91df27212a29bc27177c840cf2f819ecf2187432e1fac86c2dd5dfca981565b6104726107f636600461367a565b612496565b6104726124a0565b610472612607565b6103f2610819366004613606565b612752565b61047261082c36600461396f565b61289e565b61047261083f3660046137d0565b612937565b6103f26108523660046137d0565b612a16565b60006001600160e01b031982167f5a05180f000000000000000000000000000000000000000000000000000000001480610895575061089582612acb565b92915050565b60006108a93061060561168c565b905090565b6000818152600c60209081526040808320815160a0810183528154815260018201548185015260028201805484518187028101870186528181526060979693958601939092919083018282801561092e57602002820191906000526020600020905b81546001600160a01b03168152600190910190602001808311610910575b50505091835250506003919091015461ffff80821660208401526201000090910416604090910152805190915060009061096790612752565b9050600081116109be5760405162461bcd60e51b815260206004820152601360248201527f47616d65206e6f7420736565646564207965740000000000000000000000000060448201526064015b60405180910390fd5b60028260400151511015610a145760405162461bcd60e51b815260206004820152601760248201527f4e656564206174206c65617374203220706c617965727300000000000000000060448201526064016109b5565b6000826060015161ffff1667ffffffffffffffff811115610a3757610a3761388e565b604051908082528060200260200182016040528015610a60578160200160208202803683370190505b50606084015190915061ffff1660005b8115610ae55760408051602080820184905281830187905282518083038401815260609092019092528051910120610aa99083906139c8565b9150610ab68260016139f2565b838281518110610ac857610ac8613a0a565b602090810291909101015280610add81613a20565b915050610a70565b60008167ffffffffffffffff811115610b0057610b0061388e565b604051908082528060200260200182016040528015610b29578160200160208202803683370190505b50905060005b8151811015610b8157848181518110610b4a57610b4a613a0a565b6020026020010151828281518110610b6457610b64613a0a565b602090810291909101015280610b7981613a20565b915050610b2f565b50979650505050505050565b610b978282612b32565b6000828152600160205260409020610baf9082612ab6565b505050565b610bbe8282612b58565b6000828152600160205260409020610baf9082612be0565b6002546001600160a01b03163314610c305760405162461bcd60e51b815260206004820181905260248201527f4f776e61626c653a2063616c6c6572206973206e6f7420746865206f776e657260448201526064016109b5565b610c38612bf5565b565b6002546001600160a01b03163314610c945760405162461bcd60e51b815260206004820181905260248201527f4f776e61626c653a2063616c6c6572206973206e6f7420746865206f776e657260448201526064016109b5565b600a805461ffff90921666010000000000000267ffff00000000000019909216919091179055565b6000818152600c60209081526040808320815160a08101835281548152600182015481850152600282018054845181870281018701865281815260609796939586019390929190830182828015610d3c57602002820191906000526020600020905b81546001600160a01b03168152600190910190602001808311610d1e575b50505091835250506003919091015461ffff808216602084015262010000909104166040909101528051909150600090610d7590612752565b905060008111610dc75760405162461bcd60e51b815260206004820152601360248201527f47616d65206e6f7420736565646564207965740000000000000000000000000060448201526064016109b5565b60028260400151511015610e1d5760405162461bcd60e51b815260206004820152601760248201527f4e656564206174206c65617374203220706c617965727300000000000000000060448201526064016109b5565b610e2b826040015182611c10565b949350505050565b6000818152600b60205260408120600201546001600160a01b031615158015610e7957506000828152600b60205260409020600201546001600160a01b03848116911614155b9392505050565b610ead6040518060600160405280600081526020016000815260200160006001600160a01b031681525090565b506000908152600b6020908152604091829020825160608101845281548152600182015492810192909252600201546001600160a01b03169181019190915290565b600254600160a01b900460ff1615610f3c5760405162461bcd60e51b815260206004820152601060248201526f14185d5cd8589b194e881c185d5cd95960821b60448201526064016109b5565b6000818152600c60209081526040808320815160a08101835281548152600182015481850152600282018054845181870281018701865281815292959394860193830182828015610fb657602002820191906000526020600020905b81546001600160a01b03168152600190910190602001808311610f98575b50505091835250506003919091015461ffff80821660208401526201000090910416604091820152810151519091506110315760405162461bcd60e51b815260206004820152601660248201527f4e6f20706c617965727320696e207468652067616d650000000000000000000060448201526064016109b5565b80604001515160010361115b577f00000000000000000000000000000000000000000000000000000000000000006001600160a01b031663a9059cbb826040015160008151811061108457611084613a0a565b602002602001015183602001516040518363ffffffff1660e01b81526004016110c29291906001600160a01b03929092168252602082015260400190565b6020604051808303816000875af11580156110e1573d6000803e3d6000fd5b505050506040513d601f19601f820116820180604052508101906111059190613a39565b50610baf82600d6000846040015160008151811061112557611125613a0a565b60200260200101516001600160a01b03166001600160a01b03168152602001908152602001600020612c9b90919063ffffffff16565b600061116683612ca7565b6000848152600b60205260409020600201549091506001600160a01b03166111d05760405162461bcd60e51b815260206004820152601e60248201527f47616d65206e6f742066696e69736865642061667465722073696d756c2e000060448201526064016109b5565b60028101546001600160a01b031661122a5760405162461bcd60e51b815260206004820152601a60248201527f46696e69736865642067616d6520686173206e6f206c6f73657200000000000060448201526064016109b5565b60028101546040516001600160a01b039091169084907fd5a82ebfa8edb5cbec605a5fe6ef6469bb00d282b0d42748e6434ced9617b5b090600090a36000612710600654846020015161127d9190613a5b565b6112879190613a7a565b9050600081846020015161129b9190613a8e565b90506000612710600554836112b09190613a5b565b6112ba9190613a7a565b905080600460008282546112ce91906139f2565b90915550506040850151516112e590600190613a8e565b6112ef8284613a8e565b6112f99190613a7a565b61130390836139f2565b846001018190555050505050505b50565b6002546001600160a01b0316331461136e5760405162461bcd60e51b815260206004820181905260248201527f4f776e61626c653a2063616c6c6572206973206e6f7420746865206f776e657260448201526064016109b5565b610c386000612fad565b6113b26040518060a00160405280600081526020016000815260200160608152602001600061ffff168152602001600061ffff1681525090565b6000828152600c6020908152604091829020825160a081018452815481526001820154818401526002820180548551818602810186018752818152929593949386019383018282801561142e57602002820191906000526020600020905b81546001600160a01b03168152600190910190602001808311611410575b50505091835250506003919091015461ffff8082166020840152620100009091041660409091015292915050565b7fe1dcbdb91df27212a29bc27177c840cf2f819ecf2187432e1fac86c2dd5dfca9611487813361300c565b6105dc8211156114d95760405162461bcd60e51b815260206004820181905260248201527f4c6574207468652067616d626c6572732067616d626c6520696e20706561636560448201526064016109b5565b50600555565b6001600160a01b0381166000908152600d60205260408120606091906115049061308a565b67ffffffffffffffff81111561151c5761151c61388e565b604051908082528060200260200182016040528015611545578160200160208202803683370190505b50905060005b6001600160a01b0384166000908152600d6020526040902061156c9061308a565b8110156115c4576001600160a01b0384166000908152600d602052604090206115959082613094565b8282815181106115a7576115a7613a0a565b6020908102919091010152806115bc81613a20565b91505061154b565b5092915050565b6002546001600160a01b031633146116255760405162461bcd60e51b815260206004820181905260248201527f4f776e61626c653a2063616c6c6572206973206e6f7420746865206f776e657260448201526064016109b5565b600655565b6002546001600160a01b031633146116845760405162461bcd60e51b815260206004820181905260248201527f4f776e61626c653a2063616c6c6572206973206e6f7420746865206f776e657260448201526064016109b5565b610c386130a0565b60007f00000000000000000000000000000000000000000000000000000000000000006001600160a01b0316633b1fee6c6040518163ffffffff1660e01b8152600401602060405180830381865afa1580156116ec573d6000803e3d6000fd5b505050506040513d601f19601f820116820180604052508101906108a99190613aa5565b600254600090600160a01b900460ff16156117605760405162461bcd60e51b815260206004820152601060248201526f14185d5cd8589b194e881c185d5cd95960821b60448201526064016109b5565b600061176a61089b565b6000818152600c602052604081206003015491925061ffff90911690036117ba57600954600a546117b891309161ffff6401000000008204811691660100000000000090041661070661168c565b505b6108a981611d58565b6000828152600160205260408120610e799083613094565b600254600090600160a01b900460ff161561182b5760405162461bcd60e51b815260206004820152601060248201526f14185d5cd8589b194e881c185d5cd95960821b60448201526064016109b5565b8361ffff1660000361184957600a54640100000000900461ffff1693505b846000036118575760095494505b60028361ffff16101561187857600a546601000000000000900461ffff1692505b600061188383612752565b905080156118d35760405162461bcd60e51b815260206004820152601360248201527f47616d6520616c7265616479207365656465640000000000000000000000000060448201526064016109b5565b6118db61168c565b8310156119505760405162461bcd60e51b815260206004820152602260248201527f43616e2774206372656174652067616d657320666f72207061737420726f756e60448201527f647300000000000000000000000000000000000000000000000000000000000060648201526084016109b5565b600754861015801561196457506008548611155b6119b05760405162461bcd60e51b815260206004820152601760248201527f426574206f757473696465206c6567616c2072616e676500000000000000000060448201526064016109b5565b600a5461ffff908116908616108015906119da5750600a5461ffff62010000909104811690861611155b611a265760405162461bcd60e51b815260206004820152601e60248201527f537461727420726f6c6c206f757473696465206c6567616c2072616e6765000060448201526064016109b5565b6001600160a01b038716331480611a8b57506001600160a01b03871630148015611a51575060095486145b8015611a6d5750600a5461ffff86811664010000000090920416145b8015611a8b5750600a5461ffff858116660100000000000090920416145b611a9457600080fd5b604080516bffffffffffffffffffffffff1960608a901b16602080830191909152603480830187905283518084039091018152605490920183528151918101919091206000818152600b909252919020600201546001600160a01b031615611b3e5760405162461bcd60e51b815260206004820152601560248201527f47616d6520616c72656164792066696e6973686564000000000000000000000060448201526064016109b5565b6000818152600c6020526040808220600181018a9055868155600301805461ffff898116620100000263ffffffff19909216908b16171790555182917f7195cf6f05afbbfa979e2346d841dcb24356d5956eec907794f47ff7acaf701291a2979650505050505050565b6002546001600160a01b03163314611c025760405162461bcd60e51b815260206004820181905260248201527f4f776e61626c653a2063616c6c6572206973206e6f7420746865206f776e657260448201526064016109b5565b600792909255600855600955565b606082600080805b8651811015611d4d57808751611c2e9190613a8e565b878281518110611c4057611c40613a0a565b602002602001015187604051602001611c7792919060609290921b6bffffffffffffffffffffffff19168252601482015260340190565b6040516020818303038152906040528051906020012060001c611c9a91906139c8565b9150838181518110611cae57611cae613a0a565b60200260200101519250838282611cc591906139f2565b81518110611cd557611cd5613a0a565b6020026020010151848281518110611cef57611cef613a0a565b6001600160a01b03909216602092830291909101909101528284611d1384846139f2565b81518110611d2357611d23613a0a565b6001600160a01b039092166020928302919091019091015280611d4581613a20565b915050611c18565b509195945050505050565b600254600160a01b900460ff1615611da55760405162461bcd60e51b815260206004820152601060248201526f14185d5cd8589b194e881c185d5cd95960821b60448201526064016109b5565b6000818152600c60209081526040808320815160a08101835281548152600182015481850152600282018054845181870281018701865281815292959394860193830182828015611e1f57602002820191906000526020600020905b81546001600160a01b03168152600190910190602001808311611e01575b50505091835250506003919091015461ffff8082166020840152620100009091048116604090920191909152606082015191925016611ea05760405162461bcd60e51b815260206004820152601660248201527f47616d6520646f65736e2774206578697374207965740000000000000000000060448201526064016109b5565b6000828152600b60205260409020600201546001600160a01b031615611f085760405162461bcd60e51b815260206004820152601560248201527f47616d6520616c72656164792066696e6973686564000000000000000000000060448201526064016109b5565b6000611f178260000151612752565b90508015611f675760405162461bcd60e51b815260206004820152601360248201527f47616d6520616c7265616479207365656465640000000000000000000000000060448201526064016109b5565b611f7242603c6139f2565b7f00000000000000000000000000000000000000000000000000000000000000006001600160a01b0316633c099fce6040518163ffffffff1660e01b8152600401602060405180830381865afa158015611fd0573d6000803e3d6000fd5b505050506040513d601f19601f82011682018060405250810190611ff49190613aa5565b116120415760405162461bcd60e51b815260206004820181905260248201527f5365656420696d6d696e656e743b207369676e2d757020697320636c6f73656460448201526064016109b5565b336000908152600d6020526040902061205a9084613128565b156120a75760405162461bcd60e51b815260206004820152600e60248201527f416c7265616479206a6f696e656400000000000000000000000000000000000060448201526064016109b5565b60808201516000848152600c602052604090206002015461ffff9091161180156120f057506006546120db90612710613a7a565b6000848152600c602052604090206002015411155b61213c5760405162461bcd60e51b815260206004820152601060248201527f546f6f206d616e7920706c61796572730000000000000000000000000000000060448201526064016109b5565b600061271060065484602001516121539190613a5b565b61215d9190613a7a565b9050806003600082825461217191906139f2565b909155505060208301516040517f23b872dd00000000000000000000000000000000000000000000000000000000815233600482015230602482015260448101919091527f00000000000000000000000000000000000000000000000000000000000000006001600160a01b0316906323b872dd906064016020604051808303816000875af1158015612208573d6000803e3d6000fd5b505050506040513d601f19601f8201168201806040525081019061222c9190613a39565b506000848152600c60209081526040808320600201805460018101825590845282842001805473ffffffffffffffffffffffffffffffffffffffff1916339081179091558352600d90915290206122839085613140565b50604051339085907fdd5a0e5e0c7946c099f2ed766c0b633dd2eb1e1e10743bab89f871e8038b080b90600090a350505050565b600254600090600160a01b900460ff16156123075760405162461bcd60e51b815260206004820152601060248201526f14185d5cd8589b194e881c185d5cd95960821b60448201526064016109b5565b336000805b6001600160a01b0383166000908152600d6020526040902061232d9061308a565b8110156123e6576001600160a01b0383166000908152600d602052604081206123569083613094565b90506123628482610e33565b15612386576000818152600b602052604090206001015461238390846139f2565b92505b6000818152600b60205260409020600201546001600160a01b0316156123d2576001600160a01b0384166000908152600d602052604090206123c89082612c9b565b50600091506123e0565b816123dc81613a20565b9250505b5061230c565b5060405163a9059cbb60e01b8152336004820152602481018290527f00000000000000000000000000000000000000000000000000000000000000006001600160a01b03169063a9059cbb906044016020604051808303816000875af1158015612454573d6000803e3d6000fd5b505050506040513d601f19601f820116820180604052508101906124789190613a39565b5091505090565b60008181526001602052604081206108959061308a565b610bbe828261314c565b6002546001600160a01b031633146124fa5760405162461bcd60e51b815260206004820181905260248201527f4f776e61626c653a2063616c6c6572206973206e6f7420746865206f776e657260448201526064016109b5565b60006003541161254c5760405162461bcd60e51b815260206004820152601360248201527f4e6f7468696e6720746f2077697468647261770000000000000000000000000060448201526064016109b5565b7f00000000000000000000000000000000000000000000000000000000000000006001600160a01b031663a9059cbb61258d6002546001600160a01b031690565b6003546040516001600160e01b031960e085901b1681526001600160a01b03909216600483015260248201526044016020604051808303816000875af11580156125db573d6000803e3d6000fd5b505050506040513d601f19601f820116820180604052508101906125ff9190613a39565b506000600355565b7fe1dcbdb91df27212a29bc27177c840cf2f819ecf2187432e1fac86c2dd5dfca9612632813361300c565b6000600454116126845760405162461bcd60e51b815260206004820152601360248201527f4e6f7468696e6720746f2077697468647261770000000000000000000000000060448201526064016109b5565b6004805460405163a9059cbb60e01b81526001600160a01b037f0000000000000000000000000000000000000000000000000000000000000000169263a9059cbb92612706927f000000000000000000000000000000000000000000000000000000000000000092016001600160a01b03929092168252602082015260400190565b6020604051808303816000875af1158015612725573d6000803e3d6000fd5b505050506040513d601f19601f820116820180604052508101906127499190613a39565b50506000600455565b6040517f591c0e1c0000000000000000000000000000000000000000000000000000000081526004810182905260009081906001600160a01b037f0000000000000000000000000000000000000000000000000000000000000000169063591c0e1c90602401602060405180830381865afa1580156127d5573d6000803e3d6000fd5b505050506040513d601f19601f820116820180604052508101906127f99190613aa5565b6040517f05b19402000000000000000000000000000000000000000000000000000000008152600481018290529091507f00000000000000000000000000000000000000000000000000000000000000006001600160a01b0316906305b1940290602401602060405180830381865afa15801561287a573d6000803e3d6000fd5b505050506040513d601f19601f82011682018060405250810190610e799190613aa5565b6002546001600160a01b031633146128f85760405162461bcd60e51b815260206004820181905260248201527f4f776e61626c653a2063616c6c6572206973206e6f7420746865206f776e657260448201526064016109b5565b600a805461ffff94851663ffffffff199091161762010000938516939093029290921765ffff0000000019166401000000009190931602919091179055565b6002546001600160a01b031633146129915760405162461bcd60e51b815260206004820181905260248201527f4f776e61626c653a2063616c6c6572206973206e6f7420746865206f776e657260448201526064016109b5565b6001600160a01b038116612a0d5760405162461bcd60e51b815260206004820152602660248201527f4f776e61626c653a206e6577206f776e657220697320746865207a65726f206160448201527f646472657373000000000000000000000000000000000000000000000000000060648201526084016109b5565b61131181612fad565b600080805b6001600160a01b0384166000908152600d60205260409020612a3c9061308a565b8110156115c4576001600160a01b0384166000908152600d60205260408120612a659083613094565b9050612a718582610e33565b15612a95576000818152600b6020526040902060010154612a9290846139f2565b92505b5080612aa081613a20565b915050612a1b565b612ab28282613172565b5050565b6000610e79836001600160a01b038416613210565b60006001600160e01b031982167f7965db0b00000000000000000000000000000000000000000000000000000000148061089557507f01ffc9a7000000000000000000000000000000000000000000000000000000006001600160e01b0319831614610895565b600082815260208190526040902060010154612b4e813361300c565b610baf8383613172565b6001600160a01b0381163314612bd65760405162461bcd60e51b815260206004820152602f60248201527f416363657373436f6e74726f6c3a2063616e206f6e6c792072656e6f756e636560448201527f20726f6c657320666f722073656c66000000000000000000000000000000000060648201526084016109b5565b612ab2828261325f565b6000610e79836001600160a01b0384166132de565b600254600160a01b900460ff16612c4e5760405162461bcd60e51b815260206004820152601460248201527f5061757361626c653a206e6f742070617573656400000000000000000000000060448201526064016109b5565b6002805460ff60a01b191690557f5db9ee0a495bf2e6ff9c91a7834c1ba4fdd244a5e8aa4e537bd38aeae4b073aa335b6040516001600160a01b03909116815260200160405180910390a1565b6000610e7983836132de565b600254600090600160a01b900460ff1615612cf75760405162461bcd60e51b815260206004820152601060248201526f14185d5cd8589b194e881c185d5cd95960821b60448201526064016109b5565b6000828152600b60205260409020600201546001600160a01b031615612d5f5760405162461bcd60e51b815260206004820152601560248201527f47616d6520616c72656164792066696e6973686564000000000000000000000060448201526064016109b5565b6000828152600c60209081526040808320815160a08101835281548152600182015481850152600282018054845181870281018701865281815292959394860193830182828015612dd957602002820191906000526020600020905b81546001600160a01b03168152600190910190602001808311612dbb575b50505091835250506003919091015461ffff808216602084015262010000909104166040909101528051909150600090612e1290612752565b905060008111612e645760405162461bcd60e51b815260206004820152601360248201527f47616d65206e6f7420736565646564207965740000000000000000000000000060448201526064016109b5565b60028260400151511015612eba5760405162461bcd60e51b815260206004820152601760248201527f4e656564206174206c65617374203220706c617965727300000000000000000060448201526064016109b5565b6000612eca836040015183611c10565b606084015190915061ffff1660005b8115612f2657604080516020810183905290810185905282906060016040516020818303038152906040528051906020012060001c81612f1b57612f1b6139b2565b069150600101612ed9565b6000838451600184612f389190613a8e565b612f4291906139c8565b81518110612f5257612f52613a0a565b60209081029190910181015160008a8152600b909252604090912060028101805473ffffffffffffffffffffffffffffffffffffffff19166001600160a01b039093169290921790915594855550929450505050505b919050565b600280546001600160a01b0383811673ffffffffffffffffffffffffffffffffffffffff19831681179093556040519116919082907f8be0079c531659141344cd1fd0a4f28419497f9722a3daafe3b4186f6b6457e090600090a35050565b6000828152602081815260408083206001600160a01b038516845290915290205460ff16612ab257613048816001600160a01b031660146133d1565b6130538360206133d1565b604051602001613064929190613aee565b60408051601f198184030181529082905262461bcd60e51b82526109b591600401613b6f565b6000610895825490565b6000610e7983836135b2565b600254600160a01b900460ff16156130ed5760405162461bcd60e51b815260206004820152601060248201526f14185d5cd8589b194e881c185d5cd95960821b60448201526064016109b5565b6002805460ff60a01b1916600160a01b1790557f62e78cea01bee320cd4e420270b5ea74000d11b0c9f74754ebdbfc544b05a258612c7e3390565b60008181526001830160205260408120541515610e79565b6000610e798383613210565b600082815260208190526040902060010154613168813361300c565b610baf838361325f565b6000828152602081815260408083206001600160a01b038516845290915290205460ff16612ab2576000828152602081815260408083206001600160a01b03851684529091529020805460ff191660011790556131cc3390565b6001600160a01b0316816001600160a01b0316837f2f8788117e7eff1d82e926ec794901d17c78024a50270940304540a733656f0d60405160405180910390a45050565b600081815260018301602052604081205461325757508154600181810184556000848152602080822090930184905584548482528286019093526040902091909155610895565b506000610895565b6000828152602081815260408083206001600160a01b038516845290915290205460ff1615612ab2576000828152602081815260408083206001600160a01b0385168085529252808320805460ff1916905551339285917ff6391f5c32d9c69d2a47ea670b442974b53935d1edc7fd64eb21e047a839171b9190a45050565b600081815260018301602052604081205480156133c7576000613302600183613a8e565b855490915060009061331690600190613a8e565b905081811461337b57600086600001828154811061333657613336613a0a565b906000526020600020015490508087600001848154811061335957613359613a0a565b6000918252602080832090910192909255918252600188019052604090208390555b855486908061338c5761338c613ba2565b600190038181906000526020600020016000905590558560010160008681526020019081526020016000206000905560019350505050610895565b6000915050610895565b606060006133e0836002613a5b565b6133eb9060026139f2565b67ffffffffffffffff8111156134035761340361388e565b6040519080825280601f01601f19166020018201604052801561342d576020820181803683370190505b5090507f30000000000000000000000000000000000000000000000000000000000000008160008151811061346457613464613a0a565b60200101906001600160f81b031916908160001a9053507f7800000000000000000000000000000000000000000000000000000000000000816001815181106134af576134af613a0a565b60200101906001600160f81b031916908160001a90535060006134d3846002613a5b565b6134de9060016139f2565b90505b6001811115613563577f303132333435363738396162636465660000000000000000000000000000000085600f166010811061351f5761351f613a0a565b1a60f81b82828151811061353557613535613a0a565b60200101906001600160f81b031916908160001a90535060049490941c9361355c81613bb8565b90506134e1565b508315610e795760405162461bcd60e51b815260206004820181905260248201527f537472696e67733a20686578206c656e67746820696e73756666696369656e7460448201526064016109b5565b60008260000182815481106135c9576135c9613a0a565b9060005260206000200154905092915050565b6000602082840312156135ee57600080fd5b81356001600160e01b031981168114610e7957600080fd5b60006020828403121561361857600080fd5b5035919050565b6020808252825182820181905260009190848201906040850190845b818110156136575783518352928401929184019160010161363b565b50909695505050505050565b80356001600160a01b0381168114612fa857600080fd5b6000806040838503121561368d57600080fd5b8235915061369d60208401613663565b90509250929050565b803561ffff81168114612fa857600080fd5b6000602082840312156136ca57600080fd5b610e79826136a6565b6020808252825182820181905260009190848201906040850190845b818110156136575783516001600160a01b0316835292840192918401916001016136ef565b6000806040838503121561372757600080fd5b61373083613663565b946020939093013593505050565b6000602080835260c08301845182850152818501516040850152604085015160a0606086015281815180845260e0870191508483019350600092505b808310156137a35783516001600160a01b0316825292840192600192909201919084019061377a565b50606087015161ffff811660808801529350608087015161ffff811660a088015293509695505050505050565b6000602082840312156137e257600080fd5b610e7982613663565b600080604083850312156137fe57600080fd5b50508035926020909101359150565b600080600080600060a0868803121561382557600080fd5b61382e86613663565b945060208601359350613843604087016136a6565b9250613851606087016136a6565b949793965091946080013592915050565b60008060006060848603121561387757600080fd5b505081359360208301359350604090920135919050565b634e487b7160e01b600052604160045260246000fd5b600080604083850312156138b757600080fd5b823567ffffffffffffffff808211156138cf57600080fd5b818501915085601f8301126138e357600080fd5b81356020828211156138f7576138f761388e565b8160051b604051601f19603f8301168101818110868211171561391c5761391c61388e565b60405292835281830193508481018201928984111561393a57600080fd5b948201945b8386101561395f5761395086613663565b8552948201949382019361393f565b9997909101359750505050505050565b60008060006060848603121561398457600080fd5b61398d846136a6565b925061399b602085016136a6565b91506139a9604085016136a6565b90509250925092565b634e487b7160e01b600052601260045260246000fd5b6000826139d7576139d76139b2565b500690565b634e487b7160e01b600052601160045260246000fd5b60008219821115613a0557613a056139dc565b500190565b634e487b7160e01b600052603260045260246000fd5b600060018201613a3257613a326139dc565b5060010190565b600060208284031215613a4b57600080fd5b81518015158114610e7957600080fd5b6000816000190483118215151615613a7557613a756139dc565b500290565b600082613a8957613a896139b2565b500490565b600082821015613aa057613aa06139dc565b500390565b600060208284031215613ab757600080fd5b5051919050565b60005b83811015613ad9578181015183820152602001613ac1565b83811115613ae8576000848401525b50505050565b7f416363657373436f6e74726f6c3a206163636f756e7420000000000000000000815260008351613b26816017850160208801613abe565b7f206973206d697373696e6720726f6c65200000000000000000000000000000006017918401918201528351613b63816028840160208801613abe565b01602801949350505050565b6020815260008251806020840152613b8e816040850160208701613abe565b601f01601f19169190910160400192915050565b634e487b7160e01b600052603160045260246000fd5b600081613bc757613bc76139dc565b50600019019056fea2646970667358221220700c04559849628df65e6ac887efafacb17f030e4ea23216ed366c21bb00389264736f6c634300080d0033",
  "immutableReferences": {
    "1742": [
      {
        "length": 32,
        "start": 1845
      },
      {
        "length": 32,
        "start": 4160
      },
      {
        "length": 32,
        "start": 8631
      },
      {
        "length": 32,
        "start": 9219
      },
      {
        "length": 32,
        "start": 9550
      },
      {
        "length": 32,
        "start": 9887
      }
    ],
    "1745": [
      {
        "length": 32,
        "start": 1353
      },
      {
        "length": 32,
        "start": 5776
      },
      {
        "length": 32,
        "start": 8052
      },
      {
        "length": 32,
        "start": 10126
      },
      {
        "length": 32,
        "start": 10283
      }
    ],
    "1747": [
      {
        "length": 32,
        "start": 1290
      },
      {
        "length": 32,
        "start": 9932
      }
    ]
  },
  "source": "// SPDX-License-Identifier: MIT\npragma solidity ^0.8.0;\n\nimport \"@openzeppelin/contracts/interfaces/IERC20.sol\";\nimport \"@openzeppelin/contracts/access/Ownable.sol\";\nimport \"@openzeppelin/contracts/access/AccessControlEnumerable.sol\";\nimport \"@openzeppelin/contracts/utils/structs/EnumerableSet.sol\";\nimport \"@openzeppelin/contracts/security/Pausable.sol\";\nimport \"./RpSeeder.sol\";\n\n/// @title A Death Roll-inspired game for Raid Party\n/// @author xanewok.eth\n/// @notice The games uses $CFTI, the native Raid Party token\ncontract ConfettiRoll is AccessControlEnumerable, Ownable, Pausable {\n    using EnumerableSet for EnumerableSet.Bytes32Set;\n\n    IERC20 public immutable confetti;\n    RpSeeder public immutable seeder;\n    address public immutable treasury;\n    uint256 public tipAmount;\n    uint256 public treasuryAmount;\n\n    uint256 public treasuryFee = 500; // 5%\n    uint256 public betTip = 50; // 0.5%\n    uint256 constant FEE_PRECISION = 1e4;\n\n    uint256 public minBet = 1e17; // 0.1 $CFTI\n    uint256 public maxBet = 150e18; // 150 $CFTI\n    uint256 public defaultBet = 15e18; // 15 $CFTI\n\n    uint16 public minStartingRoll = 2;\n    uint16 public maxStartingRoll = 1000;\n    uint16 public defaultStartingRoll = 100;\n\n    uint16 public defaultMaxParticipants = 100;\n\n    bytes32 public constant TREASURY_ROLE = keccak256(\"TREASURY_ROLE\");\n\n    struct Game {\n        uint256 roundNum;\n        uint256 poolBet;\n        address[] participants;\n        uint16 startingRoll;\n        uint16 maxParticipants;\n    }\n\n    struct GameResult {\n        // In theory this should always be equal to `getSeed(game.roundNum)`;\n        // however, since we depend on an external seeder, let's always remember\n        // the seed for a given finalized game to make the results verifiable\n        // and deterministic\n        uint256 finalizedSeed;\n        // The amount that every participant (except for the loser) is due,\n        // after the game finishes\n        uint256 prizeShare;\n        address loser;\n    }\n\n    event PlayerLost(bytes32 indexed gameId, address indexed player);\n    event GameCreated(bytes32 indexed gameId);\n    event PlayerJoined(bytes32 indexed gameId, address indexed player);\n\n    mapping(bytes32 => GameResult) gameResults;\n    mapping(bytes32 => Game) games;\n\n    mapping(address => EnumerableSet.Bytes32Set) pendingGames;\n\n    constructor(\n        IERC20 confetti_,\n        address seeder_,\n        address treasury_\n    ) {\n        _setupRole(TREASURY_ROLE, treasury_);\n\n        seeder = RpSeeder(seeder_);\n        treasury = treasury_;\n        confetti = confetti_;\n        tipAmount = 0;\n        treasuryAmount = 0;\n    }\n\n    function setTreasuryFee(uint256 treasuryFee_)\n        public\n        onlyRole(TREASURY_ROLE)\n    {\n        require(treasuryFee_ <= 1500, \"Let the gamblers gamble in peace\");\n        treasuryFee = treasuryFee_;\n    }\n\n    function withdrawTax() public onlyRole(TREASURY_ROLE) {\n        require(treasuryAmount > 0, \"Nothing to withdraw\");\n        confetti.transfer(treasury, treasuryAmount);\n        treasuryAmount = 0;\n    }\n\n    function withdrawTip() public onlyOwner {\n        require(tipAmount > 0, \"Nothing to withdraw\");\n        confetti.transfer(owner(), tipAmount);\n        tipAmount = 0;\n    }\n\n    function setBetTip(uint256 betTip_) public onlyOwner {\n        betTip = betTip_;\n    }\n\n    function setBets(\n        uint256 min,\n        uint256 max,\n        uint256 default_\n    ) public onlyOwner {\n        minBet = min;\n        maxBet = max;\n        defaultBet = default_;\n    }\n\n    function setStartingRolls(\n        uint16 min,\n        uint16 max,\n        uint16 default_\n    ) public onlyOwner {\n        minStartingRoll = min;\n        maxStartingRoll = max;\n        defaultStartingRoll = default_;\n    }\n\n    function setDefaultMaxParticipants(uint16 value) public onlyOwner {\n        defaultMaxParticipants = value;\n    }\n\n    /// @dev We piggyback on the RaidParty batch seeder for our game round abstraction\n    function currentRound() public view returns (uint256) {\n        return seeder.getBatch();\n    }\n\n    /// @notice Return generated random words for a given game round\n    function getSeed(uint256 roundNum) public view returns (uint256) {\n        bytes32 reqId = seeder.getReqByBatch(roundNum);\n        return seeder.getRandomness(reqId);\n    }\n\n    function getGame(bytes32 gameId) public view returns (Game memory) {\n        return games[gameId];\n    }\n\n    function getGameResults(bytes32 gameId)\n        public\n        view\n        returns (GameResult memory)\n    {\n        return gameResults[gameId];\n    }\n\n    function isGameFinished(bytes32 gameId) public view returns (bool) {\n        return gameResults[gameId].loser != address(0x0);\n    }\n\n    /// @notice Returns the order in which the players roll for a given game\n    function getRollingPlayers(bytes32 gameId)\n        public\n        view\n        returns (address[] memory)\n    {\n        Game memory game = games[gameId];\n        uint256 seed = getSeed(game.roundNum);\n        require(seed > 0, \"Game not seeded yet\");\n        require(game.participants.length >= 2, \"Need at least 2 players\");\n\n        return shuffledPlayers(game.participants, seed);\n    }\n\n    /// @notice Returns player rolls for a given game. They correspond to player order returned by `getRollingPlayers`\n    function getRolls(bytes32 gameId) public view returns (uint256[] memory) {\n        Game memory game = games[gameId];\n        uint256 seed = getSeed(game.roundNum);\n        require(seed > 0, \"Game not seeded yet\");\n        require(game.participants.length >= 2, \"Need at least 2 players\");\n        // NOTE: The part below is the same as `simulateGame` only with\n        // remembering the roll values (which are originally not to save gas).\n\n        // The upper bound for the number of rolls is the starting roll value\n        uint256[] memory rolls = new uint256[](game.startingRoll);\n\n        uint256 roll = game.startingRoll;\n        uint256 rollCount = 0;\n        while (roll > 0) {\n            // NOTE: `roll` is always in the [1, game.startingRoll - 1] range\n            // here, as we start if it's positive and we always use modulo,\n            // starting from the `game.startingRoll`\n            roll = uint256(keccak256(abi.encodePacked(rollCount, seed))) % roll;\n            rolls[rollCount] = roll + 1;\n            rollCount++;\n        }\n        // NOTE: This is meant to be executed in a read-only fashion - to get rid\n        // of the extra zeroes, we just copy over the actual rolls to a new array\n        uint256[] memory returnedRolls = new uint256[](rollCount);\n        for (uint256 i = 0; i < returnedRolls.length; i++) {\n            returnedRolls[i] = rolls[i];\n        }\n        return returnedRolls;\n    }\n\n    /// @notice Returns a list of outstanding games for the player\n    function getPendingGames(address player)\n        public\n        view\n        returns (bytes32[] memory)\n    {\n        bytes32[] memory pendingGames_ = new bytes32[](\n            pendingGames[player].length()\n        );\n        for (uint256 i = 0; i < pendingGames[player].length(); i++) {\n            pendingGames_[i] = pendingGames[player].at(i);\n        }\n        return pendingGames_;\n    }\n\n    /// @notice Returns whether the player is eligible to collect a prize for a given game\n    function canCollectReward(address player, bytes32 gameId)\n        public\n        view\n        returns (bool)\n    {\n        return (isGameFinished(gameId) && gameResults[gameId].loser != player);\n    }\n\n    /// @notice Returns a total amount of claimable rewards by the player\n    function getPendingRewards(address player) public view returns (uint256) {\n        uint256 sum = 0;\n        for (uint256 i = 0; i < pendingGames[player].length(); i++) {\n            bytes32 gameId = pendingGames[player].at(i);\n            if (canCollectReward(player, gameId)) {\n                sum += gameResults[gameId].prizeShare;\n            }\n        }\n        return sum;\n    }\n\n    /// @notice Process and clear every outstanding game, collecting the rewards\n    function withdrawRewards() public whenNotPaused returns (uint256) {\n        address player = msg.sender;\n        uint256 rewards = 0;\n\n        for (uint256 i = 0; i < pendingGames[player].length(); ) {\n            bytes32 gameId = pendingGames[player].at(i);\n            if (canCollectReward(player, gameId)) {\n                rewards += gameResults[gameId].prizeShare;\n            }\n            // NOTE: This is the main function that is responsible for clearing\n            // up pending games (e.g. for UI reasons), so make sure to clear up\n            // pending *lost* games as well, even if we didn't collect a prize\n            if (isGameFinished(gameId)) {\n                pendingGames[player].remove(gameId);\n                // Deleting an element might've shifted the order of the elements\n                // and since we're deleting while iterating (a Bad Idea^TM),\n                // simply start iterating from the start to be safe\n                i = 0;\n            } else {\n                i++;\n            }\n        }\n\n        confetti.transfer(msg.sender, rewards);\n        return rewards;\n    }\n\n    /// @notice Calculates the game identifier for a given game initializer and roundNum\n    /// The game initializer can be either the address of the contract if we're\n    /// creating a \"global\" game or the address of the callee\n    function calcGameId(address initializer, uint256 roundNum)\n        public\n        pure\n        returns (bytes32)\n    {\n        return keccak256(abi.encodePacked(initializer, roundNum));\n    }\n\n    /// @notice Returns a game identifier for the currently running, global game\n    function currentGlobalGameId() public view returns (bytes32) {\n        return calcGameId(address(this), currentRound());\n    }\n\n    // Anyone can join the game for the current round where either they are the\n    // initializer and they can set a custom bet or they can create a global\n    // game per round with a default bet amount\n    /// @notice Create a new game\n    /// @param initializer needs to be an address of the contract or the sender\n    /// @param poolBet The amount of money that the player enters with. Use 18 decimals, just like for $CFTI\n    /// @param maxParticipants The maximum number of players that can join the game\n    /// @param startingRoll The upper roll that the game begins with\n    /// @param roundNum The round when the game will be played. Must be bigger than the current round\n    function createGame(\n        address initializer,\n        uint256 poolBet,\n        uint16 startingRoll,\n        uint16 maxParticipants,\n        uint256 roundNum\n    ) public whenNotPaused returns (bytes32) {\n        if (startingRoll == 0) {\n            startingRoll = defaultStartingRoll;\n        }\n        if (poolBet == 0) {\n            poolBet = defaultBet;\n        }\n        if (maxParticipants < 2) {\n            maxParticipants = defaultMaxParticipants;\n        }\n        uint256 seed = getSeed(roundNum);\n        require(seed == 0, \"Game already seeded\");\n        require(\n            roundNum >= currentRound(),\n            \"Can't create games for past rounds\"\n        );\n        require(\n            poolBet >= minBet && poolBet <= maxBet,\n            \"Bet outside legal range\"\n        );\n        require(\n            startingRoll >= minStartingRoll && startingRoll <= maxStartingRoll,\n            \"Start roll outside legal range\"\n        );\n        // Allow for creating a custom game with the sender as initializer or\n        // a \"global\" (per round) one that needs to have default values set\n        require(\n            initializer == msg.sender ||\n                (initializer == address(this) &&\n                    poolBet == defaultBet &&\n                    startingRoll == defaultStartingRoll &&\n                    maxParticipants == defaultMaxParticipants)\n        );\n        bytes32 gameId = calcGameId(initializer, roundNum);\n        require(!isGameFinished(gameId), \"Game already finished\");\n\n        games[gameId].poolBet = poolBet;\n        games[gameId].roundNum = roundNum;\n        games[gameId].startingRoll = startingRoll;\n        games[gameId].maxParticipants = maxParticipants;\n\n        emit GameCreated(gameId);\n        return gameId;\n    }\n\n    /// @notice Join the given game. Needs $CFTI approval as the player needs to deposit the pool bet in order to play.\n    function joinGame(bytes32 gameId) public whenNotPaused {\n        Game memory game = games[gameId];\n        require(game.startingRoll > 0, \"Game doesn't exist yet\");\n        require(!isGameFinished(gameId), \"Game already finished\");\n        // Mitigate possible front-running - close the game sign-ups about a minute\n        // before the seeder can request randomness. The RP seeder is pre-configured\n        // to require 3 block confirmations, so 60 seconds makes sense (< 3 * 14s)\n        uint256 seed = getSeed(game.roundNum);\n        require(seed == 0, \"Game already seeded\");\n        require(\n            seeder.getNextAvailableBatch() > (block.timestamp + 60),\n            \"Seed imminent; sign-up is closed\"\n        );\n        require(!pendingGames[msg.sender].contains(gameId), \"Already joined\");\n        require(\n            games[gameId].participants.length < game.maxParticipants &&\n                games[gameId].participants.length <= (FEE_PRECISION / betTip),\n            \"Too many players\"\n        );\n\n        uint256 tip = (game.poolBet * betTip) / FEE_PRECISION;\n        tipAmount += tip;\n        confetti.transferFrom(msg.sender, address(this), game.poolBet);\n\n        games[gameId].participants.push(msg.sender);\n        pendingGames[msg.sender].add(gameId);\n        emit PlayerJoined(gameId, msg.sender);\n    }\n\n    /// @notice A convenient method to join the currently running global game\n    function joinGlobalGame() public whenNotPaused returns (bytes32) {\n        bytes32 globalGameId = currentGlobalGameId();\n        // Lazily create a global game if there isn't one already\n        if (games[globalGameId].startingRoll == 0) {\n            createGame(\n                address(this),\n                defaultBet,\n                defaultStartingRoll,\n                defaultMaxParticipants,\n                currentRound()\n            );\n        }\n        joinGame(globalGameId);\n        return globalGameId;\n    }\n\n    /// @return Shuffled randomly players from the given ones, using supplied seed\n    function shuffledPlayers(address[] memory players, uint256 seed)\n        public\n        pure\n        returns (address[] memory)\n    {\n        address[] memory shuffled = players;\n\n        address temp;\n        uint256 pick;\n        for (uint256 i = 0; i < players.length; i++) {\n            // Randomly pick a value from i (incl.) till the end of the array\n            // To further increase randomness entropy, add the current player address\n            pick =\n                uint256(keccak256(abi.encodePacked(players[i], seed))) %\n                (players.length - i);\n            temp = shuffled[i];\n            // Save the randomly picked number as the i-th address in the sequence\n            shuffled[i] = shuffled[i + pick];\n            // Return the original value to the pool that we pick from\n            shuffled[i + pick] = temp;\n        }\n\n        return shuffled;\n    }\n\n    /// @dev Given an unitialized yet game, simulate the game and commit the results to the storage\n    function simulateGame(bytes32 gameId)\n        internal\n        whenNotPaused\n        returns (GameResult storage)\n    {\n        require(!isGameFinished(gameId), \"Game already finished\");\n        Game memory game = games[gameId];\n\n        uint256 seed = getSeed(game.roundNum);\n        require(seed > 0, \"Game not seeded yet\");\n        require(game.participants.length >= 2, \"Need at least 2 players\");\n        // To remove any bias from the order that players registered with, make\n        // sure to shuffle them before starting the actual game\n        // NOTE: This is the same as `getRollingPlayers`\n        address[] memory players = shuffledPlayers(game.participants, seed);\n\n        // NOTE: This is the same as `getRolls`, however we don't use that as\n        // we'd spend too much gas on remembering the rolls - we're interested\n        // only in the outcome itself, which is the losing player\n        uint256 roll = game.startingRoll;\n        uint256 rollCount = 0;\n        while (roll > 0) {\n            // NOTE: `roll` is always in the [1, game.startingRoll - 1] range\n            // here, as we start if it's positive and we always use modulo,\n            // starting from the `game.startingRoll`\n            unchecked {\n                roll =\n                    uint256(keccak256(abi.encodePacked(rollCount, seed))) %\n                    roll;\n                rollCount++;\n            }\n        }\n\n        // The last to roll is the one who lost\n        address loser = players[(rollCount - 1) % players.length];\n        gameResults[gameId].loser = loser;\n        // Saved for bookkeeping\n        gameResults[gameId].finalizedSeed = seed;\n\n        return gameResults[gameId];\n    }\n\n    /// @notice Simulates a given game, assuming it's been seeded since its creation\n    function commenceGame(bytes32 gameId) public whenNotPaused {\n        Game memory game = games[gameId];\n\n        require(game.participants.length > 0, \"No players in the game\");\n        if (game.participants.length == 1) {\n            // Not much of a game if we have a single participant, return the bet\n            confetti.transfer(game.participants[0], game.poolBet);\n            pendingGames[game.participants[0]].remove(gameId);\n            return;\n        }\n\n        GameResult storage results = simulateGame(gameId);\n        require(isGameFinished(gameId), \"Game not finished after simul.\");\n        require(results.loser != address(0), \"Finished game has no loser\");\n\n        emit PlayerLost(gameId, results.loser);\n\n        // Tax the prize money for the treasury\n        uint256 collectedBetTip = (game.poolBet * betTip) / FEE_PRECISION;\n        uint256 payableBet = game.poolBet - collectedBetTip;\n        uint256 treasuryShare = (payableBet * treasuryFee) / FEE_PRECISION;\n        treasuryAmount += treasuryShare;\n\n        // Split the remaining prize pool among the winners; they need to collect\n        // them themselves to amortize gas cost of the game simulation\n        results.prizeShare =\n            // Original bet\n            payableBet +\n            // Taxed prize pool that's split among everyone\n            (payableBet - treasuryShare) /\n            (game.participants.length - 1);\n    }\n\n    function pause() public onlyOwner {\n        _pause();\n    }\n\n    function unpause() public onlyOwner {\n        _unpause();\n    }\n}\n",
  "sourcePath": "/home/xanewok/repos/confetti-roll/contract/contracts/ConfettiRoll.sol",
  "compiler": {
    "name": "solc",
    "version": "0.8.13+commit.abaa5c0e.Emscripten.clang"
  },
  "schemaVersion": "3.4.6",
  "updatedAt": "2022-04-08T02:16:37.504Z",
  "devdoc": {
    "author": "xanewok.eth",
    "kind": "dev",
    "methods": {
      "createGame(address,uint256,uint16,uint16,uint256)": {
        "params": {
          "initializer": "needs to be an address of the contract or the sender",
          "maxParticipants": "The maximum number of players that can join the game",
          "poolBet": "The amount of money that the player enters with. Use 18 decimals, just like for $CFTI",
          "roundNum": "The round when the game will be played. Must be bigger than the current round",
          "startingRoll": "The upper roll that the game begins with"
        }
      },
      "currentRound()": {
        "details": "We piggyback on the RaidParty batch seeder for our game round abstraction"
      },
      "getRoleAdmin(bytes32)": {
        "details": "Returns the admin role that controls `role`. See {grantRole} and {revokeRole}. To change a role's admin, use {_setRoleAdmin}."
      },
      "getRoleMember(bytes32,uint256)": {
        "details": "Returns one of the accounts that have `role`. `index` must be a value between 0 and {getRoleMemberCount}, non-inclusive. Role bearers are not sorted in any particular way, and their ordering may change at any point. WARNING: When using {getRoleMember} and {getRoleMemberCount}, make sure you perform all queries on the same block. See the following https://forum.openzeppelin.com/t/iterating-over-elements-on-enumerableset-in-openzeppelin-contracts/2296[forum post] for more information."
      },
      "getRoleMemberCount(bytes32)": {
        "details": "Returns the number of accounts that have `role`. Can be used together with {getRoleMember} to enumerate all bearers of a role."
      },
      "grantRole(bytes32,address)": {
        "details": "Overload {grantRole} to track enumerable memberships"
      },
      "hasRole(bytes32,address)": {
        "details": "Returns `true` if `account` has been granted `role`."
      },
      "owner()": {
        "details": "Returns the address of the current owner."
      },
      "paused()": {
        "details": "Returns true if the contract is paused, and false otherwise."
      },
      "renounceOwnership()": {
        "details": "Leaves the contract without owner. It will not be possible to call `onlyOwner` functions anymore. Can only be called by the current owner. NOTE: Renouncing ownership will leave the contract without an owner, thereby removing any functionality that is only available to the owner."
      },
      "renounceRole(bytes32,address)": {
        "details": "Overload {renounceRole} to track enumerable memberships"
      },
      "revokeRole(bytes32,address)": {
        "details": "Overload {revokeRole} to track enumerable memberships"
      },
      "shuffledPlayers(address[],uint256)": {
        "returns": {
          "_0": "Shuffled randomly players from the given ones, using supplied seed"
        }
      },
      "supportsInterface(bytes4)": {
        "details": "See {IERC165-supportsInterface}."
      },
      "transferOwnership(address)": {
        "details": "Transfers ownership of the contract to a new account (`newOwner`). Can only be called by the current owner."
      }
    },
    "title": "A Death Roll-inspired game for Raid Party",
    "version": 1
  },
  "userdoc": {
    "kind": "user",
    "methods": {
      "calcGameId(address,uint256)": {
        "notice": "Calculates the game identifier for a given game initializer and roundNum The game initializer can be either the address of the contract if we're creating a \"global\" game or the address of the callee"
      },
      "canCollectReward(address,bytes32)": {
        "notice": "Returns whether the player is eligible to collect a prize for a given game"
      },
      "commenceGame(bytes32)": {
        "notice": "Simulates a given game, assuming it's been seeded since its creation"
      },
      "createGame(address,uint256,uint16,uint16,uint256)": {
        "notice": "Create a new game"
      },
      "currentGlobalGameId()": {
        "notice": "Returns a game identifier for the currently running, global game"
      },
      "getPendingGames(address)": {
        "notice": "Returns a list of outstanding games for the player"
      },
      "getPendingRewards(address)": {
        "notice": "Returns a total amount of claimable rewards by the player"
      },
      "getRollingPlayers(bytes32)": {
        "notice": "Returns the order in which the players roll for a given game"
      },
      "getRolls(bytes32)": {
        "notice": "Returns player rolls for a given game. They correspond to player order returned by `getRollingPlayers`"
      },
      "getSeed(uint256)": {
        "notice": "Return generated random words for a given game round"
      },
      "joinGame(bytes32)": {
        "notice": "Join the given game. Needs $CFTI approval as the player needs to deposit the pool bet in order to play."
      },
      "joinGlobalGame()": {
        "notice": "A convenient method to join the currently running global game"
      },
      "withdrawRewards()": {
        "notice": "Process and clear every outstanding game, collecting the rewards"
      }
    },
    "notice": "The games uses $CFTI, the native Raid Party token",
    "version": 1
  }
}