{
  "contractName": "RpSeeder",
  "abi": [
    {
      "inputs": [
        {
          "internalType": "address",
          "name": "seederV2_",
          "type": "address"
        },
        {
          "internalType": "address",
          "name": "seedStorage_",
          "type": "address"
        }
      ],
      "stateMutability": "nonpayable",
      "type": "constructor"
    },
    {
      "inputs": [],
      "name": "getBatch",
      "outputs": [
        {
          "internalType": "uint256",
          "name": "",
          "type": "uint256"
        }
      ],
      "stateMutability": "view",
      "type": "function"
    },
    {
      "inputs": [
        {
          "internalType": "uint256",
          "name": "batch",
          "type": "uint256"
        }
      ],
      "name": "getReqByBatch",
      "outputs": [
        {
          "internalType": "bytes32",
          "name": "",
          "type": "bytes32"
        }
      ],
      "stateMutability": "view",
      "type": "function"
    },
    {
      "inputs": [],
      "name": "getNextAvailableBatch",
      "outputs": [
        {
          "internalType": "uint256",
          "name": "",
          "type": "uint256"
        }
      ],
      "stateMutability": "view",
      "type": "function"
    },
    {
      "inputs": [
        {
          "internalType": "bytes32",
          "name": "key",
          "type": "bytes32"
        }
      ],
      "name": "getRandomness",
      "outputs": [
        {
          "internalType": "uint256",
          "name": "",
          "type": "uint256"
        }
      ],
      "stateMutability": "view",
      "type": "function"
    },
    {
      "inputs": [],
      "name": "executeRequestMulti",
      "outputs": [],
      "stateMutability": "nonpayable",
      "type": "function"
    }
  ],
  "bytecode": "0x60c060405234801561001057600080fd5b5060405161046738038061046783398101604081905261002f91610062565b6001600160a01b039182166080521660a052610095565b80516001600160a01b038116811461005d57600080fd5b919050565b6000806040838503121561007557600080fd5b61007e83610046565b915061008c60208401610046565b90509250929050565b60805160a0516103996100ce600039600060f001526000818161016e015281816101f70152818161025501526102fa01526103996000f3fe608060405234801561001057600080fd5b50600436106100675760003560e01c80633c099fce116100505780633c099fce146100995780634eb6ff86146100a1578063591c0e1c146100ab57600080fd5b806305b194021461006c5780633b1fee6c14610091575b600080fd5b61007f61007a366004610331565b6100be565b60405190815260200160405180910390f35b61007f61016a565b61007f6101f3565b6100a9610253565b005b61007f6100b9366004610331565b6102c8565b6040517f05b19402000000000000000000000000000000000000000000000000000000008152600481018290526000907f00000000000000000000000000000000000000000000000000000000000000006001600160a01b0316906305b19402906024015b602060405180830381865afa158015610140573d6000803e3d6000fd5b505050506040513d601f19601f82011682018060405250810190610164919061034a565b92915050565b60007f00000000000000000000000000000000000000000000000000000000000000006001600160a01b0316633b1fee6c6040518163ffffffff1660e01b8152600401602060405180830381865afa1580156101ca573d6000803e3d6000fd5b505050506040513d601f19601f820116820180604052508101906101ee919061034a565b905090565b60007f00000000000000000000000000000000000000000000000000000000000000006001600160a01b0316633c099fce6040518163ffffffff1660e01b8152600401602060405180830381865afa1580156101ca573d6000803e3d6000fd5b7f00000000000000000000000000000000000000000000000000000000000000006001600160a01b0316634eb6ff866040518163ffffffff1660e01b8152600401600060405180830381600087803b1580156102ae57600080fd5b505af11580156102c2573d6000803e3d6000fd5b50505050565b6040517f591c0e1c000000000000000000000000000000000000000000000000000000008152600481018290526000907f00000000000000000000000000000000000000000000000000000000000000006001600160a01b03169063591c0e1c90602401610123565b60006020828403121561034357600080fd5b5035919050565b60006020828403121561035c57600080fd5b505191905056fea2646970667358221220b415815545c08c958ae3bd2a065b7da46ee486693c7556fc9e93c5a7c2bac3c564736f6c634300080d0033",
  "immutableReferences": {
    "3256": [
      {
        "length": 32,
        "start": 366
      },
      {
        "length": 32,
        "start": 503
      },
      {
        "length": 32,
        "start": 597
      },
      {
        "length": 32,
        "start": 762
      }
    ],
    "3259": [
      {
        "length": 32,
        "start": 240
      }
    ]
  },
  "source": "// SPDX-License-Identifier: MIT\npragma solidity ^0.8.0;\n\nimport './ISeederV2.sol';\nimport './ISeedStorage.sol';\n\n/// @title Access to the batch seeder used by the Raid Party game\ncontract RpSeeder is ISeederV2, ISeedStorage {\n    ISeederV2 private immutable seederV2;\n    ISeedStorage private immutable seedStorage;\n\n    constructor(address seederV2_, address seedStorage_) {\n        seederV2 = ISeederV2(seederV2_);\n        seedStorage = ISeedStorage(seedStorage_);\n    }\n\n    function getBatch() external override view returns (uint256) {\n        return seederV2.getBatch();\n    }\n\n    function getReqByBatch(uint256 batch) external override view returns (bytes32) {\n        return seederV2.getReqByBatch(batch);\n    }\n\n    function getNextAvailableBatch() external override view returns (uint256) {\n        return ISeederV2(seederV2).getNextAvailableBatch();\n    }\n\n    function getRandomness(bytes32 key) external override view returns (uint256) {\n        return seedStorage.getRandomness(key);\n    }\n\n    function executeRequestMulti() external {\n        return seederV2.executeRequestMulti();\n    }\n}\n",
  "sourcePath": "/home/xanewok/repos/confetti-roll/contract/contracts/RpSeeder.sol",
  "compiler": {
    "name": "solc",
    "version": "0.8.13+commit.abaa5c0e.Emscripten.clang"
  },
  "schemaVersion": "3.4.6",
  "updatedAt": "2022-04-07T21:12:06.939Z",
  "devdoc": {
    "kind": "dev",
    "methods": {},
    "title": "Access to the batch seeder used by the Raid Party game",
    "version": 1
  },
  "userdoc": {
    "kind": "user",
    "methods": {},
    "version": 1
  }
}