{
  "contractName": "RpSeeder",
  "abi": [
    {
      "inputs": [
        {
          "internalType": "address",
          "name": "seederV2_",
          "type": "address"
        },
        {
          "internalType": "address",
          "name": "seedStorage_",
          "type": "address"
        }
      ],
      "stateMutability": "nonpayable",
      "type": "constructor"
    },
    {
      "inputs": [],
      "name": "getBatch",
      "outputs": [
        {
          "internalType": "uint256",
          "name": "",
          "type": "uint256"
        }
      ],
      "stateMutability": "view",
      "type": "function"
    },
    {
      "inputs": [
        {
          "internalType": "uint256",
          "name": "batch",
          "type": "uint256"
        }
      ],
      "name": "getReqByBatch",
      "outputs": [
        {
          "internalType": "bytes32",
          "name": "",
          "type": "bytes32"
        }
      ],
      "stateMutability": "view",
      "type": "function"
    },
    {
      "inputs": [],
      "name": "getNextAvailableBatch",
      "outputs": [
        {
          "internalType": "uint256",
          "name": "",
          "type": "uint256"
        }
      ],
      "stateMutability": "view",
      "type": "function"
    },
    {
      "inputs": [
        {
          "internalType": "bytes32",
          "name": "key",
          "type": "bytes32"
        }
      ],
      "name": "getRandomness",
      "outputs": [
        {
          "internalType": "uint256",
          "name": "",
          "type": "uint256"
        }
      ],
      "stateMutability": "view",
      "type": "function"
    }
  ],
  "bytecode": "0x60c060405234801561001057600080fd5b506040516103fa3803806103fa83398101604081905261002f91610062565b6001600160a01b039182166080521660a052610095565b80516001600160a01b038116811461005d57600080fd5b919050565b6000806040838503121561007557600080fd5b61007e83610046565b915061008c60208401610046565b90509250929050565b60805160a0516103336100c7600039600060cb015260008181610156015281816101ec015261028701526103336000f3fe608060405234801561001057600080fd5b506004361061004c5760003560e01c806305b19402146100515780633b1fee6c146100765780633c099fce1461007e578063591c0e1c14610086575b600080fd5b61006461005f3660046102cb565b610099565b60405190815260200160405180910390f35b610064610152565b6100646101e8565b6100646100943660046102cb565b610255565b6040517f05b19402000000000000000000000000000000000000000000000000000000008152600481018290526000907f000000000000000000000000000000000000000000000000000000000000000073ffffffffffffffffffffffffffffffffffffffff16906305b19402906024015b602060405180830381865afa158015610128573d6000803e3d6000fd5b505050506040513d601f19601f8201168201806040525081019061014c91906102e4565b92915050565b60007f000000000000000000000000000000000000000000000000000000000000000073ffffffffffffffffffffffffffffffffffffffff16633b1fee6c6040518163ffffffff1660e01b8152600401602060405180830381865afa1580156101bf573d6000803e3d6000fd5b505050506040513d601f19601f820116820180604052508101906101e391906102e4565b905090565b60007f000000000000000000000000000000000000000000000000000000000000000073ffffffffffffffffffffffffffffffffffffffff16633c099fce6040518163ffffffff1660e01b8152600401602060405180830381865afa1580156101bf573d6000803e3d6000fd5b6040517f591c0e1c000000000000000000000000000000000000000000000000000000008152600481018290526000907f000000000000000000000000000000000000000000000000000000000000000073ffffffffffffffffffffffffffffffffffffffff169063591c0e1c9060240161010b565b6000602082840312156102dd57600080fd5b5035919050565b6000602082840312156102f657600080fd5b505191905056fea2646970667358221220277a6554680cf5dcab9c2e15fe364457ab13526ea34788463eb1a1562a74b06b64736f6c634300080d0033",
  "immutableReferences": {
    "3048": [
      {
        "length": 32,
        "start": 342
      },
      {
        "length": 32,
        "start": 492
      },
      {
        "length": 32,
        "start": 647
      }
    ],
    "3051": [
      {
        "length": 32,
        "start": 203
      }
    ]
  },
  "source": "// SPDX-License-Identifier: MIT\npragma solidity ^0.8.0;\n\nimport './ISeederV2.sol';\nimport './ISeedStorage.sol';\n\n/// @title Access to the batch seeder used by the Raid Party game\ncontract RpSeeder is ISeederV2, ISeedStorage {\n    ISeederV2 private immutable seederV2;\n    ISeedStorage private immutable seedStorage;\n\n    constructor(address seederV2_, address seedStorage_) {\n        seederV2 = ISeederV2(seederV2_);\n        seedStorage = ISeedStorage(seedStorage_);\n    }\n\n    function getBatch() external override view returns (uint256) {\n        return seederV2.getBatch();\n    }\n\n    function getReqByBatch(uint256 batch) external override view returns (bytes32) {\n        return seederV2.getReqByBatch(batch);\n    }\n\n    function getNextAvailableBatch() external view returns (uint256) {\n        return seederV2.getNextAvailableBatch();\n    }\n\n    function getRandomness(bytes32 key) external override view returns (uint256) {\n        return seedStorage.getRandomness(key);\n    }\n}\n",
  "sourcePath": "/home/xanewok/repos/confetti-roll/contract/contracts/RpSeeder.sol",
  "compiler": {
    "name": "solc",
    "version": "0.8.13+commit.abaa5c0e.Emscripten.clang"
  },
  "schemaVersion": "3.4.6",
  "updatedAt": "2022-04-06T00:23:43.253Z",
  "devdoc": {
    "kind": "dev",
    "methods": {},
    "title": "Access to the batch seeder used by the Raid Party game",
    "version": 1
  },
  "userdoc": {
    "kind": "user",
    "methods": {},
    "version": 1
  }
}