{
  "contractName": "TestSeedStorage",
  "abi": [
    {
      "inputs": [
        {
          "internalType": "bytes32",
          "name": "key",
          "type": "bytes32"
        },
        {
          "internalType": "uint256",
          "name": "value",
          "type": "uint256"
        }
      ],
      "name": "setRandomness",
      "outputs": [],
      "stateMutability": "nonpayable",
      "type": "function"
    },
    {
      "inputs": [
        {
          "internalType": "bytes32",
          "name": "key",
          "type": "bytes32"
        }
      ],
      "name": "getRandomness",
      "outputs": [
        {
          "internalType": "uint256",
          "name": "",
          "type": "uint256"
        }
      ],
      "stateMutability": "view",
      "type": "function",
      "constant": true
    }
  ],
  "bytecode": "0x608060405234801561001057600080fd5b5060f48061001f6000396000f3fe6080604052348015600f57600080fd5b506004361060325760003560e01c806305b19402146037578063113d49f8146066575b600080fd5b605460423660046085565b60009081526020819052604090205490565b60405190815260200160405180910390f35b60836071366004609d565b60009182526020829052604090912055565b005b600060208284031215609657600080fd5b5035919050565b6000806040838503121560af57600080fd5b5050803592602090910135915056fea264697066735822122017d9b344a52487e3e6ae76b4e59a0ea6911e574321829fbf724fd94e8458e25464736f6c634300080d0033",
  "immutableReferences": {},
  "source": "// SPDX-License-Identifier: MIT\npragma solidity ^0.8.0;\n\nimport './ISeedStorage.sol';\n\n// Originally deployed at https://etherscan.io/address/0xFc8f72Ac252d5409ba427629F0F1bab113a7492F\ncontract TestSeedStorage is ISeedStorage {\n    mapping(bytes32 => uint256) randomness;\n\n    function setRandomness(bytes32 key, uint256 value) external {\n        randomness[key] = value;\n    }\n\n    function getRandomness(bytes32 key) external override view returns (uint256) {\n        return randomness[key];\n    }\n}\n",
  "sourcePath": "/home/xanewok/repos/confetti-roll/contract/contracts/TestSeedStorage.sol",
  "compiler": {
    "name": "solc",
    "version": "0.8.13+commit.abaa5c0e.Emscripten.clang"
  },
  "schemaVersion": "3.4.6",
  "updatedAt": "2022-04-07T19:15:15.051Z",
  "networkType": "ethereum",
  "devdoc": {
    "kind": "dev",
    "methods": {},
    "version": 1
  },
  "userdoc": {
    "kind": "user",
    "methods": {},
    "version": 1
  }
}