{
  "contractName": "TestSeederV2",
  "abi": [
    {
      "inputs": [
        {
          "internalType": "uint256",
          "name": "batch_",
          "type": "uint256"
        }
      ],
      "name": "setBatch",
      "outputs": [],
      "stateMutability": "nonpayable",
      "type": "function"
    },
    {
      "inputs": [
        {
          "internalType": "uint256",
          "name": "batch_",
          "type": "uint256"
        },
        {
          "internalType": "bytes32",
          "name": "reqId",
          "type": "bytes32"
        }
      ],
      "name": "setBatchToReqId",
      "outputs": [],
      "stateMutability": "nonpayable",
      "type": "function"
    },
    {
      "inputs": [
        {
          "internalType": "uint256",
          "name": "value",
          "type": "uint256"
        }
      ],
      "name": "setLastBatchTimestamp",
      "outputs": [],
      "stateMutability": "nonpayable",
      "type": "function"
    },
    {
      "inputs": [],
      "name": "getNextAvailableBatch",
      "outputs": [
        {
          "internalType": "uint256",
          "name": "",
          "type": "uint256"
        }
      ],
      "stateMutability": "view",
      "type": "function"
    },
    {
      "inputs": [],
      "name": "executeRequestMulti",
      "outputs": [],
      "stateMutability": "nonpayable",
      "type": "function"
    },
    {
      "inputs": [],
      "name": "getBatch",
      "outputs": [
        {
          "internalType": "uint256",
          "name": "",
          "type": "uint256"
        }
      ],
      "stateMutability": "view",
      "type": "function"
    },
    {
      "inputs": [
        {
          "internalType": "uint256",
          "name": "batch_",
          "type": "uint256"
        }
      ],
      "name": "getReqByBatch",
      "outputs": [
        {
          "internalType": "bytes32",
          "name": "",
          "type": "bytes32"
        }
      ],
      "stateMutability": "view",
      "type": "function"
    }
  ],
  "bytecode": "0x608060405263624cc4e1600255601e60035534801561001d57600080fd5b5061021d8061002d6000396000f3fe608060405234801561001057600080fd5b506004361061007d5760003560e01c8063544a518d1161005b578063544a518d146100aa578063591c0e1c146100ca57806366f7a968146100ea578063b76060f7146100fd57600080fd5b80633b1fee6c146100825780633c099fce146100985780634eb6ff86146100a0575b600080fd5b6000545b60405190815260200160405180910390f35b610086610110565b6100a8610127565b005b6100a86100b836600461016d565b60009182526001602052604090912055565b6100866100d836600461018f565b60009081526001602052604090205490565b6100a86100f836600461018f565b600255565b6100a861010b36600461018f565b600055565b600060035460025461012291906101a8565b905090565b6000546101359060016101a8565b600081815560408051602080820185905282518083038201815291830183528151918101919091209383526001905290205542600255565b6000806040838503121561018057600080fd5b50508035926020909101359150565b6000602082840312156101a157600080fd5b5035919050565b600082198211156101e2577f4e487b7100000000000000000000000000000000000000000000000000000000600052601160045260246000fd5b50019056fea26469706673582212200344a9a7ffbf164bf0dad7a4245b6481f2be31296820b42aab3f9a2b1368d4c764736f6c634300080d0033",
  "immutableReferences": {},
  "source": "// SPDX-License-Identifier: MIT\npragma solidity ^0.8.0;\n\nimport './ISeederV2.sol';\n\n// Originally deployed at https://etherscan.io/address/0x2Ed251752DA7F24F33CFbd38438748BB8eeb44e1\ncontract TestSeederV2 is ISeederV2 {\n    uint256 batch;\n    mapping(uint256 => bytes32) batchToReqId;\n    uint256 _lastBatchTimestamp = 1649198305;\n    uint256 _batchCadence = 30;\n\n    function setBatch(uint256 batch_) external {\n        batch = batch_;\n    }\n\n    function setBatchToReqId(uint256 batch_, bytes32 reqId) external {\n        batchToReqId[batch_] = reqId;\n    }\n\n    function setLastBatchTimestamp(uint256 value) external {\n        _lastBatchTimestamp = value;\n    }\n\n    function getNextAvailableBatch() external view returns (uint256) {\n        return _lastBatchTimestamp + _batchCadence;\n    }\n\n    function executeRequestMulti() external {\n        batch = batch + 1;\n        batchToReqId[batch] = keccak256(abi.encodePacked(batch));\n        _lastBatchTimestamp = block.timestamp;\n    }\n\n    function getBatch() external override view returns (uint256) {\n\t    return batch;\n    }\n    function getReqByBatch(uint256 batch_) external override view returns (bytes32) {\n        return batchToReqId[batch_];\n    }\n}\n",
  "sourcePath": "/home/xanewok/repos/confetti-roll/contract/contracts/TestSeederV2.sol",
  "compiler": {
    "name": "solc",
    "version": "0.8.13+commit.abaa5c0e.Emscripten.clang"
  },
  "schemaVersion": "3.4.6",
  "updatedAt": "2022-04-06T16:28:27.977Z",
  "devdoc": {
    "kind": "dev",
    "methods": {},
    "version": 1
  },
  "userdoc": {
    "kind": "user",
    "methods": {},
    "version": 1
  }
}