{
  "contractName": "TestSeederV2",
  "abi": [
    {
      "inputs": [
        {
          "internalType": "uint256",
          "name": "batch_",
          "type": "uint256"
        }
      ],
      "name": "setBatch",
      "outputs": [],
      "stateMutability": "nonpayable",
      "type": "function"
    },
    {
      "inputs": [
        {
          "internalType": "uint256",
          "name": "batch_",
          "type": "uint256"
        },
        {
          "internalType": "bytes32",
          "name": "reqId",
          "type": "bytes32"
        }
      ],
      "name": "setBatchToReqId",
      "outputs": [],
      "stateMutability": "nonpayable",
      "type": "function"
    },
    {
      "inputs": [],
      "name": "executeRequestMulti",
      "outputs": [],
      "stateMutability": "nonpayable",
      "type": "function"
    },
    {
      "inputs": [],
      "name": "getBatch",
      "outputs": [
        {
          "internalType": "uint256",
          "name": "",
          "type": "uint256"
        }
      ],
      "stateMutability": "view",
      "type": "function"
    },
    {
      "inputs": [
        {
          "internalType": "uint256",
          "name": "batch_",
          "type": "uint256"
        }
      ],
      "name": "getReqByBatch",
      "outputs": [
        {
          "internalType": "bytes32",
          "name": "",
          "type": "bytes32"
        }
      ],
      "stateMutability": "view",
      "type": "function"
    }
  ],
  "bytecode": "0x608060405234801561001057600080fd5b506101d1806100206000396000f3fe608060405234801561001057600080fd5b50600436106100675760003560e01c8063544a518d11610050578063544a518d1461008c578063591c0e1c146100ac578063b76060f7146100cc57600080fd5b80633b1fee6c1461006c5780634eb6ff8614610082575b600080fd5b6000545b60405190815260200160405180910390f35b61008a6100df565b005b61008a61009a366004610121565b60009182526001602052604090912055565b6100706100ba366004610143565b60009081526001602052604090205490565b61008a6100da366004610143565b600055565b6000546100ed90600161015c565b6000818155604080516020808201859052825180830382018152918301835281519181019190912093835260019052902055565b6000806040838503121561013457600080fd5b50508035926020909101359150565b60006020828403121561015557600080fd5b5035919050565b60008219821115610196577f4e487b7100000000000000000000000000000000000000000000000000000000600052601160045260246000fd5b50019056fea2646970667358221220dab62da490bbe7571e84de8f01f912465490aa39ea6697618ced464ed8bd98d864736f6c634300080d0033",
  "immutableReferences": {},
  "source": "// SPDX-License-Identifier: MIT\npragma solidity ^0.8.0;\n\nimport './ISeederV2.sol';\n\n// Originally deployed at https://etherscan.io/address/0x2Ed251752DA7F24F33CFbd38438748BB8eeb44e1\ncontract TestSeederV2 is ISeederV2 {\n    uint256 batch;\n    mapping(uint256 => bytes32) batchToReqId;\n\n    function setBatch(uint256 batch_) external {\n        batch = batch_;\n    }\n\n    function setBatchToReqId(uint256 batch_, bytes32 reqId) external {\n        batchToReqId[batch_] = reqId;\n    }\n    function executeRequestMulti() external {\n        batch = batch + 1;\n        batchToReqId[batch] = keccak256(abi.encodePacked(batch));\n    }\n\n    function getBatch() external override view returns (uint256) {\n\t    return batch;\n    }\n    function getReqByBatch(uint256 batch_) external override view returns (bytes32) {\n        return batchToReqId[batch_];\n    }\n}\n",
  "sourcePath": "/home/xanewok/repos/confetti-roll/contract/contracts/TestSeederV2.sol",
  "compiler": {
    "name": "solc",
    "version": "0.8.13+commit.abaa5c0e.Emscripten.clang"
  },
  "schemaVersion": "3.4.6",
  "updatedAt": "2022-04-05T21:18:30.451Z",
  "devdoc": {
    "kind": "dev",
    "methods": {},
    "version": 1
  },
  "userdoc": {
    "kind": "user",
    "methods": {},
    "version": 1
  }
}