{
  "contractName": "TestSeederV2",
  "abi": [
    {
      "inputs": [
        {
          "internalType": "address",
          "name": "testSeedStorage_",
          "type": "address"
        }
      ],
      "stateMutability": "nonpayable",
      "type": "constructor"
    },
    {
      "inputs": [
        {
          "internalType": "uint256",
          "name": "batch_",
          "type": "uint256"
        }
      ],
      "name": "setBatch",
      "outputs": [],
      "stateMutability": "nonpayable",
      "type": "function"
    },
    {
      "inputs": [
        {
          "internalType": "uint256",
          "name": "batchCadence_",
          "type": "uint256"
        }
      ],
      "name": "setBatchCadence",
      "outputs": [],
      "stateMutability": "nonpayable",
      "type": "function"
    },
    {
      "inputs": [
        {
          "internalType": "uint256",
          "name": "batch_",
          "type": "uint256"
        },
        {
          "internalType": "bytes32",
          "name": "reqId",
          "type": "bytes32"
        }
      ],
      "name": "setBatchToReqId",
      "outputs": [],
      "stateMutability": "nonpayable",
      "type": "function"
    },
    {
      "inputs": [
        {
          "internalType": "uint256",
          "name": "value",
          "type": "uint256"
        }
      ],
      "name": "setLastBatchTimestamp",
      "outputs": [],
      "stateMutability": "nonpayable",
      "type": "function"
    },
    {
      "inputs": [],
      "name": "getNextAvailableBatch",
      "outputs": [
        {
          "internalType": "uint256",
          "name": "",
          "type": "uint256"
        }
      ],
      "stateMutability": "view",
      "type": "function"
    },
    {
      "inputs": [],
      "name": "executeRequestMulti",
      "outputs": [],
      "stateMutability": "nonpayable",
      "type": "function"
    },
    {
      "inputs": [],
      "name": "getBatch",
      "outputs": [
        {
          "internalType": "uint256",
          "name": "",
          "type": "uint256"
        }
      ],
      "stateMutability": "view",
      "type": "function"
    },
    {
      "inputs": [
        {
          "internalType": "uint256",
          "name": "batch_",
          "type": "uint256"
        }
      ],
      "name": "getReqByBatch",
      "outputs": [
        {
          "internalType": "bytes32",
          "name": "",
          "type": "bytes32"
        }
      ],
      "stateMutability": "view",
      "type": "function"
    }
  ],
  "bytecode": "0x608060405263624cc4e1600355605a60045534801561001d57600080fd5b506040516103bf3803806103bf83398101604081905261003c91610061565b600080546001600160a01b0319166001600160a01b0392909216919091179055610091565b60006020828403121561007357600080fd5b81516001600160a01b038116811461008a57600080fd5b9392505050565b61031f806100a06000396000f3fe608060405234801561001057600080fd5b50600436106100885760003560e01c8063544a518d1161005b578063544a518d146100c8578063591c0e1c146100e857806366f7a96814610108578063b76060f71461011b57600080fd5b806337ed6e6f1461008d5780633b1fee6c146100a25780633c099fce146100b85780634eb6ff86146100c0575b600080fd5b6100a061009b36600461026f565b600455565b005b6001545b60405190815260200160405180910390f35b6100a661012e565b6100a0610145565b6100a06100d6366004610288565b60009182526002602052604090912055565b6100a66100f636600461026f565b60009081526002602052604090205490565b6100a061011636600461026f565b600355565b6100a061012936600461026f565b600155565b600060045460035461014091906102aa565b905090565b6000805460015482526002602090815260409283902054925173ffffffffffffffffffffffffffffffffffffffff9092169263113d49f8929091610196914291439101918252602082015260400190565b60408051601f198184030181529082905280516020909101207fffffffff0000000000000000000000000000000000000000000000000000000060e085901b1682526101ee9291600401918252602082015260400190565b600060405180830381600087803b15801561020857600080fd5b505af115801561021c573d6000803e3d6000fd5b50505050600154600161022f91906102aa565b60018190556040805160208101929092520160408051601f1981840301815291815281516020928301206001546000908152600290935291205542600355565b60006020828403121561028157600080fd5b5035919050565b6000806040838503121561029b57600080fd5b50508035926020909101359150565b600082198211156102e4577f4e487b7100000000000000000000000000000000000000000000000000000000600052601160045260246000fd5b50019056fea2646970667358221220ca1e1e750ac37ce69883b5e84caf43573313909a7346a10d32701fbcd313826e64736f6c634300080d0033",
  "immutableReferences": {},
  "source": "// SPDX-License-Identifier: MIT\npragma solidity ^0.8.0;\n\nimport \"./ISeederV2.sol\";\n\ninterface ITestSeedStorage {\n    function setRandomness(bytes32 key, uint256 value) external;\n}\n\n// Originally deployed at https://etherscan.io/address/0x2Ed251752DA7F24F33CFbd38438748BB8eeb44e1\ncontract TestSeederV2 is ISeederV2 {\n    ITestSeedStorage testSeedStorage;\n    uint256 batch;\n    mapping(uint256 => bytes32) batchToReqId;\n    uint256 _lastBatchTimestamp = 1649198305;\n    uint256 _batchCadence = 90;\n\n    constructor(address testSeedStorage_) {\n        testSeedStorage = ITestSeedStorage(testSeedStorage_);\n    }\n\n    function setBatch(uint256 batch_) external {\n        batch = batch_;\n    }\n\n    function setBatchCadence(uint256 batchCadence_) external {\n        _batchCadence = batchCadence_;\n    }\n\n    function setBatchToReqId(uint256 batch_, bytes32 reqId) external {\n        batchToReqId[batch_] = reqId;\n    }\n\n    function setLastBatchTimestamp(uint256 value) external {\n        _lastBatchTimestamp = value;\n    }\n\n    function getNextAvailableBatch() external view returns (uint256) {\n        return _lastBatchTimestamp + _batchCadence;\n    }\n\n    function executeRequestMulti() external {\n        // Poor man's randomness generator - ONLY use this when testing\n        testSeedStorage.setRandomness(\n            batchToReqId[batch],\n            uint256(keccak256(abi.encodePacked(block.timestamp, block.number)))\n        );\n\n        batch = batch + 1;\n        batchToReqId[batch] = keccak256(abi.encodePacked(batch));\n        _lastBatchTimestamp = block.timestamp;\n    }\n\n    function getBatch() external view override returns (uint256) {\n        return batch;\n    }\n\n    function getReqByBatch(uint256 batch_)\n        external\n        view\n        override\n        returns (bytes32)\n    {\n        return batchToReqId[batch_];\n    }\n}\n",
  "sourcePath": "/home/xanewok/repos/confetti-roll/contract/contracts/TestSeederV2.sol",
  "compiler": {
    "name": "solc",
    "version": "0.8.13+commit.abaa5c0e.Emscripten.clang"
  },
  "schemaVersion": "3.4.6",
  "updatedAt": "2022-04-07T21:12:06.942Z",
  "devdoc": {
    "kind": "dev",
    "methods": {},
    "version": 1
  },
  "userdoc": {
    "kind": "user",
    "methods": {},
    "version": 1
  }
}